:020000041000EA
:1000000000B5324B212058609868022188439860DF
:10001000D860186158612E4B002199600221596106
:100020000121F02299502B49196001219960352056
:1000300000F044F80222904214D00621196600F024
:1000400034F8196E01211966002018661A6600F04E
:100050002CF8196E196E196E052000F02FF8012189
:100060000842F9D1002199601B49196000215960AB
:100070001A491B48016001219960EB211966A021F2
:10008000196600F012F800219960164914480160C1
:100090000121996001BC002800D000471248134993
:1000A000086003C880F30888084703B5996A0420EC
:1000B0000142FBD001200142F8D103BD02B5186610
:1000C0001866FFF7F2FF186E186E02BD00000240BE
:1000D000000000180000070000035F00212200005C
:1000E000F4000018222000A00001001008ED00E03C
:1000F00000000000000000000000000074B24E7A12
:1001000000200420F7010010C3010010C5010010F9
:10011000C1010010C1010010C1010010C101001097
:10012000C1010010C1010010C1010010C701001081
:10013000C1010010C1010010C9010010CB01001065
:10014000CD010010CD010010CD010010CD01001037
:10015000CD010010CD010010CD010010CD01001027
:10016000CD010010CD010010CD010010CD01001017
:10017000CD010010CD010010CD010010CD01001007
:10018000CD010010CD010010CD010010CD010010F7
:10019000CD010010CD010010CD010010CD010010E7
:1001A000CD010010CD010010CD010010CD010010D7
:1001B000CD010010CD010010CD010010CD010010C7
:1001C00000BE00BE00BE00BE00BE00BEEFF3058054
:1001D000103800BEF2EB8871707300109C73001031
:1001E0003402001090A31AE700201F49086006C8D7
:1001F00081F3088810471D48006800282FD10DA4FE
:100200000ECC002902D000F012F8F9E71849194A7B
:10021000002000E001C19142FCD1174988471749ED
:1002200088471749884700BEFDE701C901C29A42C5
:10023000FBD370479C730010C00000205C0B0020B3
:10024000387E00100000042000000420387E0010DA
:10025000001004200010042000000000704709482E
:1002600003F0BCF80047000008ED00E0000000D0FB
:10027000600B0020101900206521001055030010AC
:10028000212100105756000006005250ABB36053B6
:10029000B46F001006005250861C0302C46F001099
:1002A000060052505422A29DD06F001005005250FB
:1002B000DE65F468387E0010F8B5C0460448054B8A
:1002C00010B5834203D0044B002B00D0984710BDDB
:1002D0005C0B00205C0B0020000000000648074972
:1002E000091A8B10C90FC91810B5491003D0044B57
:1002F000002B00D0984710BD5C0B00205C0B002049
:100300000000000010B5074C2378002B09D1FFF73F
:10031000D5FF054B002B02D0044800E000BF0123AD
:10032000237010BD600C002000000000D85F00109A
:10033000054B10B5002B03D00449054800E000BF71
:10034000FFF7CCFF10BDC04600000000640C002089
:10035000D85F001010B505F05DFC04F0F3F8012043
:100360000021404205F042F8F9E7000000487047DC
:10037000F85F0010004870470C60001000207047C4
:100380007047000000487047206100100048704727
:10039000FC60001070B5002803D0022811D900209D
:1003A00070BD124B1968124840230222801805F0D4
:1003B0004BFD012401346400C0239B001C430C4B03
:1003C0001C808000094BC558280005F07DFDC4B293
:1003D0001F2C00D91F2400239C42EBD95A1CE85C37
:1003E0005100034BC852D3B2F6E7C046600A002062
:1003F0007C0C002010B58300084A944663441C68B6
:1004000040226240C02414408022520113431C60E9
:10041000C000034B9C466044416010BD04C00140D5
:1004200000400140034B1B6802201840431E9841C6
:10043000C0B2704700C00640EFF3108072B6034BA5
:100440001B68002BFBD0BFF35F8F70472C0100D0DF
:10045000BFF35F8F024B00221A6080F31088704751
:100460002C0100D0F8B506000C001500FFF7E4FFE2
:10047000E308F718F15C07222240012393400B4266
:1004800005D1DBB20B433B70FFF7E2FFF8BD210063
:10049000280001F0E3FEF0B583B0060001911400DE
:1004A0001F00FFF7C9FF00E00134BC420CD8E3088D
:1004B000F518F35C0721214001228A401A42F3D14A
:1004C000D2B21A432A7001E001246442FFF7C0FF50
:1004D000002C02DB200003B0F0BD019B002BF9D003
:1004E000089801F0BBFE0000002307E0054A9A18B7
:1004F0009200BFF35F8F0021116001331F2BF5D9EC
:100500007047C04640000034054A1078431CDBB2F7
:100510001370172B02D9130010221A707047C046AF
:100520006C0A002000B583B00100044B00931F2328
:1005300018220348FFF7AFFF03B000BD2C61001085
:100540005C120020074B9B68103080001950BFF3ED
:100550005F8FBFF35F8F044B0021196082F3108817
:100560007047C04600ED00E0240100D010B5091A24
:10057000081F0A4B9C466144094A914208D8C307A8
:1005800006D440104005400D064B184380B210BD04
:10059000054B064AA321064801F0C6FDFC070000F2
:1005A000FE0F000000E0FFFF486100109C63001098
:1005B0007861001010B5091A04394C08090B08D1EC
:1005C0004905490D064A11430180064B23434380E8
:1005D00010BD054B054AAB21054801F0A5FDC046FD
:1005E00000F0FFFF00F8FFFFB8610010706300101B
:1005F0007861001001238340034A10681840431EAD
:100600009841C0B27047C04600E100E0002904D024
:10061000034B1860034B18607047034B1860FBE7EF
:1006200080E200E000E100E080E100E010B501239D
:1006300083401800FFF7EAFF10BD0000024B9B68E3
:1006400010308000C058704700ED00E070B5040025
:100650000D00EFF3108672B60C4B1B68002BFBD01D
:10066000BFF35F8F2000FFF7E9FF094B984201D0ED
:10067000A84205D1320029002000FFF763FF70BDBA
:10068000044B054A8621054801F04EFD240100D0A7
:10069000CD010010C8610010D06300107861001017
:1006A000F0B5DE4657464E464546E0B589B0814630
:1006B00001911500EFF3108A72B6744B1B68002B82
:1006C000FBD0BFF35F8F724B0027DF57002F40DB5B
:1006D0007C00E419A4006F4824180622A2566C4B33
:1006E0001A706D4B9A684B4610339B00D35898464E
:1006F0001E001B1A2F2B38D9684B98452FD105AEF9
:10070000674B33807B009B46D8198000614B98462D
:10071000404402306349FFF729FF7080624BB38089
:10072000FF23B371F571019B07935F44BF004744FA
:100730000ECE0EC701231C43A046524641464846F2
:10074000FFF700FF09B0F0BCBB46B246A946A04681
:10075000F0BD564B564AD721564801F0E5FC564BA2
:10076000534ADE21534801F0DFFCC04340440C21D2
:1007700002F088FE002912D101239E43B3463300C4
:100780000026DA79AA4211D90621595600290CDB34
:100790004A00521892001E003E4B9B18F1E7474B4F
:1007A000434AEA21434801F0BFFC1E00002E3AD024
:1007B00005AB434A1A80813A5A800623F3560293C6
:1007C000002B17DA3F4805AB9B469880029A9A7136
:1007D000DD71019A0792301D2100FFF7C7FEB0803E
:1007E000B7717B00DB199B002A4FFF185B4607CBD4
:1007F00007C7A2E77800C0198000264BC018043054
:10080000321DB388D90A1C2907D15B05591502315D
:1008100049005118FFF7AAFED5E72B4B2B4AB1210F
:10082000244801F081FC05AE1D4B33807B00029310
:10083000D8198000174A9046020042440392901C47
:100840001849FFF793FE7080039A101D5946FFF771
:100850008DFEB0801E4B5A464146521A52415343B8
:100860001B0DB371F571019A0792029B9C46674478
:10087000BF0047440ECE0EC7114B5A461380813B32
:10088000538001231C43A04657E7C046240100D0F3
:100890000B190020700A002000ED00E0CD010010CF
:1008A00000A1FFFFA00A002001BDFFFF00620010B1
:1008B000B8630010786100102862001050620010C8
:1008C0000148000001BD0000C4620010A8630010D0
:1008D000AAAA0000F0B5CE46474680B583B0060010
:1008E0000D00EFF3108872B6564B1B68002BFBD03F
:1008F000BFF35F8F544B9A6834001034A300D7586D
:10090000524B9F4207D0AF4200D198E00197504B25
:10091000FB1A2F2B09D9424639003000FFF712FE8F
:1009200003B0C0BCB946B046F0BD3000FFF762FE70
:10093000814600213000FFF779FEBFF35F8FEFF3B0
:100940000581002901D08C4211D10123019C9C43D7
:100950000022A368AB4212D00622A256002A0DDB69
:1009600053009B189B002200394CE418F1E7362114
:10097000384B394AFF31394801F0D6FB2200AB42EF
:1009800056D106256557002D38DB6B005B199A00A0
:100990002F4B9B189A68A260DA79E27106229A5668
:1009A000A2719B795BB2002B0FDA2D48A0806B00FF
:1009B0005B199B00264AD3182A4A11789971157041
:1009C00049463000FFF732FEA5E7201D6B005B199A
:1009D0009B001F4A9B181A1D9B88D90A1C2907D106
:1009E0005B055B15023359005118FFF7BFFDDDE7CA
:1009F0001D4B1E4AB121194801F096FB002912D166
:100A0000002A0ED0FF239371194B9380154A137857
:100A1000A371184B0E49641A644163431B0D137094
:100A2000CEE70A4FF2E7201D1349FFF7C3FDC7E7E2
:100A30006A21124B084AFF31084801F075FB034F49
:100A400069E7C046240100D000ED00E0CD010010B0
:100A5000700A0020DC6200108863001078610010CA
:100A600001BD00000B190020C4620010A863001033
:100A700001BDFFFFAAAA0000AA0A0020106300100F
:100A800070B5012101432E4BCB1A2F2B28D8EFF341
:100A90000583002B2BD0EFF3108C72B6294A126815
:100AA000002AFBD0BFF35F8F274A0400244D641B4C
:100AB00064416243120D54B2244A92689B00D2589A
:100AC0008A421BD00022032A32D853009B189B0075
:100AD0001B49CB189B795BB2A3421FD00132F2E7CE
:100AE000C7211B4B1B4A49001B4801F01DFB9221EB
:100AF0001A4B184AFF31184801F016FB134A926846
:100B00001749D150174B1A7882711C70BFF35F8F51
:100B10000C4B00221A608CF3108870BD0D0053003E
:100B2000991889006918FF268E710F4A8A80E9E7B3
:100B3000D1210E4B074A4900074801F0F5FAC0469B
:100B4000700A0020240100D0AAAA000000ED00E0F5
:100B500018630010546300107861001040630010A7
:100B6000CD0100100B19002001BDFFFF4C630010E8
:100B70000022044B02E0044902C30132072AFAD9D9
:100B80007047C04600E400E080808080024B9C46B5
:100B900061448900016070474000003410B50400D2
:100BA000FFF7B2FC01002000FFF7F0FFFF232371E5
:100BB000BFF35F8F10BD10B50400FFF7A5FC010067
:100BC0002000FFF7E3FFFF23237100236371BFF3CE
:100BD0005F8F10BD034B9C46614489000160BFF3E9
:100BE0005F8F70474000003410B504000120FFF70C
:100BF00099FC01002000FFF7EDFF10BD70B5050066
:100C00000C00080000F00EFE0949200000F04EFD27
:100C1000FFF77AFC074B9C466044800068602C75A7
:100C2000D0231B061B786B75A400034BE55070BDE9
:100C3000410F001040000034D81600200A4B1A68FB
:100C4000EFF3108172B61368002BFCD0BFF35F8FF7
:100C5000054B1B68BFF35F8F00221A6081F3108879
:100C600040BF002000217047EC18002010B500297B
:100C700022D003681B7B99421ED8174B9C466144C7
:100C8000090183689C4661440C684968002A19D0B0
:100C900003681B7B9A4215D883680F4884466244D8
:100CA00012019A1810685368020001208B4201D883
:100CB0000ED00020C0B210BD084B094A3C210948A3
:100CC00001F032FA054B064A3C21064801F02CFAA5
:100CD000A242EFD8EDE7C046FFFFFF0F64650010AA
:100CE000786700102C65001010B500291ED0037B1A
:100CF00099421BD84B005B18033B0468A44663442D
:100D0000002919D0002A1DD0914221D0002A25D0D7
:100D1000047BA24222D804685000801803382018AF
:100D20008170197800291FD11A7010BD104B114A1B
:100D30006821114801F0F8F9104B114A6F310E4843
:100D400001F0F2F90F4B0E4A70210B4801F0ECF95B
:100D50000D4B0B4A7121084801F0E6F9044B054A96
:100D60006821054801F0E0F941701A70DDE7C046DE
:100D700088650010E4670010A4650010F06500109D
:100D8000C0670010FC6500100866001070B5060012
:100D90000D001400002914D0002A14D08068736854
:100DA0009847002806D0220029003000FFF79CFF5A
:100DB000280007E02A0021003000FFF795FF2000FF
:100DC00000E0100070BD0800FCE70000F0B583B043
:100DD0000500009201930AAB1C780BAB1F78002C26
:100DE00026D003685A7B944207D10123002B19D1E6
:100DF000002C3BD1200003B0F0BD002C0CD01A7B9E
:100E0000944209D81A6863001B19033BD3189B78D6
:100E1000002BEBD00123E9E73E4B3F4A68213F48D6
:100E200001F082F93E4B3F4A67213F4801F07CF9CF
:100E300003689C7B002CDBD012D01A7B94420FD825
:100E400062001219033A19688C466244517899730A
:100E5000002900D1D9730023937053701370C7E732
:100E60002C4B2D4A68212D4801F05EF9002C3AD018
:100E70002B681B7B9C4236D82C4BE3181B01AA68BD
:100E800094466344009A1A60019A5A60089A9A60DC
:100E9000099ADA602E68002C2BD030D0337B9C422C
:100EA0002DD863001B19033B32689446634400222B
:100EB0009A705A701A70717B22003000FFF766FF3B
:100EC0007073844200D095E7287D009A019B00F062
:100ED00035FC061E01D0002F17D00C9B002B00D133
:100EE00088E71E7086E7124B124A3C210E4801F03B
:100EF0001BF9114B114AA521084801F015F9054BC2
:100F0000054A6821054801F00FF92868210000F022
:100F10004DFEE2E788650010E4670010A46500104C
:100F200020660010F06700102C650010FFFFFF0F17
:100F3000646500107867001028650010D467001001
:100F4000F0B5DE4657464E464546E0B58BB00990B3
:100F5000002308938200B54BD658370052E0B44BBB
:100F6000B44A3F21B44801F0DFF8B44BB44A3C2105
:100F7000B44801F0D9F8002901D1002869D1002135
:100F8000404600F009FEA04219D12A686B6806921B
:100F90000793AB689846EB689A464346002B14D0FB
:100FA000002C18D03B681B7B9C4214D8631EFA6847
:100FB000D35C08931B0218433861002015E0A24B54
:100FC000A24A8E219F4801F0AFF8A14B9F4A92217F
:100FD0009C4801F0A9F8994B9E4A4121994801F09B
:100FE000A3F800239A46984600207B68BFF35F8FE2
:100FF00000221A6086F310884346002B32D1002865
:1010000000D10CE100F046FB02000B1EA7DB002024
:101010000021069007917868EFF3108672B6016898
:101020000029FCD0BFF35F8F396888464C7B002CC9
:10103000D7D09AD0097B8C4297D8874965182D0163
:10104000B9688C46654428686968801A9941002906
:1010500091DD2A686B68099800F070FB00239A46BE
:101060009846C2E7089B1B02234399465146180045
:10107000C04705000E007A68EFF3108B72B6136854
:1010800059424B41D9B2002BF9D1BFF35F8F002EEB
:101090001EDB002E46DD3B69002B47D04B456DD152
:1010A00000F0F8FA02000B1E6EDB52197341002BA0
:1010B00070DB002B72DB002104910131039102945B
:1010C00051460191414600913800FFF77FFE4CE008
:1010D0003B69002BDDD04B4514D1069A079B521B70
:1010E000B341002B14DB002B16DB002104910131EE
:1010F0000391029451460191414600913800FFF757
:1011000065FE32E0554B514AA1214E4801F00CF8E2
:1011100001225242524BE6E7454B464A3F214648A0
:1011200001F002F8002E01D1002DB4D13B68002C53
:1011300050D05A7B944237D1012100294AD1DA7B21
:10114000002A4DD19A7B002A03D1DA7B002A5AD19A
:101150009C73DC73002C5CD03B681B7B9C4258D892
:10116000FA68013C135D0133135500233B617A6833
:10117000BFF35F8F13608BF3108843E7374B334A1D
:10118000A421304800F0D0FF294B2A4A3F212A48A9
:1011900000F0CAFF01225242314B8AE7244B254A14
:1011A0003F21254800F0C0FF002C0DD01A7B94424F
:1011B0000AD862001219033A186884466244927889
:1011C000002ABAD00121B8E7264B274A68212748D0
:1011D00000F0AAFF264B274AF621244800F0A4FF7E
:1011E000002A0AD0197B8A4207D851008A18033A8C
:1011F00019688C4662445470A4E71A4B1A4A682155
:101200001A4800F091FF1C4B1A4AFB21174800F0C6
:101210008BFF0A4B0F4A41210A4800F085FF0BB0B3
:10122000F0BCBB46B246A946A046F0BDD816002089
:1012300040640010446700105C6400106465001096
:10124000786700102C650010486600105C6700107D
:10125000606600109C670010FFFFFF0F6C660010B7
:10126000FFFFFF7F88650010E4670010A465001091
:10127000A8660010B0670010CC66001010B50C4BCB
:101280005B68002B04D00A210A48FFF77FFC10BDE1
:10129000074C2300084A1021206800F08DFB032032
:1012A00000F0ECF903212000FFF7A8FCEBE7C046B3
:1012B000B80A0020EC1800206D0C001010B5064B89
:1012C0005B68002B01D0044810BD044B044A5E212A
:1012D000044800F029FFC046B80A0020E06600106C
:1012E000846700102C650010F0B5DE4657464E4668
:1012F0004546E0B58BB0804616001F00149B9A4609
:10130000159B994616AB1B789B461F2302AA944651
:10131000634400221A702BE0002809D0424612686C
:10132000127B904204D8421E4146C9688A5C41E063
:10133000404B414A4121414800F0F6FE07984CE0FD
:10134000361BAF41002F07DB002F11DA3C4B3D4A23
:101350003F213D4800F0E8FE012676423B4FF3E78F
:10136000374B384A3F21384800F0DEFE002F4FDB74
:1013700043465A68EFF3108472B6136859424B41E2
:10138000D9B20791002BF8D1BFF35F8F1F3302AAA8
:101390009446634404930023039302934B460193C2
:1013A0005346009332003B004046FFF70FFD031EFB
:1013B000B2D1020041464968BFF35F8F00250D603E
:1013C00084F31088002B29D01F2302A98C46634484
:1013D0001B78002BB2D112021043002B20D05B46A9
:1013E000002B1DD04946D04704000D0003000B43DD
:1013F0001DD00029A4DB00F04DF906000F1EAFDB65
:1014000036196F41002FB1DA012676420F4FADE752
:101410000B4B0C4A3F210C4800F086FE0120404255
:101420000BB0F0BCBB46B246A946A046F0BD07983B
:10143000F6E7C046646500109C6700102C6500103C
:1014400040640010446700105C640010FFFFFF7FE1
:10145000F8B504004268EFF3108572B6136858427D
:101460004341D8B2002BF9D1BFF35F8FCBB22268D2
:10147000567BB3421BD10120002848D02069884206
:101480002BD0090AC9B2002B2ED02068007B8342E2
:101490002AD8581EE668305C88422BD0002063684A
:1014A000BFF35F8F00221A6085F31088F8BD002B10
:1014B0000DD0167BB3420AD85E00F618033E1768BB
:1014C000BC466644B678002ED6D00120D4E7134B34
:1014D000134A6821134800F027FE9521124B134A46
:1014E0004900134800F020FE124B134A41211048D6
:1014F00000F01AFE1900100000F058FB0028CED1B1
:1015000032210E4B094AFF31094800F00DFE2369D4
:101510008B42C4D100232361C1E7C0468865001017
:10152000E4670010A4650010046700102C67001029
:101530002C650010646500109C670010286700107F
:1015400070B584B005000C00EFF30583002B1ED1AD
:10155000FFF7B4FE002302930193224B00932A006D
:101560002300FFF7C1FE061E23DD20BFFFF7A6FE06
:101570003100FFF76DFF1C4B5B6A9C422DD81A4A65
:10158000926AAA422CD29C4225D0012026E0164B1A
:101590005B6A994209D8144A926A824207D29942F8
:1015A00001D001201AE0002018E0002016E0012000
:1015B00014E00D4B5B6A9C4209D80B4A926AAA421E
:1015C00007D29C4201D0012008E0002006E0002064
:1015D00004E0012002E0002000E0002004B070BD23
:1015E0000120FBE73D0C00100040054070B5EFF313
:1015F00005801038EFF3108C72B61A4B1B68002B65
:10160000FBD0BFF35F8F01221300834016494B6369
:1016100016490B60164909780C00C440224214D0C8
:10162000114A546A8200134D5259944206D38200E3
:10163000114C125999430E4B197007E00A4A031DC9
:101640009B0099589950002200E00022BFF35F8F61
:10165000044B002119608CF31088002A00D09047B9
:1016600070BDC046280100D0004005403C700540D8
:101670000C190020F01800204412002010B50100C1
:10168000024A0348FEF7EEFE10BDC046086800108F
:101690000A190020044B5B6A034A906A1900536AD6
:1016A0009942F9D17047C0460040054070B504002A
:1016B0000D00EFF3108672B61B4B1B68002BFBD09E
:1016C000BFF35F8F002D1CD02000FEF7B7FF174B34
:1016D00083420BD019002000FEF7B8FF0121200043
:1016E000FEF7A4FF0123A340114A1360A400114B8D
:1016F000E550BFF35F8F0C4B00221A6086F3108811
:1017000070BDA2000B4B0021D1500122A2400A491A
:101710000B7893430B7005492000FFF7DBF800219D
:101720002000FEF783FFE4E7280100D0ED1500104C
:1017300038600540441200200C190020F0B5DE4648
:1017400000B584B00400150001921E000293FFF75B
:10175000A1FF03958E4202D84ED185424CD9EFF3BA
:10176000108B72B6274B1B68002BFBD0BFF35F8F2B
:10177000254A17780125A540EBB23B431370234B54
:101780005D63221D92000199D150A2002049029868
:1017900050501B6A2B4212D11C4B1B6C2B4208D0A1
:1017A0000020BFF35F8F174B00221A608BF3108865
:1017B00023E0184B184AC521184800F0B5FCFFF784
:1017C00069FF8E4214D802D1039B834210D80E4B7E
:1017D0001B78BB420ED00D4B1D625D631F20044081
:1017E0000123A3400E4A1360074B1F701E38D8E731
:1017F0000020D6E70120D4E7012004B080BCBB461E
:10180000F0BDC046280100D00C1900200040054062
:10181000F01800202C680010946800105068001028
:1018200080E200E0EFF3108C72B60B4B1B68002BCC
:10183000FBD0BFF35F8F01238340084A136208493E
:101840000A789A430A70BFF35F8F034B00221A6035
:101850008CF310887047C046280100D00040054036
:101860000C19002010B500291ED0037B99421BD80B
:101870004B005B18033B0468A4466344002919D05D
:10188000002A1DD0914221D0002A25D0047BA242FB
:1018900022D8046850008018033820188170197805
:1018A00000291FD11A7010BD104B114A6821114830
:1018B00000F03AFC104B114A6F310E4800F034FC36
:1018C0000F4B0E4A70210B4800F02EFC0D4B0B4ABB
:1018D0007121084800F028FC044B054A682105489E
:1018E00000F022FC41701A70DDE7C04688650010E8
:1018F0009C690010A4650010F06500108869001054
:10190000FC6500100866001070B506000D0014009C
:10191000002914D0002A14D08068736898470028E2
:1019200006D0220029003000FFF79CFF280007E0C6
:101930002A0021003000FFF795FF200000E0100092
:1019400070BD0800FCE7000010B5002343730133AD
:101950008373037BC3730123027B9A4214D9002B48
:101960000CD0027B934209D85A00D218033A01687E
:101970008C4662440133DBB25370EDE70B4B0C4AEB
:1019800068210C4800F0D0FB002A09D0924207D809
:10199000016853009A18033A8A180023537010BD47
:1019A000024B034A6821034800F0BEFB8865001023
:1019B0009C690010A465001010B50173426083603B
:1019C000FFF7C2FF10BD000070B50400081E00D173
:1019D00070BD002934D0237B994231D84B005B186D
:1019E000033B2268944663445A78002AF0D02DD0F5
:1019F000237B9A422AD853009B18033B21688C46CC
:101A000063445D7800215970002825D0237B9842DB
:101A100022D843001B18033B21688C4663440021F5
:101A2000597001002000FFF76FFF06002900200019
:101A3000FFF7CAFF020031002000FFF765FFC7E78C
:101A4000084B094A6821094800F06EFB054B064A1D
:101A50006821064800F068FB024B034A68210348EE
:101A600000F062FB886500109C690010A4650010FE
:101A700070B505000C00160000292FD034D0037B70
:101A8000994231D84B005B18033B0268944663448B
:101A90005A78002A2ED19A78002A31D11978FFF786
:101AA00093FF0300002E0AD0EA7B002A2ED1AA7BE6
:101AB000002A03D1EA7B002A3BD1AC73EC73002BE4
:101AC0003DD1002C4FD02B7B9C424CD82B68610021
:101AD0000C19033C1C190023637070BD254B264A6A
:101AE0003821264800F020FB254B264A682126484D
:101AF00000F01AFB254B204A3A21204800F014FB45
:101B0000234B1D4A3B211D4800F00EFB002A0AD042
:101B1000297B8A4207D851008A18033A29688C46E3
:101B200062445470C3E7164B164A6821164800F009
:101B3000FBFA184B104A4221104800F0F5FA002B2E
:101B40000BD02A7B934208D843001B18033B2A681A
:101B50009446634400229A70B3E7094B094A68210E
:101B6000094800F0E1FA064B064A6821064800F0F1
:101B7000DBFAC046B068001074690010B868001045
:101B8000886500109C690010A4650010F0680010C2
:101B900018690010CC66001070B504000A00457B7F
:101BA0002900FFF765FF6073280070BD70B5040061
:101BB000002967D0437B8B420ED0002911D0037BD4
:101BC00099420ED84B005B18033B0268D01883780B
:101BD000002B0CD1002056E00121FFF7DDFF012092
:101BE00051E0294B294A6821294800F09DFA002B31
:101BF00020D0227B93421DD85A00D318033B226881
:101C0000D2182568EB5C8B421AD0002B1BD0227BAC
:101C1000934218D85A00D318033B2268D21853783D
:101C20008B4216D0002BF0D11A4B1B4A6B211B485C
:101C300000F07AFA144B154A6821154800F074FA3E
:101C40004378137007E0104B104A6821104800F0E9
:101C50006BFA437853700023837043700122200095
:101C6000FFF706FF0200617B814205D02000FFF7ED
:101C70004BFE6073012006E0094B074A71210748BB
:101C800000F052FA002070BD886500109C690010B9
:101C9000A46500104C6300105C690010B868001067
:101CA0003C69001070B504000D00062000F07EF9BC
:101CB000C000290001F0E6FBC60908D00E4B9E4289
:101CC00017D87F23184001303500460800E0012571
:101CD0006562A6622C3480208001044300232360C7
:101CE000062000F063F98000A901891901F0CAFB00
:101CF00070BD0026014DEBE7FEFF0000FFFF000076
:101D0000002909D00A22064B9C46604443425841B0
:101D10004000044BC252704780225200F3E7C04695
:101D20000080FCBF0019002070B505000C000620E3
:101D300000F03CF9002829D0164B9D4227D0802284
:101D4000D203154B1A60154B1A60154B9B68110096
:101D50009943FAD100212800FFF7D2FF2100280083
:101D6000FFF7A0FF2C002C34E96A60224A406E2164
:101D7000114080225201224311600A4B2B638023C1
:101D80009B01234310221A600323AB6470BD8022A1
:101D90001204D6E70080034000E0004000F000405D
:101DA00000C0004001030000F8B5DE4657464E462D
:101DB0004546E0B505000F0092460A9A93424ED37D
:101DC0001A0E91461E020A9A00233000494601F07D
:101DD00097FB80466C006419A4002F4B9C4664441A
:101DE0006368834200D260602B1FDBB29B46012BED
:101DF0003BD9C0239B012343802212011A60AB0010
:101E0000264A9958002905D0506901F03BFB013062
:101E10000138FDD153465A0123685A40E0231A4045
:101E200080235B0123431A605A46012A28D9802364
:101E30009B012343802212011A604346636042469D
:101E400000233000494601F05BFBAD00134B5851B5
:101E50000120F0BCBB46B246A946A046F8BD104BD7
:101E6000104A2D21104800F05FF9012FC1D1C02385
:101E70009B01234303221A60A368DB07FCD5C9E753
:101E80002168794003220A401A60A2680123BB40FE
:101E90001342FAD0CBE7C046008000406012002019
:101EA000A8690010006A0010BC69001030B583B04A
:101EB0000C2000F017F9FEF7B5FA00280DD000232A
:101EC00004E099002D4A2E4888500133092BF8D997
:101ED0002A4B2C4A5A6203B030BD2B4B00229A6722
:101EE00000F008F9294B01221A60274B5B6C012B8B
:101EF000FBD1274B03221A60234B9B6B012BFBD199
:101F0000013300930433234A0121234800F054F89D
:101F100005230093214A0121214800F04DF8214B6F
:101F20000093002202210420FFF73EFF1E4D009582
:101F30002B00002201210520FFF736FF104C0094F2
:101F40002300002200210720FFF72EFF009423002A
:101F5000002200210820FFF727FF0A4B00932300EF
:101F6000002200210920FFF71FFF00952B0000220F
:101F700000210620FFF718FFADE7C04660120020E1
:101F8000006CDC021BB70000008000403CB0004049
:101F900030B00040002F685900800240008C864716
:101FA00000C00240001BB700405973078000014B7E
:101FB000C058704760120020F0B5C64600B5040056
:101FC0000D00170098460C2001F05CFA0600394B12
:101FD000FA18394B9A4241D843011B1A9901C91A80
:101FE000C90009188901380001F04CFA0200103AC2
:101FF00098235B009A4237D84346013B062B39D8D9
:10200000069B013B062B35D83F09B74238D34346E0
:102010001E04069B1A0316432368002B36DB274B4E
:102020009C4244D080225201254B1A60254B1A60F5
:10203000254B9B6811009943FAD12560A060231DB0
:10204000C02292011A43212313602368002BFCDA7B
:10205000E6600823136080BCB846F0BD1B4B1C4AE9
:1020600011211C4800F060F81B4B194A192119482E
:1020700000F05AF8194B164A1C21164800F054F883
:10208000174B134A2321134800F04EF822683F23D0
:102090001340AB42C3D1A3681B051B0D8342BED1C5
:1020A000E368EE22D2021340B342B8D1D3E78022D4
:1020B0009201B9E780E84BD380F8A93200C0024012
:1020C00000E0004000F0004000C00040106A001036
:1020D000346B0010706A0010B06A0010CC6A0010F7
:1020E000186B001080239B000343014AD3627047A2
:1020F00000800540064BAA2212011A602F22DA60E6
:10210000044B054A1A60024B5B68002BFBDA7047F0
:10211000004002400060024000B0FA0000BEFDE74F
:1021200010B5FFF7FBFF000010B582B00C001900DE
:10213000002A0CD0084B002A0BD0019200932300F8
:102140000200064802F0F2F90120FFF7E7FF044B16
:10215000F1E7034AF1E7C046406B0010506B0010F6
:102160004C6B001070B52B4B2B4A1A602B4B2C4A32
:102170001A602C4B9A682A4B9343FAD12A4C01E0FF
:1021800008CC9847294B9C42FAD3FFF78FFE234B8C
:10219000274A1A60234B9B68DB43DB01FAD1254BAE
:1021A00040229A675A671A67DA66234C09E0234B84
:1021B000234A86212348FFF7B7FF2000FEF7EEFCF5
:1021C0000834214B9C4209D22368002BF5D0012B07
:1021D000EDD12000FEF7EFFC0834F2E71B4CA168BC
:1021E0001B4DC022280002F049F8A560EFF30583DB
:1021F000002B00D000BEFEF777F9FEF7B9FCFFF721
:102200003DF8144C01E008CC9847134B9C42FAD39C
:1022100070BDC04600E00040BFCDFBFE00F00040B6
:10222000FE7F3C0000C00040480B0020580B0020FF
:10223000FFFFFF0100F00140400B0020806B001009
:10224000F86B0010A06B0010480B002000ED00E0C0
:1022500000000020580B00205C0B00200FB400B5DC
:1022600083B0084802F032F9049B002B07D005A97F
:102270000191180002F03AF9034802F027F9012011
:10228000FFF74CFFE46B0010F46B0010704710B5C3
:10229000002802D00B684968984710BD0100002053
:1022A00007E083001B185B00501C08601078C01802
:1022B00030380A681378303BDBB2092BF1D970470C
:1022C000F0B5DE4657464E464546E0B583B09346E8
:1022D0001F000C9B9A460D9C0E9B99460F9B9B07DB
:1022E00003D0B8460F00060022E00192A3468846BC
:1022F0004E46B9460700B44207D2551C4B464146EC
:102300002020B84701342A00F5E73D004F465C46DF
:10231000019B9B46B1464646B84637002E0007E073
:10232000013C551C5346185D43463900B0472A000E
:10233000002CF5D135003E0047460F9B9B0707D484
:10234000100003B0F0BCBB46B246A946A046F0BDA3
:10235000B0464E46B9462F005D46531BB342EFD2FE
:10236000541C4B4641462020B8472200F5E7F0B503
:10237000CE46474680B585B0944698460C9D0D9C48
:102380000EAB1B789946109A119B129EB7071CD46E
:10239000002B0CD0F7070AD54F46002F02D10C377F
:1023A000374204D0013B02E030272F5501349442DC
:1023B00001D21F2CF8D9F70707D59C4205D21F2C54
:1023C00003D830272F550134F5E7F70615D57705E3
:1023D00005D4002C03D0944224D09C4222D00F9AE2
:1023E000102A2BD00F9A102A30D00F9A022A35D0FB
:1023F0001F2C02D830222A5501341F2C05D84A46FA
:10240000002A31D02D222A550134039602930194DB
:10241000009543466246FFF753FF05B0C0BCB9467E
:10242000B046F0BD621E012C06D00F9F102F01D0C8
:102430001400D4E7023CD2E71400D0E7B206D1D4AE
:102440001F2CCFD878222A550134D1E7B206CCD53B
:102450001F2CCAD858222A550134C9E71F2CC7D8C7
:1024600060322A550134C3E7720703D52B222A555F
:102470000134CAE73207C8D520222A550134C4E7FF
:10248000F0B5DE4657464E464546E0B593B0814628
:102490008A46089209931CAB10CB1B789B461E9D65
:1024A000219B9846002C03D1102342469A43904624
:1024B0008023DB0046461E4042461A4212D0002CC2
:1024C00022D000260EE03033D9B2771C0AAB9955E2
:1024D0002900200000F0D6FFAC4216D31F2F14D8DD
:1024E0003E0004002900200000F0CCFFCBB2092BF5
:1024F000E9D94246920605D54121C918C9B20A391F
:10250000C9B2E2E76121F8E7270043460693209B22
:1025100005931F9B049303955B46029301970AABB7
:102520000093099B089A51464846FFF720FF13B0D5
:10253000F0BCBB46B246A946A046F0BDF0B5DE46AB
:1025400057464E464546E0B595B0089009910A9227
:102550000B931E9E1F9C20AB1B789B46229B99468B
:10256000239D269B9A463300234303D110335246C2
:102570009A4392468023DB0057461F4052461A4238
:1025800019D0330023432DD0002714E03033DAB2C2
:102590007B1C98460CABDA554A462B0030002100D4
:1025A00000F0AEFFA5421FD819D043461F2B1BD801
:1025B000474606000C004A462B003000210000F080
:1025C0009FFFD3B2092BE1D95246920605D541228D
:1025D000D218D2B20A3AD2B2DAE76122F8E7B145AC
:1025E000E3D901E00023984653460693259B0593C3
:1025F000249B04934B4603935B460293434601930B
:102600000CAB00930B9B0A9A09990898FFF7AFFE51
:1026100015B0F0BCBB46B246A946A046F0BD0000CE
:10262000F0B5DE4657464E464546E0B591B0834686
:102630008A460C9298461A9C08941B9D0995220084
:102640002B002000290001F0E6F9002800D0E5E089
:1026500001225242D74B2000290001F0D7F900286F
:1026600000D0DBE001225242D34B2000290001F0D0
:10267000B7F9002800D0D1E000220023089E3000E6
:10268000099D290001F0ACF9002800D0DDE0089890
:102690000999069007918023DB001E9A1A400D923B
:1026A0001E9A1A4201D106231C930698079904002A
:1026B0000D000A000600024300D1D1E0080D4005DC
:1026C000400DBE4CA44660440A03120BBC4B13439E
:1026D0001F0001F0B3F9BB4ABB4B01F03EF9BB4A06
:1026E000BB4B01F013F904000D000022B94B300080
:1026F000390001F002F9B84AB84B01F02EF9020096
:102700000B002000290001F001F901F0AFF981462A
:1027100001F094F904000D00B14AB24B01F01DF92B
:102720000022B14B01F0F2F801F0A0F90600AF4A27
:10273000AF4B2000290001F010F904000D0030001B
:1027400001F07CF9AB4AAC4B01F007F902000B0039
:102750002000290001F0D1F804000D0002000B0058
:1027600001F0FBF80A900B91A44BF31800261F050B
:1027700022002B002000290001F0C8F80E900F91D4
:1027800022002B0000208021C90501F0B6F80400CA
:102790000D0000229A4B0A980B9901F0C0F8002214
:1027A000984B01F0B3F802000B000A980B9901F066
:1027B000B6F80022944B01F0A9F802000B000A9829
:1027C0000B9901F0ACF802000B002000290001F089
:1027D0009DF802000B000E980F9901F0A0F800225E
:1027E000774B01F093F832003B0001F0B6F8060099
:1027F0000F0004000D00069A079B01F007F900285E
:1028000030D001235B429C46E14400227D4B3000E6
:10281000390001F084F804000D0023E01E9B0493AE
:102820001D9B03931C9B0293089A099B00920193A2
:1028300043460C9A5146584600F0FCF811B0F0BCE3
:10284000BB46B246A946A046F0BD0023002406932D
:102850000794069680231B069C46654407951AE755
:10286000002399464B466333C62B1ED804261E9B75
:102870001B0526D52B0023430FD0644A644B0698D2
:10288000079901F0BBF8002879D00022614B069827
:10289000079901F0A5F8002871D01C9B4B4506DD77
:1028A0004A46981A431E1C9303E00526DFE70023DF
:1028B0001C938023DB001E9A1A431E9200260023DD
:1028C00099461D9B9E4264D29F1B02231E9A1A406A
:1028D0000A921E9A134202D0002E00D000274B46C7
:1028E000002B07D022002B000698079901F017F85B
:1028F00006900791002200230898099901F070F8CA
:10290000002848D1444B1E9A1340049303971C9B04
:102910000293069B079C0093019443460C9A5146F0
:10292000584600F087F8002E00D187E71E9B9B06D3
:102930003DD54525441C4346020051462800D84752
:102940004B46DA179B18534005220592013E049628
:10295000002203920A3202924A46D00F019000935D
:102960004346220051465846FFF78AFD0A9B002B3A
:1029700000D163E702005F460C9E1D9D54E01C9B46
:10298000002B9ED00D9B002B9BD01C9B013B1C93CE
:1029900097E7002799E7069C079D220029008020E1
:1029A0000006844661440B0006920793AAE765255A
:1029B000C0E7C046FFFFEF7FFFFFEFFF01FCFFFF17
:1029C0000000F03FFB799F501344D33FB3C8608BA6
:1029D000288AC63F0000F83F61436F63A787D23F54
:1029E00071A379094F930A400000E03F1655B5BB2B
:1029F000B16B0240EF39FAFE422EE63FFF030000C2
:102A000000002C4000002440000018402D431CEB27
:102A1000E2361A3F80842E41FFF7FFFF541C4346E5
:102A200051462020B8472200931BAB42F6D310003A
:102A300004E7C046F0B5DE4657464E464546E0B58B
:102A400095B00690079193469946209F1E9A1F9B2A
:102A50001000190000F0DFFF002831D1012252429E
:102A6000BF4B1E981F9900F0BBFF002837D10122F1
:102A70005242BC4B1E981F9900F0C8FF00283DD160
:102A80000022B94B1E981F9900F0C0FF002850D1BA
:102A90000022B64B1E981F9900F0A2FF002848D1D3
:102AA000002200231E981F9900F09AFF002850D1A1
:102AB00000239846229B5B0500D4B6E0002458E032
:102AC000229B0393219B029303230193A84B009322
:102AD0004B465A4607990698FFF7F2FB0EE1229BF8
:102AE0000393219B029304230193A24B00934B4633
:102AF0005A4607990698FFF7E3FBFFE00423229A62
:102B00001A4022990B4210D09B4B002A0FD004226E
:102B10002299039121990291019200934B465A46C2
:102B200007990698FFF7CCFBE8E0944BEDE703220A
:102B3000EEE7229B0493219B039302971E9B1F9C0D
:102B4000009301944B465A4607990698FFF768FD93
:102B5000D4E01E9A1F9B0020002100F0CEFE1E90A4
:102B60001F9101239846A5E70CAB30221A55013F6F
:102B700001341F2C01D8092FF6D81E981F9900F098
:102B800075FF050000F05AFF02000B001E981F9908
:102B900000F0B3FEFA007A4B9B181A685B680A9241
:102BA0000B9300F0DAFE0890099100F083FF060015
:102BB00000F040FF02000B000898099900F09DFE0C
:102BC0000890099100226F4B00F020FF00282ED0C2
:102BD0000136300000F02EFF02000B000A980B991E
:102BE00000F004FF002801D001350026002F2CD171
:102BF000280000F023FF02000B001E981F9900F030
:102C00007CFE06000F0000225E4B00F0E9FE00286B
:102C100046D100225B4B3000390000F0F7FE00285F
:102C20003ED1EB073CD501353AE0062746E70022C6
:102C3000544B0898099900F0D3FE0028D6D1002EF5
:102C400001D0F307D2D50136D0E7AA461F2C11D800
:102C5000013F0A21300000F015FC651C30310CAB3F
:102C600019550A21300000F00DFC092E0ED906007E
:102C70002C00EBE755461F2C0CD87B1E002F09D0EB
:102C80000CAA302111551F000134F4E72B005546E2
:102C90001C00F0E71F2C03D80CAB2E221A55013470
:102CA0001F2C10D80A21280000F0C4FB661C30310C
:102CB0000CAB19550A21280000F0BCFB051E01D001
:102CC0003400EDE734000323229A1340012B1CD07B
:102CD0001F2C06D84346002B32D00CAB2D221A55A0
:102CE0000134229B0393219B029301940CAB00932C
:102CF0004B465A4607990698FFF7E2FA15B0F0BC22
:102D0000BB46B246A946A046F0BD219B002B13D07E
:102D10004346002B02D10C3313420FD0219B013BC1
:102D20002193190003E00CAB30221A5501348C4278
:102D3000CED21F2CF7D9CBE72199F8E72199F6E7F6
:102D4000229B5B0704D50CAB2B221A550134C8E734
:102D5000229B1B07C5D50CAB20221A550134C0E7B6
:102D6000FFFFEFFFFFFFEF7F65CDCD4165CDCDC10B
:102D7000146C0010186C00100C6C0010086C001023
:102D8000006E00100000E03FF0B5DE4657464E46AC
:102D90004546E0B593B082468B4690461193002994
:102DA00000D1EBE200275546119B1878002800D18E
:102DB000E7E2252809D07C1C43463A005946A8473B
:102DC000119B013311932700EEE701331193002487
:102DD000119A11780B00203BD8B2102803D8830039
:102DE000D048C3589F460B00303BDBB2092B2CD98F
:102DF0002A292FD000230A93119B1A782E2A39D022
:102E000000239A46119A1378683BD9B2122976D8D2
:102E10008B00C549CB589F4601231C4301321192B8
:102E2000D6E702231C4301321192D1E704231C434D
:102E300001321192CCE708231C4301321192C7E7FB
:102E400010231C4301321192C2E711A8FFF726FAA2
:102E50000A90D1E71C9B1A1D1C921868002804DBFD
:102E60000A90119B01331193C6E702231C4343428E
:102E70000A93F6E78022D20014435A1C11925A7822
:102E80001300303BDBB2092B04D92A2A07D00023D8
:102E90009A46B7E711A8FFF701FA8246B2E71C9BF2
:102EA0001A1D1C921868002804DB8246119B01330E
:102EB0001193A7E70020F8E780235B002343511C10
:102EC000119152786C2A01D01C0018E0C0239B009D
:102ED0001C430131119112E080232343511C1191B5
:102EE0005278682A01D01C0009E0C0231C4301313C
:102EF000119104E080235B001C4301321192119B6D
:102F000018780300253BDAB2532A00D92CE293004B
:102F1000864AD3589F4680239B001C43013211925E
:102F2000EDE780235B001C4301321192E7E778282C
:102F300009D0582838D06F2838D0622838D01023CC
:102F40009C430A2600E01026582833D0692803D075
:102F5000642801D00C229443630501D501229443D7
:102F600069282AD0642828D0A30500D59FE0E3056E
:102F700000D5B8E0630600D4CAE01C9A111D1C916C
:102F80001168FF220A4005940A9B04935346039359
:102F9000029600230193009243463A0059462800C6
:102FA000FFF76EFA070027E01026CDE70826CBE7EB
:102FB0000226C9E720221443C8E7A30520D4E3056D
:102FC00050D4630666D51C9A111D1C911168FF220E
:102FD0000A40D317D118594005940A9B04935346CD
:102FE00003930296D20F0192009143463A0059464C
:102FF0002800FFF745FA0700119B01331193D3E630
:103000001C9BDA1D07218A43110008311C911168AD
:1030100053689C46DB170C930D930C9A0D9B100084
:1030200048400E90624653400F930E980F990C9AA9
:103030000D9B801A99410E900F9108940A9B07935B
:10304000534606930496002305936346DA0F0292D3
:103050000090019143463A0059462800FFF76EFA66
:103060000700C9E71C9A111D1C911268D317D118CB
:10307000594005940A9B0493534603930296D20F3A
:103080000192009143463A0059462800FFF7F8F9AB
:103090000700B1E7230605D51C9A111D1C910023DA
:1030A000D25E96E71C9A111D1C91126891E71C9B39
:1030B000DA1D07218A43110008311C9108940A9BEC
:1030C00007935346069304960023059302931368CF
:1030D00054680093019443463A0059462800FFF78C
:1030E0002DFA070088E71C9A111D1C9105940A9B74
:1030F00004935346039302960023019313680093AD
:1031000043463A0059462800FFF7BAF9070073E72B
:1031100023060DD51C9A111D1C9112681204120C65
:1031200031E7C046206C0010646C0010B06C0010D9
:103130001C9A111D1C91126825E746281AD01C9B69
:103140000733072293431A0008321C9204940A9A08
:103150000392524602925C681B68009301944346B6
:103160003A0059462800FFF765FC0700119B013320
:10317000119319E620231C43E1E7672801D0472873
:1031800002D180231B011C43452801D0472801D1CF
:1031900020231C431C9B0733072293431A00083249
:1031A0001C9204940A9A0392524602925C681B682D
:1031B0000093019443463A0059462800FFF730FA3D
:1031C0000700119B01331193EEE502231A00224000
:1031D000924623421FD001241C9B1A1D1C927A1C6C
:1031E0009146187843463A005946A8475346002B63
:1031F00016D1119B013311934F46D5E5561C43461A
:1032000059462020B847230032005C1C9D42F5D867
:103210003D001700E0E701233A002F000A9DF4E784
:103220004A46A9460A9D06E0571C434659462020B7
:10323000C84734003A00661CA542F5D84D46914671
:10324000D7E71C9B1A1D1C921B6899465346002BFE
:1032500000D1013B4E4601E0013613003278002ACE
:1032600002D05A1E002BF7D14B46F21A109280233F
:10327000DB0026001E401C4203D0524501D95346B4
:10328000109302231A0022400B92234205D03A00E9
:1032900037004C46A946554620E03A00109B5F4651
:1032A000B3462E0006E0551C434639002020B047A7
:1032B00023002A005C1C0A999942F4D835005E4626
:1032C000BB46109437004C46A946554606E01D0003
:1032D0000134561C43465946C8473200207800281E
:1032E00004D0002FF4D06B1E002DF0D117004D46F6
:1032F0000B9B002B03D1119B0133119354E50A9FC3
:10330000109B06E0561C434659462020A847230040
:1033100032005C1C9F42F5D81700ECE721231C43C8
:103320001C9B1A1D1C921B68009305940823049390
:1033300053460393102302930023019343463A001C
:1033400059462800FFF79CF80700119B01331193A1
:103350002AE57C1C43463A0059462520A847119B84
:103360000133119327001FE57C1C43463A00594660
:10337000A847119B01331193270015E50A4B9A4684
:1033800010E5AA46474502D343465A1E00E03A00DC
:10339000434659460020D047380013B0F0BCBB4626
:1033A000B246A946A046F0BD8D22001000B585B0FA
:1033B000029003910121009313004A4202A902489E
:1033C000FFF7E2FC05B000BD8F2200100148042188
:1033D000014B1847E00A0020FD33001010B5010032
:1033E00018231B8814221088984710BD10B50100BF
:1033F00018231B8816221088984710BDF0B5C646C2
:1034000000B507000E0000250123984600E00135B5
:10341000B5420AD2AC003C192068FFF7DFFF2060FC
:103420000028F4D100239846F1E7404680BCB84616
:10343000F0BD0000124A936F9B0815D29066D166CA
:10344000002905D0FFE7FFE7FFE7516F106F7047D6
:1034500004B580210906C2175140002800D0C84396
:1034600002F07AFD002104BDF0B5146E556E576F61
:10347000166FFFF7E3FF1466556657671667F0BDD2
:10348000000000D0114A936F9B0813D2106651665A
:10349000002905D0FFE7FFE7FFE7516F106F704786
:1034A00004B5002801D00020C04302F055FD0021E2
:1034B00004BDC046F0B5146E556E576F166FFFF71A
:1034C000E5FF1466556657671667F0BD000000D02B
:1034D00094464A4A926F9208624601D228E0C0465A
:1034E000F0B5464E346E756E776F366F00F020F88B
:1034F0009446424A14665566576716676246F0BDA1
:1035000094463E4A926F9208624601D254E0C04609
:10351000F0B53A4E346E756E776F366F00F04CF83A
:103520009446364A14665566576716676246F0BD7C
:10353000002B24DB11D000293EDA00B5C9434042FC
:1035400000D1013100F038F8C943404200D10131C7
:10355000DB43524200D1013300BD002AEBD10028E9
:1035600001D1002905D00020C90FC90701D1C043EE
:10357000410800B502F0E0FC0022002300BD00B5C8
:1035800000290ADBDB43524200D1013300F014F87A
:10359000C943404200D1013100BDC943404200D17E
:1035A0000131DB43524200D1013300F005F8DB4327
:1035B000524200D1013300BD002923D1002B18D184
:1035C000002A0CD0BC460D4F38667A6600210023D5
:1035D000FFE7FFE7FFE77A6F386F6746704700281D
:1035E00001D00748010000B502F0A6FC002200232C
:1035F00000BD02000B00002000217047000000D039
:10360000FFFFFFFF002B00D0BFE0130C28D1002AE2
:10361000E7D080B4114F39667A66FFE7FFE730B430
:10362000040C7B6F396F1B0423433B667A66FFE70C
:10363000FFE7FFE7C04684B27B6F3D6F1B04234367
:103640003B667A66FFE7FFE7C04600232C042D0C9B
:103650007A6F386F00196941B0BC7047000000D024
:10366000F0B594460025140E01D112020835140F4E
:1036700001D112010435940F01D192000235D40F0B
:1036800001D152000135D40B0134254F7C66254C05
:103690003C660E0C93B2FFE7FFE7FFE73C6F664323
:1036A000360C7703BE467343DF0B5B04C01AB94187
:1036B000130C7343DB18C91ACE086643360CB644A4
:1036C00093B273431F0F1B01C01AB941130C73430C
:1036D0001F0B1B05C01AB941860D8F023E4366437E
:1036E000360C092D24DB520A7243801A7703460AEE
:1036F0006643360C16235B1BDE40DF40BF19644671
:103700006643821B7046043506330100D940A84049
:10371000C01900D30131A24206D20023F0BD00003F
:10372000000000D0FFFFFFFF121B0130F3D3F1E7D1
:1037300009277F1BFE406446A2B27243801A00D262
:103740000139220C7243130C1204821A99410B00A6
:103750007046043513370100F940A840801900D3A2
:103760000131002B02D1A2420AD2F0BD013000D3B8
:103770000131121BFAD2013BF8D1A24200D2F0BDB6
:10378000013000D30131121BF7E7F0B51C0C00D05B
:1037900080E00CB400251C0A04D11B02160E334332
:1037A000120208351C0B04D11B01160F3343120102
:1037B00004359C0B04D19B00960F334392000235D5
:1037C000DC0B02D192185B4101351C009718644153
:1037D0000134464F7C66464C3C660E0CFFE7FFE723
:1037E000FFE7C0463C6F6643360C7703BE4697B290
:1037F0007743C01B00D20139C01B00D201399FB2F0
:103800007743C91BC91B170C77437E04FF0B801B32
:10381000B941CE086643360C0C2D33DBB644120B8F
:103820001F053A431B0B97B27743C01B00D20139E7
:103830009FB27743C91B170C77433E043F0C801B94
:10384000B941860D8F023E43664329277F1BFE4008
:103850000C3D7746AF40BF1930BCA2B2ABB2724349
:103860007343801A9941220C7243130C1204801A7C
:10387000994102000B000137001BA941F9D2781EC3
:103880000021F0BD0C277F1BFE4077467F0BAF4029
:10389000FF19E0E700245D1C07D0144F7D663966F0
:1038A000FFE7FFE7FFE7FFE73C6F95B29EB2654396
:1038B0006643401BB141150C1E0C6543664336043C
:1038C0002F0C3E432D04401BB141994204D202000B
:1038D0000B0020000021F0BD01D19042F7D3801AE7
:1038E000994101349942F2D3F6E70000000000D07C
:1038F000FFFFFFFF48404140484018B41B4B5B6846
:10390000FC46019308BD04DFCF3B001018B4174BF1
:103910001B68FC46019308BD00DFD93B00109446AC
:10392000134A926F920809D2624618B40F4BDB68B3
:10393000FC46019308BD0CDF913E00100C4AF0B527
:10394000146E556E576F166F6246FFF7EEFF084A0A
:103950001466556657671667F0BD18B4034B9B682D
:10396000FC46019308BD08DF353D0010E816002035
:10397000000000D0FFB550404240504059404B40FD
:10398000594000E0FFB5154F4C00640D03D0BC4218
:1039900004D10C0314D80020090D09055C00640D46
:1039A00003D0BC4204D11C030AD800221B0D1B0506
:1039B00001264B4009D44B4003D58B4200D18242B3
:1039C000FFBD9942FCD19042FFBD0B43DB1803437E
:1039D0001343F5D0C9434918FFBD0000FF0700009D
:1039E00000B5FFF7CFFF804100BDC04600B5FFF72F
:1039F000C9FF01D9002000BD012000BD00B5FFF7BF
:103A0000B9FF01D9002000BD012000BD00B5FFF7BE
:103A1000B1FF804100BD012040054A00121804D8C2
:103A20005A00121801D8002070470120704700206A
:103A3000704700000021002805D17047C117484099
:103A4000401AFAD0C90713B5064B1B6898470CBC3F
:103A5000441CA2401005120B0349091B0905194318
:103A6000114310BDE81700201F04000010B54C00E2
:103A7000620D8023D218DB00D21A5B057E2A10DD8E
:103A80009E3A13DACC170903490819435242D14030
:103A9000640001341532202A05DAD040084360431F
:103AA00010BD002010BD0846604310BDC80FC018EF
:103AB000013810BD18B4044B5B6AFC46019308BD85
:103AC00024DF414000100000E816002070B51323E9
:103AD0001C78012C14D0012C14DC022C02DC1F4AAF
:103AE0001F4B9A641F48FFF779FC1F4B186070BD8D
:103AF00099001A481A4A885001331F2BF8D9EAE76F
:103B00000023FAE71948FFF771FC05001848FFF792
:103B10006DFC023803789B007F2B19DD8022290081
:103B20000F4800F0ABFB022CD7D1124B1A88B523FB
:103B30001B029A4209D1104B1A88104B9A4204D1A9
:103B40000F4B1A880F4B9A42C7D00020FEF786FB16
:103B50000D4B0E4A32210E48FEF7E6FA953B001057
:103B6000E81600204C330000E81700205344000002
:103B70005346000054380000D83800004946000081
:103B80009C38000059460000506E0010F86E00107E
:103B9000B06E001007B56046002800D100BE018855
:103BA0000A0A0230DF2AFAD1C9B2820804D3028895
:103BB00040880004104300E00068024A505003901F
:103BC00007BD0000E81600200FB403BC0CBCF0B524
:103BD0000124E407634000E0F0B50C0DCF0F661E32
:103BE0003605891B640503D3C943404200D3013124
:103BF000640D03D0661CF60A07D0E41B00207F008A
:103C0000791C89078912803C24031D0DDF0F6E1E6D
:103C100036059B1B6D0503D3DB43524200D30133B2
:103C20006D0D03D06E1CF60A07D0ED1B00227F003D
:103C30007B1C9B079B12803D2D032F1B661B58D4BA
:103C4000A446202E46DA20371400BC401D00BD409B
:103C5000F24033412A4380185941CB0F05D0C94364
:103C6000C043002264425041514162464D0D28D16B
:103C70000D0D07D100281FD0241940414941013AB8
:103C80000D0DF9D0640006D3013000D30131002CB2
:103C900001D140084000013A0BD4941CE40A04D13D
:103CA00012051144DB071944F0BDD907204B194315
:103CB00000E0D9070020F0BD0029DDD1002CDBD1C8
:103CC000F0BD0132C6074008CD0728434908002E41
:103CD000E1D0D9E73C2E29DA203E40371400BC4021
:103CE00000D00124F24014431A00BB401C43D317F8
:103CF000ACE7AC46202F08DA20360400B4400D00B3
:103D0000B540F84039412843A5E73C2F0CDA203F65
:103D100040360400B44000D00124F84004430800B9
:103D2000B1400C43C117EAE710001900002494E7E2
:103D30000000F07FF0B50C0D661E3605891BE60A03
:103D40006405640D02D0651CED0A04D00020012139
:103D50000905803C2403A4461C0D671E3F05DB1BA0
:103D6000E70A6405640D02D0651CED0A04D0002248
:103D700001231B05803C24037740644497B484B23C
:103D800096B27443070C7E43150C6F4380B26843B0
:103D9000361802D3012000043F183004350C0019F6
:103DA0007D41844688B29AB250430C0C62431F0C8A
:103DB0007C438EB27E43921902D301263604A419A5
:103DC0001604170C3618674101BC81B29AB25143F0
:103DD000040C62431B0C5C4380B25843121802D39C
:103DE0000120000424181004130C401863412D18FE
:103DF0005E410020474106BC88B293B258430C0C88
:103E00006343120C544389B251435B1802D301211E
:103E10000904641819041A0C091862416D185641F6
:103E20000020474118BCF902720D1143F0026A0DDF
:103E30001043ED020A0D03D16D1940414941013B88
:103E4000124E9B1B7600B3420ED26D0007D3013099
:103E5000002671416646354301D1400840001B05EC
:103E6000C918E4072144F0BD0BDA013306D1013053
:103E700004D101314F0D01D04908F2E7E1070020DC
:103E8000F0BD013631050020EBE70000FF03000024
:103E9000F0B51C0D671E3F05DB1BE70A6405640DCA
:103EA00002D0661CF60A04D0002201231B05803CC8
:103EB0002403D0252D060026F6432E661E096E66C5
:103EC000CE0FF619B44649004F0D02D07E1CF60AFB
:103ED00003D000200021403F3F033E1BB600B44406
:103EE000013F7F05C91B49082E6F013676089C02E9
:103EF000950D25437543ED137543AD1301356D10D5
:103F0000F603761B0CB4CC02450D2C43A2B2B3B21F
:103F10005A43270C7B43350C6F43A4B26C431B19E7
:103F200002D3012424043F191C041D0CA4187D4154
:103F300024196D41009A91B2ACB26143170C7C43D5
:103F40002B0C5F4392B25A43A41802D301221204ED
:103F5000BF182204230C52187B41019C6C431B198F
:103F6000520ED9010A434401A01A81B2B2B25143A0
:103F700003145A43360C734387B27743D617D219CA
:103F800000277E4136049B191704160C7F185E41EA
:103F90007316ED18F301002680337541A90F06D181
:103FA0006400690AE8055B0A184309D22FE004227D
:103FB000944480337541A90AA8059B0A184326D367
:103FC000404149412404009A019B0D005543641B64
:103FD0004343E41A95B286B27543170C7E43030C33
:103FE0005F4392B25A43B61802D301221204BF189B
:103FF0003204330C52197B4152429C41002C02D4B2
:104000000022013051414008CA071043490802B05C
:104010006246D7079210084BD218084B9A4203D237
:1040200012058918C919F0BD0020002A01DC3900E9
:10403000F0BD01331905F5E7FD030000FE070000A0
:10404000002200B5203200F004F8080000BD000096
:1040500000220B150AD410B5944600F031F8141460
:10406000013400DA0021CB17144C20470020002136
:1040700070476244343A0CD40C2A07DA04009140A9
:10408000904052422032D440214310BDD843D943FE
:1040900010BD203207D40C469440524220321141C8
:1040A000D040204310BD0800C917203203D452422B
:1040B0002032104110BD1800190010BD73400010CF
:1040C0000A0DCC0F531E1B05C91A520503D3C94351
:1040D000404200D30131520D03D0531CDB0A07D0FC
:1040E000121B00206400611C89078912803A1203A8
:1040F000014BD21A70470000FF03000051434343B5
:10410000C9188C46110C83B24B4310B4040C6143A4
:1041100092B280B2504362431C041B0C001910BCC5
:1041200059411304120CC0185141614470470000FA
:1041300070B513231D782A48FFF758F90400012DA4
:1041400011D0012D09DDA31E1B789B007F2B40DDC4
:1041500080222100234800F091F82348FFF73EF920
:10416000224B186070BD542201001E4800F086F8F2
:104170001F4B1A881F4B9A421CD1A7239B011A88F8
:104180001D4B9A4216D11D4B1A881D4B9A4211D1D4
:104190001C4B1A8894239B019A420BD11A4B1A8804
:1041A0001A4B9A4206D11A4B1A681A4B9A4201D1FD
:1041B000152307E01848FEF751F899001748094AF7
:1041C000885001331F2BF8D9144A064B1A62DA6162
:1041D000B7E7134B134A42211348FDF7A5FFC0462A
:1041E00053460000EC1700204C330000E817002075
:1041F000EE290000C40F0000C20D0000962B000045
:10420000C0B50000182B0000CC2A000010B500003B
:10421000FC2C000051ED87644C6B00102D42001007
:104220000C6F0010886F0010406F001007B56046DB
:10423000002800D100BE01880A0A0230DF2AFAD124
:10424000C9B2820804D3028840880004104300E009
:104250000068024A5050039007BD0000EC17002090
:1042600001480421014B1847F00A0020FD330010DB
:10427000014B1B6818470000F00A0020014B5B68E7
:1042800018470000F00A002010B5030008001100D4
:104290001B68984710BD0000F8B507000D00160018
:1042A000437D002B02D0002400200CE003681100A5
:1042B000280098472DE03B7D10E0022115483B681F
:1042C0009847601C0134B44214DA002CF3DD2B193A
:1042D000013B1B780D3B5A425341DBB22A5D0A2A4F
:1042E000F0D1002BEED1A042E7DA211A28183B6862
:1042F0009847E2E7B04203DA311A28183B6898473A
:10430000002E06DDAD19013D2B780D3B5A4253417D
:104310003B75F8BD1870001070B505000368002BE0
:1043200016D00C4B1C6805E0290004C92000FFF7DB
:10433000B3FF2469002C09D02368002BF9D0064B69
:104340001B68002BF0D0A342F3D1EDE700232B60D4
:1043500070BDC046C8120020D012002070B5050004
:104360000C000B68802B05D021684B1C236064185F
:10437000257170BD0800FFF7CFFFF5E710B5FDF719
:1043800089F902000B1E0BDB0D48002112184B416E
:10439000002B0BDB002B0DDB0A4801F0F5FD10BDF7
:1043A000094B0A4A3F210A48FDF7BEFE012252424C
:1043B000084BEFE7044B054A3F210548FDF7B4FEE3
:1043C00040420F00400B00204064001000700010BD
:1043D0005C640010FFFFFF7F10B5024801F0A4FDF0
:1043E00010BDC046400B0020F0B5CE46474680B514
:1043F00083B006000D0090461C00FFF7BFFF81460A
:104400006B1C05D0002C08D0194F1A4B1C6807E014
:10441000300001F059FD0500F4E7174FF5E7246976
:10442000002C17D02368002BF9D0144B1B68002BED
:1044300001D0A342F3D12A0031002000B8474346FF
:10444000002BECD06B46D91D0A230B7001222000F3
:10445000B847E4E74B46002B07D16B1E9D41E8B2FD
:1044600003B0C0BCB946B046F0BDFFF7B5FFF4E7F6
:1044700089420010C812002099420010D01200207A
:10448000094A01E010331A001368002B08D0834258
:10449000F8D1002907D1036913600023036102E00A
:1044A000002900D010607047C812002010B5064BDC
:1044B0001C6801E098472469002C03D06368002B36
:1044C000F8D1F8E710BDC046C812002070B505004D
:1044D00001F0FAFC04000023012201002800FFF78C
:1044E00083FFFFF7E3FF200070BD000070B5A2B0AE
:1044F00004000E00FFF742FF050000230193330084
:10450000220001A90848FEF751FF040001A8FFF7A7
:1045100003FFFFF7CBFF002D02D1200022B070BDBA
:10452000FFF75AFFF9E7C0465D4300100FB400B52E
:1045300083B004A901C90191FFF7D8FF03B008BCFB
:1045400004B0184710B500F0F9F8012010BD0000C4
:10455000F0B583B005000E0000240FE06B46D91DB6
:104560000D230B700020002816D193699B06FCD404
:104570000B78136001300131F5E70134B44219DAE8
:104580000D4B1A682F5D0D4BD31859424B415B0000
:104590000B495B5EBB42E1D06B46D91D0F7000201A
:1045A0000028EAD193699B06FCD40B781360013094
:1045B0000131F5E703B0F0BD041900200080FCBF15
:1045C00000190020F0B583B006000F00002504E0BC
:1045D0006B4607331B782B702500BD4215DA174B4D
:1045E0001A6893691024210019401C420DD16C1CDB
:1045F00075196B46D81D0029EAD19369DB06FCD4F6
:104600001368037001310130F5E70D4B1B68002B77
:104610000CD00A4B1A685023936311003431536B4A
:1046200038221A4080235B010B431A60002D02D010
:10463000280003B0F0BD033DFAE7C046041900208E
:104640005412002010B5064B1B68002B06D0054AFB
:10465000126800219163044A1068984710BDC04653
:1046600054120020041900205812002070B50400D4
:104670000E001C4B1B681C4A9818424250411430D3
:104680000500002C03D0194A1268002A06D0002C1D
:1046900019D0164B1C60164B1E6070BD1549FBF7F8
:1046A000D5FF01212800FBF7C1FF0E4B1A685023EC
:1046B000936311003431536B38221A4080235B011D
:1046C0000B431A60E5E7094A1268002AE1D000228C
:1046D0009A6300212800FBF7A9FF06492800FCF790
:1046E000F9F8D6E7041900200080FCBF541200201E
:1046F000581200204546001070B50D001C000D4BEF
:104700001860002A0BDA002C0EDA0A4B1868290010
:10471000FDF70AFB01210848FFF7B2FE70BD022138
:104720001000FBF767FEEEE702212000FBF762FEB8
:10473000EBE7C04604190020000B002010B5064B23
:104740001B78064B1B78E121012300224902044813
:10475000FFF7D2FF10BDC04694730010987300108D
:104760000040034002007F201040D2094000801822
:104770004001014BC0187047D412002010B5038BC4
:104780003F333F229343022915D0124C2268C26066
:10479000D31823609C0610D10F4C624063408024E4
:1047A0006401A3420FD88906114380231B061943D5
:1047B0004368196010BD5B00E7E7084B084A5421C5
:1047C0000848FDF7B1FC084B054A56210548FDF79E
:1047D000ABFCC046D4160020000010505C700010E6
:1047E000747100108C700010E0700010F8B50500B6
:1047F0000E001400FFF7B6FF7F232B40EF098570F2
:104800007A427A4142700022C2700683C476012F38
:104810000DD0DA0012498C46624482608268002121
:104820001160002B09D143600E4BC360F8BDDA0064
:104830000D498C4662448260F0E7012F09D0013BAC
:10484000DB000A4A9446634443602100FFF796FF69
:10485000ECE7013BDB00064A944663444360F4E71F
:104860008400105000011050800010500C001050B7
:104870000800105070B50C001500FFF773FF2A00F8
:10488000210000F00DF970BD10B5002804D1012100
:104890000520FBF7CBFE10BDD521034B034A490091
:1048A0000348FDF741FCC0462871001064710010F8
:1048B0008C70001010B5002805D100220021802046
:1048C000FFF7D8FF10BDDB21024B034A4900034824
:1048D000FDF72AFC28710010547100108C70001034
:1048E000024B80225202DA647047C0460020115009
:1048F00070B5041E26D100F0ADF8164D0C23AB6741
:10490000FF2215490520FBF7CBFE4022002113486A
:10491000FFF7AEFC002240210020FFF767FF0022D6
:1049200040218020FFF762FF01F01EFB01232B6472
:1049300080239B05EB649023094AEA502000FFF78F
:10494000CFFF70BD8621074B074AFF310748FDF7AF
:10495000EBFBC0460000115061030020D412002080
:1049600010D0010028710010887100108C700010A8
:104970000B785B0602D14B78052B00D070478A7804
:10498000014B1A60FAE7C0460000115010B50C0048
:1049900000280DD1097963791B020B435B05590D82
:1049A000E2789207920FA078FFF720FF012010BD58
:1049B000FC21034B034AFF310348FDF7B5FBC0461A
:1049C00028710010447100108C70001010B501F0B7
:1049D000CBFA10BD10B50400080011001A00002C1D
:1049E00003D1FFF747FF012010BD034B034A0449E1
:1049F0000448FDF799FBC04628710010347100107F
:104A00000A0200008C70001010B508004B0605D19A
:104A1000CB09012B0AD00222054B9A66FFF7A2FEB2
:104A200080221201002101F0CFFA10BD0122F3E72C
:104A30000020115010B508004B0600D110BDFFF743
:104A400091FE0023C3700022014901F0BDFAF5E791
:104A5000FFF7FFFF10B580235B040C4A13600C4A7C
:104A600013600C4B9A6880235B049343F9D10A4C82
:104A70009C2200212000FFF7FBFB80225201002135
:104A80000648FFF7F5FB0923636710BD00E000400F
:104A900000F0004000C00040000011500000105025
:104AA00070B504000D001600837E002B17D1A6827E
:104AB0000023E3820133A3762561200001F044FA4C
:104AC000002804D0094A902380218902D150200077
:104AD00001F06AFA002805D00123237770BD01F0A8
:104AE0006BFAE4E7200001F057FAF7E700201150D5
:104AF00070B5050000240CE063001B19DA00184BA8
:104B00001B689B18002B2AD05B682800984701344B
:104B1000E4B2144B1B78A34210D3134A002A0BD0E3
:104B2000A342E9D8E31ADBB2002B18D15A00D218FD
:104B3000D2000E4B9B18E5E72300F5E70C4C5322FF
:104B400000212000FFF794FBE01C1022FF21FFF75B
:104B50008FFB200013302022FF21FFF789FB70BD5F
:104B6000BC0C002008190020000000001073001089
:104B70002811002010B5FFF7BBFF00F093FD10BD1A
:104B800070B505000C001600C86800F095FDE368DC
:104B9000320001212800984770BD0000F0B5D646CC
:104BA0004F4680B583B006000139C8B2FBF7EEFB73
:104BB000002800D182E04378022B00D080E0C57944
:104BC0006A11013B464C1A40110122781027BA4362
:104BD0000A432270AD112B405B01D2B220218A43DF
:104BE00013432370070009378278C47824021443E2
:104BF0000419A7425BD27B780B2B09D001239A467C
:104C00007B78042B62D1E31B9BB2994600251FE001
:104C1000FB789A463B78FF18F2E76B005B19DA00E5
:104C2000304B1B689B1825E02B001CE02C482B0008
:104C3000019A3900133001F035F8019B9C46674416
:104C4000294B1B78AB42D4D200203AE00135EDB2BB
:104C5000254B1B78AB42F3D3244A002AE4D0AB4265
:104C6000DBD8EB1ADBB2002B32D15A00D218D200BB
:104C70001F4B9B18002B2DD09B684A4639003000F3
:104C8000984701900828E1D98145DFD30022924559
:104C9000CCD9BB789B18DBB21149C918C978FF2958
:104CA0001AD10F49CB18DD700132D2B2EFE7114BA8
:104CB000002B13D000E000BF012002E0002000E044
:104CC000002003B0C0BCBA46B146F0BD0020F8E7F2
:104CD0000020F6E70020F4E70020F2E70120F0E7EB
:104CE00028110020BC0C0020081900200000000042
:104CF000107300100000000070B505000C00CB78A8
:104D000088780F2B50D89A002E498A589746FBF77F
:104D10002DFB020012232100280000F089FC44E052
:104D2000294B002B42D000E000BF021E40D081780A
:104D3000C3781B020B432100280000F079FC34E00B
:104D4000022B09D0214B002B34D000E000BF020021
:104D5000002A05D1002028E0FBF718FB0200F7E746
:104D60009178D3781B020B432100280000F060FCEF
:104D70001BE02379617909021943FBF70BFB021E43
:104D80001AD003782100280000F052FC0DE0104BEF
:104D9000002B13D0FBF7F6FA021E11D00378210086
:104DA000280000F045FC00E0002070BD0020FCE77A
:104DB0000020FAE70020F8E70020F6E70020F4E7FB
:104DC0000020F2E7847200100000000000000000E4
:104DD00085030010034B1878FF38431E9841C0B27A
:104DE0007047C0463C0B002070B50400FFF7F2FF8F
:104DF000061E01D0300070BD532200212348FFF76A
:104E000037FA234D2800FBF7C9FE224B1D60224DC7
:104E100028001430FBF7E8FE280000F0F5FF1F4BD8
:104E20001D601F4B002B04D01E4800E000BF1E4B2E
:104E3000186000250BE06B005B19DA001A4B1B6849
:104E40009B18002BD6D01B6898470135EDB2154B47
:104E50001B78AB4210D3124A002A0BD0AB42EAD8DF
:104E6000EB1ADBB2002BC5D15A00D218D2000F4B7F
:104E70009B18E6E72B00F5E70D4B1C702000FFF7B1
:104E800037FD2000FFF700FD0126B3E728110020C1
:104E9000E01000207C110020200B00208011002059
:104EA0000000000008190020BC0C00201073001046
:104EB0003C0B002070B50C00094B1D788B787022DC
:104EC0001A4201D0002070BD064B9978200000F0F6
:104ED000ADFE0028F7D021002800FFF757FDF2E7CC
:104EE0003C0B002028110020F8B5CE46474680B57F
:104EF00081460C0017001E00089B9846002504E020
:104F0000099A13702378E4180135AF4214DD6378F1
:104F1000052B16D1E1788907890FB14213D1210001
:104F20004846FFF7C7FF002807D0A378DA09012A0F
:104F3000E6D042461370E5E70120C0BCB946B04652
:104F4000F8BD0020F9E70020F7E70000F8B5CE46ED
:104F5000474680B5194800787F250D40CE096F007F
:104F6000174CE419A4193034E478E40704D5002080
:104F7000C0BCB946B046F8BD114CE419A41930279D
:104F8000B946A1444C46E4780127BC4667463C43F9
:104F900027004C46E770FFF71DFD0028E8D16D00A3
:104FA000074B5D19AE193036F37801229343F37045
:104FB000F37803329343F370DAE7C0463C0B0020EA
:104FC0002811002070B50F4B18787F240C40CD09B4
:104FD00062000D4B9B185B193033DB789B0700D5C3
:104FE00070BDFFF711FD6300074CE41864193034FD
:104FF000E37802221343E370E37801221343E37062
:10500000EEE7C0463C0B00202811002070B50F4B86
:1050100018787F240C40CD0962000D4B9B185B195A
:105020003033DB789B0700D470BDFFF703FD6300CE
:10503000074CE41864193034E37802229343E37098
:10504000E378013A9343E370EEE7C0463C0B00205F
:10505000281100207F220A40CB09520003498918F9
:10506000C9183031C8788007C00F70472811002058
:10507000F0B5C64600B582B005000C00002000F077
:105080001BFB237860221340602B00D185E1402B6D
:105090000FD02278D206D20E012A00D1C9E0022A0E
:1050A00000D10FE1002A11D0002002B080BCB84628
:1050B000F0BDC74B002B00D171E1180000F0FCFAE5
:1050C00022000121280000E000BFEEE7202B0AD0DB
:1050D000002B00D06BE16378092B00D969E19B00BC
:1050E000BC4AD3589F4623790F2B00D959E1BA4ABD
:1050F000D318DB78B94A002A05D0B94A127893420E
:1051000011D39B1ADBB2002B00D04CE15900CB1815
:10511000DB00B449C918002900D146E1220028006B
:10512000FFF72EFDC1E75900CB18DB00AE4A11682E
:10513000C918F0E7200000F0C5FAA1782800FFF7B1
:10514000B9FBA54A137802210B4313700120ACE789
:10515000A14B5B786A4606321370012321002800B8
:1051600000F066FA0120A0E7A6789B4B5B78DBB2E3
:10517000B34205D0984B5B78002B09D1002E13D198
:10518000954B5E702100280000F036FA01208CE774
:105190002800FFF71BFC904FBB7898462800FFF7CC
:1051A000A7FC4346BB70E9E731002800FFF7F6FC97
:1051B0000028E5D179E721002800FFF79DFD74E77D
:1051C000A278E3781B021343012B01D000206CE787
:1051D000814A137808210B4313702100280000F046
:1051E0000BFA012061E7A278E3781B021343012B3D
:1051F00001D0002059E7784A137808218B431370B7
:105200002100280000F0F8F901204EE7724B1A78CF
:105210005109920801230B4002210A4013436A46B8
:105220000632138002232100280000F001FA012039
:105230003BE723790F2B00D9BDE0674AD318D97813
:10524000664B002B05D0664B1B78994228D3C91AB0
:10525000C9B2002900D0B0E04B005B18DB00614907
:10526000C918002900D1AAE022002800FFF788FC15
:10527000002800D019E7237860221A4200D014E7F2
:1052800063780A3B012B00D90FE700F015FA637829
:105290000A2B0CD02100280000F0AEF9012004E711
:1052A0004B005B18DB00504A1168C918D9E76B4600
:1052B0009A1D0023137001332100280000F0B8F973
:1052C0000120F2E621797F220A40CE0970200842AF
:1052D00077D15200404882189219D27C3F4800286A
:1052E00005D03F480078824212D3121AD2B2002A67
:1052F00015D15600B218D2003A4EB618002B10D075
:10530000002E60D0220031002800FFF739FCCCE6E7
:105310005600B218D20034480668B618EEE70026E8
:10532000ECE76378012B12D0032B10D0002B01D0B7
:105330000020BAE62800FFF78DFE6B469A1D10800C
:1053400002232100280000F073F90120ADE6A778C0
:10535000E27812023A4304D1012B1AD02800FFF759
:1053600031FE002E31D0220031002800FFF708FC6A
:10537000002000F0A1F9184A3423D35CDB07D80FD2
:10538000002B00D091E62100280000F035F9012023
:105390008BE62800FFF73AFEE3E7002085E60020D1
:1053A00083E6002081E600207FE600207DE60020E5
:1053B0007BE6002079E6002077E6002075E60020F5
:1053C00073E6002071E600206FE601206DE6C0461E
:1053D00000000000C472001028110020000000002E
:1053E0000819002010730010BC0C002030B585B0E7
:1053F00000F015FC002808D105B030BD01AC2078C4
:10540000FFF7B8FB22795C4B9A705C4B1C686269B1
:10541000EFF3108172B61368002BFCD0BFF35F8FDF
:10542000A16101A9200000F09CFC6269A369BFF39F
:105430005F8F0021116083F310880028DCD001AB5E
:105440005B78082BE1D89B004D4AD3589F4601ABAF
:105450001878FFF78FFB4B4B002BD6D000E000BF36
:10546000D3E7454B1A78012401210A431A703322ED
:10547000995CA1439954995C042081439954013269
:10548000995CA1439954995C8143995401AB187874
:1054900002A9FFF7EDFD0028B7D101AC207800216B
:1054A000FFF7B2FA20788021FFF7AEFAADE701AB43
:1054B00019797F220A40CC0950002F4B1B181B1969
:1054C0003033D8780125A843D870D8780335A8435D
:1054D000D870002A1FD05200274B9A181219D37C7B
:1054E000294A002A05D0294A127893421AD39B1AD6
:1054F000DBB2002B00D07FE75A00D218D200244B39
:105500009B18002B00D177E71C6901A84279039B07
:105510000078A04779E701A84279039B007800F062
:10552000DFF872E75A00D218D2001A4B1B689B189A
:10553000E7E7114B1B78DB0700D466E7164B002B1F
:1055400000D162E70C4B18780007C00F00E000BFE5
:105550005BE7094B1B78DB0700D456E70F4B002BAA
:1055600000D152E700E000BF4FE7029B002B00D1C3
:105570004BE70398984748E7281100208011002046
:10558000EC7200100000000000000000081900206C
:1055900010730010BC0C0020000000000000000090
:1055A000F8B50500124B9F89DE89B91B89B20B1C27
:1055B000402900D940239CB20D4B1B785BB2002BD5
:1055C00008DB0021B74211D00A4A23002800FFF768
:1055D000BDFCF8BDB74201D18021F3E7044B9968C7
:1055E00022000448FEF74AFE8021EBE70022ECE7A8
:1055F000C00C0020E810002070B506000C000B4D18
:1056000008222800FEF73AFE0023AB60EB81AB8155
:105610000023E356002B06DB80210023002230000C
:10562000FFF794FC70BD0021F7E7C046C00C0020D6
:10563000F0B5C64600B580460C0016001D00184F98
:1056400008223800FEF71AFEBE600023FB81A37912
:10565000E179090219430B1CA94200D92B1C99B20C
:105660000F4A9381A279E3791B02134309D00029E1
:1056700001D0002E12D04046FFF792FF80BCB84602
:10568000F0BD0023E356002B06DB8021002300221F
:105690004046FFF75BFCF1E70021F7E70020EDE76C
:1056A000C00C002010B5142200210248FEF7E0FDD6
:1056B00010BDC046C00C0020014B18617047C046A9
:1056C000C00C002010B50100044C08222000FEF799
:1056D000D5FD0023A360E381A38110BDC00C002091
:1056E00070B505001C00C9092D4B1B78DB098B42E6
:1056F00011D0002C50D12B4B002B02D02849FFF7A2
:1057000037F9274B1B69002B03D0254A03212800BA
:105710009847012070BD224B1B785BB2002B07DB42
:105720001F4B9868002839D022001F49FEF7A6FDBC
:10573000A2B21B49CB89D3189BB2CB818A681219BC
:105740008A60CA88934201D03F2C21D8144B1B6930
:10575000002B05D0124A02212800984700280DD0BE
:105760000F4B1B785BB2002B06DB8021002300224D
:105770002800FFF7EBFBCDE70021F7E70021280029
:10578000FFF742F980212800FFF73EF90120C1E729
:105790002800FFF705FFBDE70020BBE70020B9E7C1
:1057A000C00C002071490010E810002010B5034A19
:1057B00000210348FEF75CFD10BDC0460C0400004C
:1057C000D40C002010B50020FFF7F0FF10BD000042
:1057D000F0B583B005000E004B79032B57D10B7940
:1057E000DC00E41AA4B21234A4B2944253D80023C9
:1057F000002B09D00027002F4FD0317871184B783B
:10580000212B15D0002443E0DA01D2185200D2181F
:105810009200244882185278002A02D00133DBB269
:10582000E6E7DF01FF187F00FF18BF003F18E2E73F
:105830008123DB00F9500B78C91832797B1C019366
:10584000BB1C009303232800FFF74EFB002826D043
:10585000B379012B18D001233B71B3783B708123BE
:10586000DB00FA58D179137A1B020B43FB80B9781D
:1058700000290DD082239B00FA18893BFF3B9B0037
:105880002800FFF763FB03E0F379FB70E3E70024F4
:10589000200003B0F0BD0024FAE70024F8E700245C
:1058A000F6E7C046D40C0020F0B5CE46474680B59A
:1058B00085B00600150012781F231340012B00D07D
:1058C00047E128790024002C0DD0FF24002C00D0C3
:1058D00045E12700602318001040134243D10129FD
:1058E0000DD0012036E1E3011B195B001B199B0061
:1058F000A14FDB5D9842E9D00134E4B2E3E7EA78F6
:105900006B78062B06D0062B00D02CE1222A18D06B
:1059100000201FE1212AF6D1E3011B195B001F19AA
:10592000BF00954BDF198123DB009C4667443A6832
:10593000002A00D115E1137829003000FFF778FE26
:1059400008E12000FAF716FD0200FB01DB195B00FD
:10595000DF19BF00884BDF19FB8829003000FFF7F3
:1059600067FE0120F6E0202800D0FEE06B780B2BCC
:1059700000D9FCE09B00814AD3589F46012901D001
:105980000120E7E0EB789946A978E3011B195B0059
:105990001F19BF000837784BFF18A879EB791B0255
:1059A00003436846C38180208000834201D96A4650
:1059B000D0816846C089002909D0012B16D97B1CEB
:1059C0009C463970013880B20123984602E0BC46FB
:1059D00000239846009063464A462000FAF7CEFC22
:1059E000404483B2002B05D10020B3E0BC46002325
:1059F0009846EFE73A0029003000FFF719FE012032
:105A0000A8E0012903D003291CD00120A2E0AA7933
:105A1000EB791B02134380229200934201D90020AC
:105A200098E0E201121952001219920082218900B5
:105A30008C4662445049521829003000FFF7F8FDA7
:105A4000012087E0EA78A978E3011B195B001B19A4
:105A50009B00822080008446634447481B18AE792F
:105A6000E87900023043051C8026B600B04200D918
:105A7000351CADB2002904D0012802D9187888421B
:105A800005D000952000FAF77BFC012062E001338D
:105A9000013DADB2F5E7012901D001205AE0E978D6
:105AA000E3011B195B001F19BF00334BDF1979712C
:105AB000334B002B04D0200000E000BF002849D069
:105AC00029003000FFF798FD012043E0012901D0B3
:105AD00001203FE0E2011219520012199200264BF8
