:020000041000EA
:1000000000B5324B212058609868022188439860DF
:10001000D860186158612E4B002199600221596106
:100020000121F02299502B49196001219960352056
:1000300000F044F80222904214D00621196600F024
:1000400034F8196E01211966002018661A6600F04E
:100050002CF8196E196E196E052000F02FF8012189
:100060000842F9D1002199601B49196000215960AB
:100070001A491B48016001219960EB211966A021F2
:10008000196600F012F800219960164914480160C1
:100090000121996001BC002800D000471248134993
:1000A000086003C880F30888084703B5996A0420EC
:1000B0000142FBD001200142F8D103BD02B5186610
:1000C0001866FFF7F2FF186E186E02BD00000240BE
:1000D000000000180000070000035F00212200005C
:1000E000F4000018222000A00001001008ED00E03C
:1000F00000000000000000000000000074B24E7A12
:1001000000200420F7010010C3010010C5010010F9
:10011000C1010010C1010010C1010010C101001097
:10012000C1010010C1010010C1010010C701001081
:10013000C1010010C1010010C9010010CB01001065
:10014000CD010010CD010010CD010010CD01001037
:10015000CD010010CD010010CD010010CD01001027
:10016000CD010010CD010010CD010010CD01001017
:10017000CD010010CD010010CD010010CD01001007
:10018000CD010010CD010010CD010010CD010010F7
:10019000CD010010CD010010CD010010CD010010E7
:1001A000CD010010CD010010CD010010CD010010D7
:1001B000CD010010CD010010CD010010CD010010C7
:1001C00000BE00BE00BE00BE00BE00BEEFF3058054
:1001D000103800BEF2EB8871FCE5031024E6031032
:1001E0003402001090A31AE700201F49086006C8D7
:1001F00081F3088810471D48006800282FD10DA4FE
:100200000ECC002902D000F012F8F9E71849194A7B
:10021000002000E001C19142FCD1174988471749ED
:1002200088471749884700BEFDE701C901C29A42C5
:10023000FBD3704724E60310C0000020D00C002040
:1002400040F20310000004200000042040F20310DC
:10025000001004200010042000000000704709482E
:1002600003F092FD0047000008ED00E0000000D020
:10027000E00C00208C430220F92A0010A10300109A
:10028000B52A00105756000006005250ABB3605319
:10029000B493031006005250861C0302C49303104B
:1002A000060052505422A29DD093031005005250D4
:1002B000DE65F46840F20310F8B5C0460448054B0B
:1002C00010B5834203D0044B002B00D0984710BDDB
:1002D000D00C0020D00C0020000000000648074988
:1002E000091A8B10C90FC91810B5491003D0044B57
:1002F000002B00D0984710BDD00C0020D00C00205F
:100300000000000010B5074C2378002B09D1FFF73F
:10031000D5FF054B002B02D0044800E000BF0123AD
:10032000237010BDE00D002000000000908303103A
:10033000054B10B5002B03D00449054800E000BF71
:10034000FFF7CCFF10BDC04600000000E40D002008
:100350009083031070B5B4230C4DDB0100220C49CF
:10036000280014F031FD0B4C200014F001FD0A4B65
:1003700063618023238034336380E560200014F0C0
:1003800030FD064B186014F0D1FD70BD3C3A0220E0
:1003900038860120583A0220890C0010383A022091
:1003A00010B506F0A9FA06F065F900F0F3F8FFF7CA
:1003B000D1FF09F079FD14F0BFFD06F069FB0022C2
:1003C000034B191C0EF087FE17F026FEFCE7C04613
:1003D00000F8FFFF014B00221A607047200B00203D
:1003E000024BFA2292001A607047C046200B002090
:1003F000014B00221A607047200B002010B502A8A4
:100400000088022A00D010BD0129FCD10028FAD0B2
:100410001B789B0706D5074B00221A60012006F0C7
:1004200083FAF0E7002006F07FFA024B00221A6000
:10043000E9E7C046200B002000487047D88303102E
:1004400000487047EC83031000487047B4830310E2
:1004500070B500280DD0032824D88000124BC55851
:10046000280037F0F3FEC0B21F2800D91F20002358
:100470000EE00D4B19680D480222023004F0D4FB47
:10048000012007E05A1CEC5C5100084BCC52D3B25F
:100490009842F7D801304000C0239B000343034833
:1004A000038070BD0020FCE7240B0020C03A02202E
:1004B00010B582B00C00002005F066FE002808D0C0
:1004C000002C08D10F4B1B78002B14D10D4B0022B0
:1004D0001A7002B010BD002300936A469380043363
:1004E00013706B4600220121002005F0B7FE054B7A
:1004F00001221A70EDE7002300220121002005F0FF
:10050000ADFEE3E78643022010B50C780134E4B277
:10051000042C00D910BD06F015FA01002000FFF7E9
:10052000C7FFF7E70020704730B583B06B46D91D91
:100530000870D02424062023A3614025A561012250
:10054000024837F0DDFE656103B030BD00C00340F6
:1005500030B583B06B46D91D0870D0242406202303
:1005600063614025A5610122024837F0C9FE65613B
:1005700003B030BD00C0034000B583B06B46D91D49
:1005800008700122024837F0BBFE03B000BDC04630
:1005900000C0034010B50120FFF7C6FF01F00CFDBD
:1005A000002907DB0CD0FA229200002303F07EFC26
:1005B00004001DE0CD4BCE4A3F21CE4802F07EFA2A
:1005C000FA21890003F034FC040011E0C74BC84A4B
:1005D0003F21C84802F072FAFA21890003F028FC92
:1005E000001B3B280FD801200021404205F0ECFB06
:1005F00001F0E2FC0029E9DBEED0FA2292000023B0
:1006000003F054FCECE71120FFF78EFF01F0D4FC5F
:10061000002907DB0CD0FA229200002303F046FCED
:1006200004001DE0B14BB24A3F21B24802F046FA45
:10063000FA21890003F0FCFB040011E0AB4BAC4A4B
:100640003F21AC4802F03AFAFA21890003F0F0FBAE
:10065000001BF9280FD801200021404205F0B4FB0F
:1006600001F0AAFC0029E9DBEED0FA229200002377
:1006700003F01CFCECE701F09FFC002907DB0CD029
:10068000FA229200002303F011FC04001DE0974BB6
:10069000974A3F21974802F011FAFA21890003F0A6
:1006A000C7FB040011E0914B914A3F21914802F0B1
:1006B00005FAFA21890003F0BBFB001BF9280FD8CB
:1006C00001200021404205F07FFB01F075FC00296C
:1006D000E9DBEED0FA229200002303F0E7FBECE71F
:1006E0003A20FFF721FF0520FFF732FF01F064FCFD
:1006F000002907DB0CD0FA229200002303F0D6FB7E
:1007000004001DE0794B7A4A3F217A4802F0D6F97D
:10071000FA21890003F08CFB040011E0734B744A4A
:100720003F21744802F0CAF9FA21890003F080FBE6
:10073000001B09280FD801200021404205F044FB8E
:1007400001F03AFC0029E9DBEED0FA229200002306
:1007500003F0ACFBECE7B120FFF7E6FE0020FFF76B
:100760000BFF0620FFF708FF0320FFF705FF01F04E
:1007700023FC002907DB0CD0FA229200002303F0AF
:1007800095FB04001DE0594B594A3F21594802F09E
:1007900095F9FA21890003F04BFB040011E0534B5B
:1007A000534A3F21534802F089F9FA21890003F0A6
:1007B0003FFB001B09280FD801200021404205F013
:1007C00003FB01F0F9FB0029E9DBEED0FA229200ED
:1007D000002303F06BFBECE73620FFF7A5FE0820B3
:1007E000FFF7CAFEB620FFF79FFE1520FFF7C4FEF5
:1007F0000220FFF7C1FEB420FFF796FE0020FFF7AE
:10080000BBFEC020FFF790FE0220FFF7B5FE702070
:10081000FFF7B2FE01F0D0FB002907DB0CD0FA2273
:100820009200002303F042FB04001DE02F4B304AEE
:100830003F21304802F042F9FA21890003F0F8FA2A
:10084000040011E0294B2A4A3F212A4802F036F9D8
:10085000FA21890003F0ECFA001B09280FD80120C7
:100860000021404205F0B0FA01F0A6FB0029E9DBC7
:10087000EED0FA229200002303F018FBECE7C1202F
:10088000FFF752FE0520FFF777FEC220FFF74CFE70
:100890000120FFF771FE0220FFF76EFEC520FFF773
:1008A00043FE3C20FFF768FE3820FFF765FE01F0AD
:1008B00083FB002907DB0CD0FA229200002303F00F
:1008C000F5FA040024E0094B094A3F21094802F0E7
:1008D000F5F8FA21890003F0ABFA040018E0034BA5
:1008E000034A3F21034802F0E9F8C046DC840310C4
:1008F000F884031030850310FA21890003F098FA78
:10090000001B09280FD801200021404205F05CFAA5
:1009100001F052FB0029E2DBEED0FA229200002324
:1009200003F0C4FAECE7FC20FFF7FEFD1120FFF70F
:1009300023FE1520FFF720FEE020FFF7F5FD09203C
:10094000FFF71AFE1620FFF717FE0920FFF714FE27
:100950002020FFF711FE2120FFF70EFE1B20FFF7DE
:100960000BFE1320FFF708FE1920FFF705FE1720E6
:10097000FFF702FE1520FFF7FFFD1E20FFF7FCFD2D
:100980002B20FFF7F9FD0420FFF7F6FD0520FFF708
:10099000F3FD0220FFF7F0FD0E20FFF7EDFDE12053
:1009A000FFF7C2FD0B20FFF7E7FD1420FFF7E4FD82
:1009B0000820FFF7E1FD1E20FFF7DEFD2220FFF7F4
:1009C000DBFD1D20FFF7D8FD1820FFF7D5FD1E2009
:1009D000FFF7D2FD1B20FFF7CFFD1A20FFF7CCFD5C
:1009E0002420FFF7C9FD2B20FFF7C6FD0620FFF7E7
:1009F000C3FD0620FFF7C0FD0220FFF7BDFD0F205D
:100A0000FFF7BAFD01F0D8FA002907DB0CD0FA2273
:100A10009200002303F04AFA04001DE0764B774A67
:100A20003F21774802F04AF8FA21890003F000FAE2
:100A3000040011E0704B714A3F21714802F03EF80A
:100A4000FA21890003F0F4F9001B09280FD80120CE
:100A50000021404205F0B8F901F0AEFA0029E9DBC7
:100A6000EED0FA229200002303F020FAECE72A20CD
:100A7000FFF75AFD0020FFF77FFD0220FFF77CFD06
:100A80000820FFF779FD8120FFF776FD2B20FFF787
:100A90004BFD0020FFF770FD0120FFF76DFD0820E2
:100AA000FFF76AFDA020FFF767FD1320FFF73CFD6D
:100AB00001F082FA002907DB0CD0FA229200002311
:100AC00003F0F4F904001DE04B4B4C4A3F214C4825
:100AD00001F0F4FFFA21890003F0AAF9040011E003
:100AE000454B464A3F21464801F0E8FFFA2189007C
:100AF00003F09EF9001B09280FD801200021404275
:100B000005F062F901F058FA0029E9DBEED0FA228B
:100B10009200002303F0CAF9ECE72920FFF704FD57
:100B200001F04AFA002907DB0CD0FA2292000023D8
:100B300003F0BCF904001DE02F4B304A3F21304840
:100B400001F0BCFFFA21890003F072F9040011E002
:100B5000294B2A4A3F212A4801F0B0FFFA21890097
:100B600003F066F9001BF9280FD80120002140424C
:100B700005F02AF901F020FA0029E9DBEED0FA228B
:100B80009200002303F092F9ECE701F015FA002936
:100B900007DB0CD0FA229200002303F087F904004F
:100BA0001DE0154B154A3F21154801F087FFFA213A
:100BB000890003F03DF9040011E00F4B0F4A3F217B
:100BC0000F4801F07BFFFA21890003F031F9001B87
:100BD000F9280FD801200021404205F0F5F801F076
:100BE000EBF90029E9DBEED0FA229200002303F0B2
:100BF0005DF9ECE710BDC046DC840310F8840310F7
:100C000030850310F8B507000D0016001C002A20DF
:100C1000FFF78AFC0020FFF79BFC3800FFF798FCE9
:100C20000020FFF795FC3000FFF792FC2B20FFF728
:100C30007BFC0020FFF78CFC2800FFF789FC0020DC
:100C4000FFF786FC2000FFF783FC2C20FFF76CFCED
:100C5000F8BD000070B5B3237F2200210020FFF70C
:100C6000D1FF002509E06A00064BD45A200AFFF79D
:100C70006FFCE0B2FFF76CFC0135B423DB019D4251
:100C8000F1DB70BD38D20020F8B505000023C05E4E
:100C90000223EC5E04268B5F002B0BDB06268B5FAA
:100CA000002B07DB00268B5F834203DA0223CF5E33
:100CB000A74204DB280014F0CEFAF8BD0137062065
:100CC0000B5EBB4214DB02202B5EBB4210DD002317
:100CD000CC5E04200B5EA342F0DB00202B5E7B4346
:100CE0001B1916885B0005481E5202320134F0E7DA
:100CF000FFF7B0FF280014F0AEFADEE738D200208C
:100D000010B58300084A944663441C684022624040
:100D1000C02414408022520113431C60C000034BC6
:100D20009C466044416010BD04C001400040014049
:100D300010B501238340D0221206936293610521EE
:100D4000FFF7DEFF10BD0000034B1B6802201840B8
:100D5000431E9841C0B2704700C00640EFF31080B8
:100D600072B6034B1B68002BFBD0BFF35F8F70473D
:100D70002C0100D0BFF35F8F024B00221A6080F37A
:100D8000108870472C0100D0F8B506000C00150043
:100D9000FFF7E4FFE308F718F15C07222240012384
:100DA00093400B4205D1DBB20B433B70FFF7E2FFF0
:100DB000F8BD2100280001F01BFFF0B583B006004C
:100DC000019114001F00FFF7C9FF00E00134BC428D
:100DD0000CD8E308F518F35C0721214001228A4072
:100DE0001A42F3D1D2B21A432A7001E001246442BC
:100DF000FFF7C0FF002C02DB200003B0F0BD019B19
:100E0000002BF9D0089801F0F3FE0000002307E062
:100E1000054A9A189200BFF35F8F002111600133D9
:100E20001F2BF5D97047C04640000034054A1078A2
:100E3000431CDBB21370172B02D9130010221A7057
:100E40007047C046340B002000B583B00100044B4E
:100E500000931F2318220348FFF7AFFF03B000BD24
:100E600078850310A83C0220074B9B681030800057
:100E70001950BFF35F8FBFF35F8F044B00211960E0
:100E800082F310887047C04600ED00E0240100D0D6
:100E900010B5091A081F0A4B9C466144094A914241
:100EA00008D8C30706D440104005400D064B184330
:100EB00080B210BD054B064AA321064801F0FEFD95
:100EC000FC070000FE0F000000E0FFFF9485031008
:100ED000E8870310C485031010B5091A04394C08BB
:100EE000090B08D14905490D064A11430180064BFB
:100EF0002343438010BD054B054AAB21054801F053
:100F0000DDFDC04600F0FFFF00F8FFFF0486031080
:100F1000BC870310C485031001238340034A106873
:100F20001840431E9841C0B27047C04600E100E03F
:100F3000002904D0034B1860034B18607047034B23
:100F40001860FBE780E200E000E100E080E100E003
:100F500010B5012383401800FFF7EAFF10BD000021
:100F6000024B9B6810308000C058704700ED00E0D5
:100F700070B504000D00EFF3108672B60C4B1B68C1
:100F8000002BFBD0BFF35F8F2000FFF7E9FF094B79
:100F9000984201D0A84205D1320029002000FFF775
:100FA00063FF70BD044B054A8621054801F086FDAC
:100FB000240100D0CD010010148603101C880310FA
:100FC000C4850310F0B5DE4657464E464546E0B5AB
:100FD00089B0814601911500EFF3108A72B6744B07
:100FE0001B68002BFBD0BFF35F8F724B0027DF57CE
:100FF000002F40DB7C00E419A4006F48241806226F
:10100000A2566C4B1A706D4B9A684B4610339B007E
:10101000D35898461E001B1A2F2B38D9684B984579
:101020002FD105AE674B33807B009B46D8198000DB
:10103000614B9846404402306349FFF729FF7080B6
:10104000624BB380FF23B371F571019B07935F443B
:10105000BF0047440ECE0EC701231C43A046524694
:1010600041464846FFF700FF09B0F0BCBB46B24618
:10107000A946A046F0BD564B564AD721564801F026
:101080001DFD564B534ADE21534801F017FDC04366
:1010900040440C2102F0CCFE002912D101239E43D2
:1010A000B34633000026DA79AA4211D906215956EF
:1010B00000290CDB4A00521892001E003E4B9B1880
:1010C000F1E7474B434AEA21434801F0F7FC1E0091
:1010D000002E3AD005AB434A1A80813A5A80062343
:1010E000F3560293002B17DA3F4805AB9B469880D6
:1010F000029A9A71DD71019A0792301D2100FFF763
:10110000C7FEB080B7717B00DB199B002A4FFF1828
:101110005B4607CB07C7A2E77800C0198000264BC3
:10112000C0180430321DB388D90A1C2907D15B05C9
:101130005915023149005118FFF7AAFED5E72B4B8C
:101140002B4AB121244801F0B9FC05AE1D4B338078
:101150007B000293D8198000174A9046020042444F
:101160000392901C1849FFF793FE7080039A101D9C
:101170005946FFF78DFEB0801E4B5A464146521A23
:10118000524153431B0DB371F571019A0792029BB3
:101190009C466744BF0047440ECE0EC7114B5A46CB
:1011A0001380813B538001231C43A04657E7C04670
:1011B000240100D08A430220380B002000ED00E01B
:1011C000CD01001000A1FFFF680B002001BDFFFF53
:1011D0004C86031004880310C48503107486031022
:1011E0009C8603100148000001BD00001087031019
:1011F000F4870310AAAA0000F0B5CE46474680B592
:1012000083B006000D00EFF3108872B6564B1B68D2
:10121000002BFBD0BFF35F8F544B9A68340010341F
:10122000A300D758524B9F4207D0AF4200D198E05D
:101230000197504BFB1A2F2B09D942463900300039
:10124000FFF712FE03B0C0BCB946B046F0BD300097
:10125000FFF762FE814600213000FFF779FEBFF301
:101260005F8FEFF30581002901D08C4211D101235A
:10127000019C9C430022A368AB4212D00622A256D6
:10128000002A0DDB53009B189B002200394CE41808
:10129000F1E73621384B394AFF31394801F00EFC6D
:1012A0002200AB4256D106256557002D38DB6B0076
:1012B0005B199A002F4B9B189A68A260DA79E27149
:1012C00006229A56A2719B795BB2002B0FDA2D4849
:1012D000A0806B005B199B00264AD3182A4A11781C
:1012E0009971157049463000FFF732FEA5E7201DC1
:1012F0006B005B199B001F4A9B181A1D9B88D90A1B
:101300001C2907D15B055B15023359005118FFF703
:10131000BFFDDDE71D4B1E4AB121194801F0CEFB90
:10132000002912D1002A0ED0FF239371194B93800C
:10133000154A1378A371184B0E49641A644163432C
:101340001B0D1370CEE70A4FF2E7201D1349FFF77C
:10135000C3FDC7E76A21124B084AFF31084801F074
:10136000ADFB034F69E7C046240100D000ED00E06B
:10137000CD010010380B002028870310D4870310FC
:10138000C485031001BD00008A43022010870310AA
:10139000F487031001BDFFFFAAAA0000720B002012
:1013A0005C87031070B5012101432E4BCB1A2F2B04
:1013B00028D8EFF30583002B2BD0EFF3108C72B6F7
:1013C000294A1268002AFBD0BFF35F8F274A040026
:1013D000244D641B64416243120D54B2244A926846
:1013E0009B00D2588A421BD00022032A32D85300D5
:1013F0009B189B001B49CB189B795BB2A3421FD063
:101400000132F2E7C7211B4B1B4A49001B4801F080
:1014100055FB92211A4B184AFF31184801F04EFB38
:10142000134A92681749D150174B1A7882711C7071
:10143000BFF35F8F0C4B00221A608CF3108870BDD5
:101440000D005300991889006918FF268E710F4A04
:101450008A80E9E7D1210E4B074A4900074801F08D
:101460002DFBC046380B0020240100D0AAAA0000A2
:1014700000ED00E064870310A0870310C48503100B
:101480008C870310CD0100108A43022001BDFFFFAD
:10149000988703100022044B02E0044902C3013282
:1014A000072AFAD97047C04600E400E080808080B7
:1014B000024B9C4661448900016070474000003443
:1014C00010B50400FFF7B2FC01002000FFF7F0FFA9
:1014D000FF232371BFF35F8F10BD10B50400FFF72A
:1014E000A5FC01002000FFF7E3FFFF232371002389
:1014F0006371BFF35F8F10BD034B9C46614489004D
:101500000160BFF35F8F70474000003410B50400E6
:101510000120FFF799FC01002000FFF7EDFF10BD4F
:1015200070B505000C00080000F046FE09492000D7
:1015300000F086FDFFF77AFC074B9C466044800074
:1015400068602C75D0231B061B786B75A400034BB9
:10155000E55070BD651800104000003424410220A1
:101560000A4B1A68EFF3108172B61368002BFCD097
:10157000BFF35F8F054B1B68BFF35F8F00221A60BC
:1015800081F3108840BF00200021704738430220BB
:1015900010B5002922D003681B7B99421ED8174B37
:1015A0009C466144090183689C4661440C68496813
:1015B000002A19D003681B7B9A4215D883680F480C
:1015C0008446624412019A18106853680200012090
:1015D0008B4201D80ED00020C0B210BD084B094A82
:1015E0003C21094801F06AFA054B064A3C210648AD
:1015F00001F064FAA242EFD8EDE7C046FFFFFF0F0B
:101600004C890310608B03101489031010B5002956
:101610001ED0037B99421BD84B005B18033B046828
:10162000A4466344002919D0002A1DD0914221D03C
:10163000002A25D0047BA24222D8046850008018DA
:10164000033820188170197800291FD11A7010BD35
:10165000104B114A6821114801F030FA104B114A21
:101660006F310E4801F02AFA0F4B0E4A70210B48D9
:1016700001F024FA0D4B0B4A7121084801F01EFAC3
:10168000044B054A6821054801F018FA41701A70A8
:10169000DDE7C04670890310CC8B03108C890310E2
:1016A000D8890310A88B0310E4890310F089031074
:1016B00070B506000D001400002914D0002A14D0C3
:1016C000806873689847002806D0220029003000FF
:1016D000FFF79CFF280007E02A0021003000FFF7F9
:1016E00095FF200000E0100070BD0800FCE700003E
:1016F000F0B583B00500009201930AAB1C780BABE8
:101700001F78002C26D003685A7B944207D101230E
:10171000002B19D1002C3BD1200003B0F0BD002CD0
:101720000CD01A7B944209D81A6863001B19033B3A
:10173000D3189B78002BEBD00123E9E73E4B3F4ABF
:1017400068213F4801F0BAF93E4B3F4A67213F48C4
:1017500001F0B4F903689C7B002CDBD012D01A7B1B
:1017600094420FD862001219033A19688C466244F9
:1017700051789973002900D1D97300239370537065
:101780001370C7E72C4B2D4A68212D4801F096F9BC
:10179000002C3AD02B681B7B9C4236D82C4BE3188C
:1017A0001B01AA6894466344009A1A60019A5A6021
:1017B000089A9A60099ADA602E68002C2BD030D0F3
:1017C000337B9C422DD863001B19033B326894463F
:1017D000634400229A705A701A70717B22003000A4
:1017E000FFF766FF7073844200D095E7287D009A6A
:1017F000019B00F06DFC061E01D0002F17D00C9B42
:10180000002B00D188E71E7086E7124B124A3C215C
:101810000E4801F053F9114B114AA521084801F077
:101820004DF9054B054A6821054801F047F928683C
:10183000210000F085FEE2E770890310CC8B0310D5
:101840008C890310088A0310D88B031014890310A5
:10185000FFFFFF0F4C890310608B031010890310EA
:10186000BC8B0310F0B5DE4657464E464546E0B504
:101870008BB00990002308938200B54BD6583700EF
:1018800052E0B44BB44A3F21B44801F017F9B44BCD
:10189000B44A3C21B44801F011F9002901D10028D3
:1018A00069D10021404600F041FEA04219D12A68CA
:1018B0006B6806920793AB689846EB689A46434676
:1018C000002B14D0002C18D03B681B7B9C4214D8F2
:1018D000631EFA68D35C08931B021843386100202A
:1018E00015E0A24BA24A8E219F4801F0E7F8A14BD8
:1018F0009F4A92219C4801F0E1F8994B9E4A412170
:10190000994801F0DBF800239A46984600207B684E
:10191000BFF35F8F00221A6086F310884346002BC6
:1019200032D1002800D10CE100F046FB02000B1E72
:10193000A7DB00200021069007917868EFF310865E
:1019400072B601680029FCD0BFF35F8F3968884602
:101950004C7B002CD7D09AD0097B8C4297D88749F2
:1019600065182D01B9688C46654428686968801A35
:101970009941002991DD2A686B68099800F0A8FB5D
:1019800000239A469846C2E7089B1B0223439946C8
:1019900051461800C04705000E007A68EFF3108B1F
:1019A00072B6136859424B41D9B2002BF9D1BFF33B
:1019B0005F8F002E1EDB002E46DD3B69002B47D0DB
:1019C0004B456DD100F0F8FA02000B1E6EDB521988
:1019D0007341002B70DB002B72DB0021049101317D
:1019E0000391029451460191414600913800FFF75E
:1019F0007FFE4CE03B69002BDDD04B4514D1069AAD
:101A0000079B521BB341002B14DB002B16DB00217C
:101A10000491013103910294514601914146009194
:101A20003800FFF765FE32E0554B514AA1214E4880
:101A300001F044F801225242524BE6E7454B464A38
:101A40003F21464801F03AF8002E01D1002DB4D1D3
:101A50003B68002C50D05A7B944237D10121002999
:101A60004AD1DA7B002A4DD19A7B002A03D1DA7B56
:101A7000002A5AD19C73DC73002C5CD03B681B7B22
:101A80009C4258D8FA68013C135D0133135500237A
:101A90003B617A68BFF35F8F13608BF3108843E775
:101AA000374B334AA421304801F008F8294B2A4A21
:101AB0003F212A4801F002F801225242314B8AE7C5
:101AC000244B254A3F21254800F0F8FF002C0DD07B
:101AD0001A7B94420AD862001219033A18688446A5
:101AE00062449278002ABAD00121B8E7264B274AEF
:101AF0006821274800F0E2FF264B274AF6212448B8
:101B000000F0DCFF002A0AD0197B8A4207D8510076
:101B10008A18033A19688C4662445470A4E71A4B39
:101B20001A4A68211A4800F0C9FF1C4B1A4AFB21C7
:101B3000174800F0C3FF0A4B0F4A41210A4800F042
:101B4000BDFF0BB0F0BCBB46B246A946A046F0BDF7
:101B500024410220DC8403102C8B031030850310F9
:101B60004C890310608B031014890310308A031012
:101B7000448B0310488A0310848B0310FFFFFF0F70
:101B8000548A0310FFFFFF7F70890310CC8B031072
:101B90008C890310908A0310988B0310B48A031069
:101BA00010B50C4B5B68002B04D00A210A48FFF7E4
:101BB0007FFC10BD074C2300084A1021206800F06C
:101BC000C5FB032000F0ECF903212000FFF7A8FC7F
:101BD000EBE7C046800B002038430220911500102F
:101BE00010B5064B5B68002B01D0044810BD044BB8
:101BF000044A5E21044800F061FFC046800B0020CB
:101C0000C88A03106C8B031014890310F0B5DE46EC
:101C100057464E464546E0B58BB0804616001F003D
:101C2000149B9A46159B994616AB1B789B461F231F
:101C300002AA9446634400221A702BE0002809D0BF
:101C400042461268127B904204D8421E4146C9683F
:101C50008A5C41E0404B414A4121414800F02EFF5F
:101C600007984CE0361BAF41002F07DB002F11DA3D
:101C70003C4B3D4A3F213D4800F020FF0126764283
:101C80003B4FF3E7374B384A3F21384800F016FF07
:101C9000002F4FDB43465A68EFF3108472B6136887
:101CA00059424B41D9B20791002BF8D1BFF35F8F56
:101CB0001F3302AA944663440493002303930293C0
:101CC0004B4601935346009332003B004046FFF7DA
:101CD0000FFD031EB2D1020041464968BFF35F8F7A
:101CE00000250D6084F31088002B29D01F2302A942
:101CF0008C4663441B78002BB2D112021043002B98
:101D000020D05B46002B1DD04946D04704000D0073
:101D100003000B431DD00029A4DB00F04DF90600A1
:101D20000F1EAFDB36196F41002FB1DA0126764264
:101D30000F4FADE70B4B0C4A3F210C4800F0BEFEA5
:101D4000012040420BB0F0BCBB46B246A946A046BB
:101D5000F0BD0798F6E7C0464C890310848B03104A
:101D600014890310DC8403102C8B031030850310BE
:101D7000FFFFFF7FF8B504004268EFF3108572B6ED
:101D8000136858424341D8B2002BF9D1BFF35F8F9B
:101D9000CBB22268567BB3421BD10120002848D029
:101DA000206988422BD0090AC9B2002B2ED02068A6
:101DB000007B83422AD8581EE668305C88422BD0CC
:101DC00000206368BFF35F8F00221A6085F31088DC
:101DD000F8BD002B0DD0167BB3420AD85E00F61872
:101DE000033E1768BC466644B678002ED6D0012064
:101DF000D4E7134B134A6821134800F05FFE952186
:101E0000124B134A4900134800F058FE124B134A74
:101E10004121104800F052FE1900100000F090FB24
:101E20000028CED132210E4B094AFF31094800F07B
:101E300045FE23698B42C4D100232361C1E7C0461C
:101E400070890310CC8B03108C890310EC8A03106B
:101E5000148B0310148903104C890310848B031016
:101E6000108B031070B584B005000C00EFF30583F0
:101E7000002B1ED1FFF7B4FE002302930193224BE7
:101E800000932A002300FFF7C1FE061E23DD20BFBA
:101E9000FFF7A6FE3100FFF76DFF1C4B5B6A9C420B
:101EA0002DD81A4A926AAA422CD29C4225D00120EF
:101EB00026E0164B5B6A994209D8144A926A82421C
:101EC00007D2994201D001201AE0002018E000203A
:101ED00016E0012014E00D4B5B6A9C4209D80B4AC6
:101EE000926AAA4207D29C4201D0012008E0002059
:101EF00006E0002004E0012002E0002000E00020D5
:101F000004B070BD0120FBE76115001000400540E2
:101F100070B5EFF305801038EFF3108C72B61A4BE2
:101F20001B68002BFBD0BFF35F8F0122130083409F
:101F300016494B6316490B60164909780C00C440DA
:101F4000224214D0114A546A8200134D52599442CD
:101F500006D38200114C125999430E4B197007E0B9
:101F60000A4A031D9B0099589950002200E0002264
:101F7000BFF35F8F044B002119608CF31088002A97
:101F800000D0904770BDC046280100D000400540F9
:101F90003C7005408B4302203C430220903C0220D1
:101FA00010B50100024A0348FEF7EEFE10BDC04620
:101FB000F08B031089430220044B5B6A034A906A4A
:101FC0001900536A9942F9D17047C0460040054054
:101FD000084B5B6A01E0074B5B6A8B42FBD301E075
:101FE000044B5B6A8B4203D1024B9B6A8342F7D35B
:101FF0007047C0460040054070B504000D00FFF773
:10200000DBFF02000B0020002900801859418B42A1
:1020100002D804D1824202D901204042C1170029CE
:1020200002DBFFF7D5FF70BD024B034A3F21034897
:1020300000F044FDDC840310988C031030850310FD
:1020400070B504000D00EFF3108672B61B4B1B68D1
:10205000002BFBD0BFF35F8F002D1CD02000FEF7BC
:102060007FFF174B83420BD019002000FEF780FF43
:1020700001212000FEF76CFF0123A340114A1360E9
:10208000A400114BE550BFF35F8F0C4B00221A6088
:1020900086F3108870BDA2000B4B0021D1500122A5
:1020A000A2400A490B7893430B7005492000FFF7C3
:1020B000A3F800212000FEF74BFFE4E7280100D041
:1020C000111F001038600540903C02208B43022015
:1020D000F0B5DE4600B584B00400150001921E0084
:1020E0000293FFF769FF03958E4202D84ED18542D5
:1020F0004CD9EFF3108B72B6274B1B68002BFBD02B
:10210000BFF35F8F254A17780125A540EBB23B430B
:102110001370234B5D63221D92000199D150A200E0
:102120002049029850501B6A2B4212D11C4B1B6C49
:102130002B4208D00020BFF35F8F174B00221A609C
:102140008BF3108823E0184B184AC521184800F07B
:10215000B5FCFFF731FF8E4214D802D1039B8342B6
:1021600010D80E4B1B78BB420ED00D4B1D625D6329
:102170001F2004400123A3400E4A1360074B1F7029
:102180001E38D8E70020D6E70120D4E7012004B0AC
:1021900080BCBB46F0BDC046280100D08B43022066
:1021A000004005403C430220148C03107C8C03103B
:1021B000388C031080E200E0EFF3108C72B60B4B0A
:1021C0001B68002BFBD0BFF35F8F01238340084ABD
:1021D000136208490A789A430A70BFF35F8F034B72
:1021E00000221A608CF310887047C046280100D086
:1021F000004005408B43022010B500291ED0037B10
:1022000099421BD84B005B18033B0468A446634407
:10221000002919D0002A1DD0914221D0002A25D0B2
:10222000047BA24222D8046850008018033820188A
:102230008170197800291FD11A7010BD104B114AF6
:102240006821114800F03AFC104B114A6F310E48DA
:1022500000F034FC0F4B0E4A70210B4800F02EFCAE
:102260000D4B0B4A7121084800F028FC044B054A2D
:102270006821054800F022FC41701A70DDE7C04675
:10228000708903109C8D03108C890310D88903106A
:10229000888D0310E4890310F089031070B50600DF
:1022A0000D001400002914D0002A14D0806873682F
:1022B0009847002806D0220029003000FFF79CFF35
:1022C000280007E02A0021003000FFF795FF2000DA
:1022D00000E0100070BD0800FCE7000010B500230E
:1022E000437301338373037BC3730123027B9A42DD
:1022F00014D9002B0CD0027B934209D85A00D21873
:10230000033A01688C4662440133DBB25370EDE757
:102310000B4B0C4A68210C4800F0D0FB002A09D076
:10232000924207D8016853009A18033A8A1800238A
:10233000537010BD024B034A6821034800F0BEFBF6
:10234000708903109C8D03108C89031010B50173E4
:1023500042608360FFF7C2FF10BD000070B504004B
:10236000081E00D170BD002934D0237B994231D89A
:102370004B005B18033B2268944663445A78002A5A
:10238000F0D02DD0237B9A422AD853009B18033BD0
:1023900021688C4663445D7800215970002825D05F
:1023A000237B984222D843001B18033B21688C46AC
:1023B00063440021597001002000FFF76FFF060001
:1023C00029002000FFF7CAFF020031002000FFF7BC
:1023D00065FFC7E7084B094A6821094800F06EFB12
:1023E000054B064A6821064800F068FB024B034A89
:1023F0006821034800F062FB708903109C8D031074
:102400008C89031070B505000C00160000292FD030
:1024100034D0037B994231D84B005B18033B0268F0
:10242000944663445A78002A2ED19A78002A31D1F2
:102430001978FFF793FF0300002E0AD0EA7B002AE9
:102440002ED1AA7B002A03D1EA7B002A3BD1AC73B0
:10245000EC73002B3DD1002C4FD02B7B9C424CD8F1
:102460002B6861000C19033C1C190023637070BDBC
:10247000254B264A3821264800F020FB254B264ACA
:102480006821264800F01AFB254B204A3A212048B3
:1024900000F014FB234B1D4A3B211D4800F00EFBAE
:1024A000002A0AD0297B8A4207D851008A18033AA9
:1024B00029688C4662445470C3E7164B164A68215B
:1024C000164800F0FBFA184B104A4221104800F061
:1024D000F5FA002B0BD02A7B934208D843001B1837
:1024E000033B2A689446634400229A70B3E7094B81
:1024F000094A6821094800F0E1FA064B064A6821BA
:10250000064800F0DBFAC046B08C0310748D03104F
:10251000B88C0310708903109C8D03108C890310F4
:10252000F08C0310188D0310B48A031070B50400EA
:102530000A00457B2900FFF765FF6073280070BD26
:1025400070B50400002967D0437B8B420ED0002970
:1025500011D0037B99420ED84B005B18033B0268F5
:10256000D0188378002B0CD1002056E00121FFF712
:10257000DDFF012051E0294B294A6821294800F05C
:102580009DFA002B20D0227B93421DD85A00D318ED
:10259000033B2268D2182568EB5C8B421AD0002BD3
:1025A0001BD0227B934218D85A00D318033B2268D1
:1025B000D21853788B4216D0002BF0D11A4B1B4AFD
:1025C0006B211B4800F07AFA144B154A6821154814
:1025D00000F074FA4378137007E0104B104A68213A
:1025E000104800F06BFA43785370002383704370F7
:1025F00001222000FFF706FF0200617B814205D027
:102600002000FFF74BFE6073012006E0094B074AEC
:102610007121074800F052FA002070BD7089031044
:102620009C8D03108C890310988703105C8D031018
:10263000B88C03103C8D031070B504000D0006200B
:1026400000F07EF9C000290001F0F2FBC60908D0B5
:102650000E4B9E4217D87F231840013035004608A4
:1026600000E001256562A6622C34802080010443CD
:1026700000232360062000F063F98000A901891976
:1026800001F0D6FB70BD0026014DEBE7FEFF000018
:10269000FFFF0000002909D00A22064B9C46604437
:1026A000434258414000044BC252704780225200BE
:1026B000F3E7C0460080FCBF4C43022070B5050024
:1026C0000C00062000F03CF9002829D0164B9D4252
:1026D00027D08022D203154B1A60154B1A60154B78
:1026E0009B6811009943FAD100212800FFF7D2FF1F
:1026F00021002800FFF7A0FF2C002C34E96A60229B
:102700004A406E21114080225201224311600A4B3F
:102710002B6380239B01234310221A600323AB64A5
:1027200070BD80221204D6E70080034000E0004024
:1027300000F0004000C0004001030000F8B5DE4694
:1027400057464E464546E0B505000F0092460A9AA8
:1027500093424ED31A0E91461E020A9A002330006D
:10276000494601F0A3FB80466C006419A4002F4B7E
:102770009C4664446368834200D260602B1FDBB2D6
:102780009B46012B3BD9C0239B012343802212018E
:102790001A60AB00264A9958002905D0506901F00B
:1027A00047FB01300138FDD153465A0123685A4096
:1027B000E0231A4080235B0123431A605A46012A12
:1027C00028D980239B012343802212011A604346AB
:1027D0006360424600233000494601F067FBAD00CC
:1027E000134B58510120F0BCBB46B246A946A04647
:1027F000F8BD104B104A2D21104800F05FF9012F51
:10280000C1D1C0239B01234303221A60A368DB07C5
:10281000FCD5C9E72168794003220A401A60A26802
:102820000123BB401342FAD0CBE7C04600800040F2
:10283000AC3C0220A88D0310008E0310BC8D031049
:1028400030B583B00C2000F017F9FEF77DFA0028B0
:102850000DD0002304E099002D4A2E488850013302
:10286000092BF8D92A4B2C4A5A6203B030BD2B4BA6
:1028700000229A6700F008F9294B01221A60274BC1
:102880005B6C012BFBD1274B03221A60234B9B6B04
:10289000012BFBD1013300930433234A0121234848
:1028A00000F054F805230093214A0121214800F04B
:1028B0004DF8214B0093002202210420FFF73EFF38
:1028C0001E4D00952B00002201210520FFF736FF49
:1028D000104C00942300002200210720FFF72EFF58
:1028E00000942300002200210820FFF727FF0A4B55
:1028F00000932300002200210920FFF71FFF00950D
:102900002B00002200210620FFF718FFADE7C0468C
:10291000AC3C0220006CDC021BB7000000800040D1
:102920003CB0004030B00040002F685900800240A9
:10293000008C864700C00240001BB7004059730757
:102940008000014BC0587047AC3C0220F0B5C64631
:1029500000B504000D00170098460C2001F068FA3D
:102960000600394BFA18394B9A4241D843011B1AD9
:102970009901C91AC90009188901380001F058FAEB
:102980000200103A98235B009A4237D84346013B35
:10299000062B39D8069B013B062B35D83F09B74299
:1029A00038D343461E04069B1A0316432368002BA4
:1029B00036DB274B9C4244D080225201254B1A60C3
:1029C000254B1A60254B9B6811009943FAD125606D
:1029D000A060231DC02292011A43212313602368A3
:1029E000002BFCDAE6600823136080BCB846F0BD1B
:1029F0001B4B1C4A11211C4800F060F81B4B194A64
:102A00001921194800F05AF8194B164A1C2116488A
:102A100000F054F8174B134A2321134800F04EF8E6
:102A200022683F231340AB42C3D1A3681B051B0D93
:102A30008342BED1E368EE22D2021340B342B8D142
:102A4000D3E780229201B9E780E84BD380F8A9321E
:102A500000C0024000E0004000F0004000C0004024
:102A6000108E0310348F0310708E0310B08E03107D
:102A7000CC8E0310188F031080239B000343014A60
:102A8000D362704700800540064BAA2212011A60EB
:102A90002F22DA60044B054A1A60024B5B68002B58
:102AA000FBDA7047004002400060024000B0FA00CC
:102AB00000BEFDE710B5FFF7FBFF000010B582B0C8
:102AC0000C001900002A0CD0084B002A0BD00192F0
:102AD000009323000200064802F0FEF90120FFF7F0
:102AE000E7FF044BF1E7034AF1E7C046408F0310CC
:102AF000508F03104C8F031070B52B4B2B4A1A606C
:102B00002B4B2C4A1A602C4B9A682A4B9343FAD1D0
:102B10002A4C01E008CC9847294B9C42FAD3FFF796
:102B20008FFE234B274A1A60234B9B68DB43DB0154
:102B3000FAD1254B40229A675A671A67DA66234C06
:102B400009E0234B234A86212348FFF7B7FF2000E3
:102B5000FEF7B6FC0834214B9C4209D22368002BB7
:102B6000F5D0012BEDD12000FEF7B7FC0834F2E7D9
:102B70001B4CA1681B4DC022280002F055F8A5602F
:102B8000EFF30583002B00D000BEFEF73FF9FEF700
:102B900081FCFFF705F8144C01E008CC9847134B73
:102BA0009C42FAD370BDC04600E00040BFCDFBFEA2
:102BB00000F00040FE7F3C0000C00040B80C002048
:102BC000C80C0020FFFFFF0100F00140B00C002006
:102BD000808F0310F88F0310A08F0310B80C002013
:102BE00000ED00E000000020C80C0020D00C002008
:102BF0000FB400B583B0084802F03EF9049B002BE7
:102C000007D005A90191180002F046F9034802F027
:102C100033F90120FFF74CFFE48F0310F48F03100A
:102C2000704710B5002802D00B684968984710BD5E
:102C30000100002007E083001B185B00501C0860A7
:102C40001078C01830380A681378303BDBB2092B93
:102C5000F1D97047F0B5DE4657464E464546E0B5D9
:102C600083B093461F000C9B9A460D9C0E9B994681
:102C70000F9B9B0703D0B8460F00060022E001928D
:102C8000A34688464E46B9460700B44207D2551CB3
:102C90004B4641462020B84701342A00F5E73D0065
:102CA0004F465C46019B9B46B1464646B8463700B8
:102CB0002E0007E0013C551C5346185D4346390081
:102CC000B0472A00002CF5D135003E0047460F9B47
:102CD0009B0707D4100003B0F0BCBB46B246A94620
:102CE000A046F0BDB0464E46B9462F005D46531B88
:102CF000B342EFD2541C4B4641462020B847220035
:102D0000F5E7F0B5CE46474680B585B0944698467F
:102D10000C9D0D9C0EAB1B789946109A119B129E30
:102D2000B7071CD4002B0CD0F7070AD54F46002F4D
:102D300002D10C37374204D0013B02E030272F5537
:102D40000134944201D21F2CF8D9F70707D59C42D1
:102D500005D21F2C03D830272F550134F5E7F7068D
:102D600015D5770505D4002C03D0944224D09C427D
:102D700022D00F9A102A2BD00F9A102A30D00F9AF7
:102D8000022A35D01F2C02D830222A5501341F2C9C
:102D900005D84A46002A31D02D222A5501340396FF
:102DA00002930194009543466246FFF753FF05B036
:102DB000C0BCB946B046F0BD621E012C06D00F9FC4
:102DC000102F01D01400D4E7023CD2E71400D0E762
:102DD000B206D1D41F2CCFD878222A550134D1E79E
:102DE000B206CCD51F2CCAD858222A550134C9E7BF
:102DF0001F2CC7D860322A550134C3E7720703D5A8
:102E00002B222A550134CAE73207C8D520222A5579
:102E10000134C4E7F0B5DE4657464E464546E0B5B8
:102E200093B081468A46089209931CAB10CB1B785D
:102E30009B461E9D219B9846002C03D110234246A1
:102E40009A4390468023DB0046461E4042461A4283
:102E500012D0002C22D000260EE03033D9B2771CDD
:102E60000AAB99552900200000F0E2FFAC4216D3CE
:102E70001F2F14D83E0004002900200000F0D8FFC6
:102E8000CBB2092BE9D94246920605D54121C91892
:102E9000C9B20A39C9B2E2E76121F8E7270043461F
:102EA0000693209B05931F9B049303955B46029317
:102EB00001970AAB0093099B089A51464846FFF7D1
:102EC00020FF13B0F0BCBB46B246A946A046F0BDF9
:102ED000F0B5DE4657464E464546E0B595B00890FB
:102EE00009910A920B931E9E1F9C20AB1B789B4658
:102EF000229B9946239D269B9A463300234303D168
:102F0000103352469A4392468023DB0057461F40B7
:102F100052461A4219D0330023432DD0002714E023
:102F20003033DAB27B1C98460CABDA554A462B009C
:102F30003000210000F0BAFFA5421FD819D0434647
:102F40001F2B1BD8474606000C004A462B003000BA
:102F5000210000F0ABFFD3B2092BE1D95246920613
:102F600005D54122D218D2B20A3AD2B2DAE76122AA
:102F7000F8E7B145E3D901E00023984653460693AC
:102F8000259B0593249B04934B4603935B46029336
:102F9000434601930CAB00930B9B0A9A099908983E
:102FA000FFF7AFFE15B0F0BCBB46B246A946A0463F
:102FB000F0BD0000F0B5DE4657464E464546E0B54A
:102FC00091B083468A460C9298461A9C08941B9DA1
:102FD000099522002B002000290001F0F2F90028B9
:102FE00000D0E5E001225242D74B2000290001F039
:102FF000E3F9002800D0DBE001225242D34B20004D
:10300000290001F0C3F9002800D0D1E000220023FC
:10301000089E3000099D290001F0B8F9002800D071
:10302000DDE008980999069007918023DB001E9A3D
:103030001A400D921E9A1A4201D106231C9306983B
:10304000079904000D000A000600024300D1D1E0F8
:10305000080D4005400DBE4CA44660440A03120B07
:10306000BC4B13431F0001F0BFF9BB4ABB4B01F03F
:103070004AF9BB4ABB4B01F01FF904000D000022C6
:10308000B94B3000390001F00EF9B84AB84B01F0E5
:103090003AF902000B002000290001F00DF901F0BF
:1030A000BBF9814601F0A0F904000D00B14AB24B12
:1030B00001F029F90022B14B01F0FEF801F0ACF962
:1030C0000600AF4AAF4B2000290001F01CF90400B4
:1030D0000D00300001F088F9AB4AAC4B01F013F958
:1030E00002000B002000290001F0DDF804000D00B3
:1030F00002000B0001F007F90A900B91A44BF318A2
:1031000000261F0522002B002000290001F0D4F822
:103110000E900F9122002B0000208021C90501F0A4
:10312000C2F804000D0000229A4B0A980B9901F096
:10313000CCF80022984B01F0BFF802000B000A986F
:103140000B9901F0C2F80022944B01F0B5F802008F
:103150000B000A980B9901F0B8F802000B00200050
:10316000290001F0A9F802000B000E980F9901F058
:10317000ACF80022774B01F09FF832003B0001F0E1
:10318000C2F806000F0004000D00069A079B01F02C
:1031900013F9002830D001235B429C46E144002211
:1031A0007D4B3000390001F090F804000D0023E061
:1031B0001E9B04931D9B03931C9B0293089A099BDF
:1031C0000092019343460C9A5146584600F0FCF891
:1031D00011B0F0BCBB46B246A946A046F0BD0023E4
:1031E000002406930794069680231B069C4665449C
:1031F00007951AE7002399464B466333C62B1ED822
:1032000004261E9B1B0526D52B0023430FD0644AA2
:10321000644B0698079901F0C7F8002879D000227E
:10322000614B0698079901F0B1F8002871D01C9BFA
:103230004B4506DD4A46981A431E1C9303E00526BB
:10324000DFE700231C938023DB001E9A1A431E92A3
:103250000026002399461D9B9E4264D29F1B022399
:103260001E9A1A400A921E9A134202D0002E00D0D3
:1032700000274B46002B07D022002B000698079909
:1032800001F023F80690079100220023089809997D
:1032900001F07CF8002848D1444B1E9A1340049357
:1032A00003971C9B0293069B079C00930194434643
:1032B0000C9A5146584600F087F8002E00D187E757
:1032C0001E9B9B063DD54525441C434602005146A6
:1032D0002800D8474B46DA179B1853400522059221
:1032E000013E0496002203920A3202924A46D00F0F
:1032F000019000934346220051465846FFF78AFD4D
:103300000A9B002B00D163E702005F460C9E1D9DC7
:1033100054E01C9B002B9ED00D9B002B9BD01C9B34
:10332000013B1C9397E7002799E7069C079D220025
:10333000290080200006844661440B000692079312
:10334000AAE76525C0E7C046FFFFEF7FFFFFEFFF5D
:1033500001FCFFFF0000F03FFB799F501344D33F77
:10336000B3C8608B288AC63F0000F83F61436F6393
:10337000A787D23F71A379094F930A400000E03F2D
:103380001655B5BBB16B0240EF39FAFE422EE63F4F
:10339000FF03000000002C40000024400000184003
:1033A0002D431CEBE2361A3F80842E41FFF7FFFFCE
:1033B000541C434651462020B8472200931BAB4281
:1033C000F6D3100004E7C046F0B5DE4657464E4639
:1033D0004546E0B595B00690079193469946209FE3
:1033E0001E9A1F9B1000190000F0EBFF002831D13E
:1033F00001225242BF4B1E981F9900F0C7FF0028C0
:1034000037D101225242BC4B1E981F9900F0D4FFC5
:1034100000283DD10022B94B1E981F9900F0CCFF27
:10342000002850D10022B64B1E981F9900F0AEFF25
:10343000002848D1002200231E981F9900F0A6FF03
:10344000002850D100239846229B5B0500D4B6E0AB
:10345000002458E0229B0393219B029303230193B2
:10346000A84B00934B465A4607990698FFF7F2FB84
:103470000EE1229B0393219B029304230193A24B11
:1034800000934B465A4607990698FFF7E3FBFFE087
:103490000423229A1A4022990B4210D09B4B002AF7
:1034A0000FD0042222990391219902910192009355
:1034B0004B465A4607990698FFF7CCFBE8E0944B39
:1034C000EDE70322EEE7229B0493219B03930297EF
:1034D0001E9B1F9C009301944B465A4607990698E1
:1034E000FFF768FDD4E01E9A1F9B0020002100F02A
:1034F000DAFE1E901F9101239846A5E70CAB3022FF
:103500001A55013F01341F2C01D8092FF6D81E98F7
:103510001F9900F081FF050000F066FF02000B001C
:103520001E981F9900F0BFFEFA007A4B9B181A688C
:103530005B680A920B9300F0E6FE0890099100F098
:103540008FFF060000F04CFF02000B00089809995D
:1035500000F0A9FE0890099100226F4B00F02CFFAB
:1035600000282ED00136300000F03AFF02000B0098
:103570000A980B9900F010FF002801D001350026B1
:10358000002F2CD1280000F02FFF02000B001E9806
:103590001F9900F088FE06000F0000225E4B00F02D
:1035A000F5FE002846D100225B4B3000390000F0C8
:1035B00003FF00283ED1EB073CD501353AE0062752
:1035C00046E70022544B0898099900F0DFFE0028D6
:1035D000D6D1002E01D0F307D2D50136D0E7AA46C6
:1035E0001F2C11D8013F0A21300000F021FC651C7E
:1035F00030310CAB19550A21300000F019FC092EAE
:103600000ED906002C00EBE755461F2C0CD87B1E6C
:10361000002F09D00CAA302111551F000134F4E706
:103620002B0055461C00F0E71F2C03D80CAB2E22B4
:103630001A5501341F2C10D80A21280000F0D0FBA5
:10364000661C30310CAB19550A21280000F0C8FB6C
:10365000051E01D03400EDE734000323229A134005
:10366000012B1CD01F2C06D84346002B32D00CABAC
:103670002D221A550134229B0393219B029301941E
:103680000CAB00934B465A4607990698FFF7E2FAAF
:1036900015B0F0BCBB46B246A946A046F0BD219B82
:1036A000002B13D04346002B02D10C3313420FD012
:1036B000219B013B2193190003E00CAB30221A55EA
:1036C00001348C42CED21F2CF7D9CBE72199F8E7F1
:1036D0002199F6E7229B5B0704D50CAB2B221A55E8
:1036E0000134C8E7229B1B07C5D50CAB20221A5515
:1036F0000134C0E7FFFFEFFFFFFFEF7F65CDCD4156
:1037000065CDCDC114900310189003100C900310D8
:1037100008900310009203100000E03FF0B5DE4671
:1037200057464E464546E0B593B082468B46904696
:103730001193002900D1EBE200275546119B187820
:10374000002800D1E7E2252809D07C1C43463A0036
:103750005946A847119B013311932700EEE7013327
:1037600011930024119A11780B00203BD8B2102835
:1037700003D88300D048C3589F460B00303BDBB2D0
:10378000092B2CD92A292FD000230A93119B1A78B0
:103790002E2A39D000239A46119A1378683BD9B261
:1037A000122976D88B00C549CB589F4601231C436C
:1037B00001321192D6E702231C4301321192D1E764
:1037C00004231C4301321192CCE708231C4301322D
:1037D0001192C7E710231C4301321192C2E711A8CE
:1037E000FFF726FA0A90D1E71C9B1A1D1C92186855
:1037F000002804DB0A90119B01331193C6E70223D2
:103800001C4343420A93F6E78022D20014435A1C19
:1038100011925A781300303BDBB2092B04D92A2AC3
:1038200007D000239A46B7E711A8FFF701FA8246AE
:10383000B2E71C9B1A1D1C921868002804DB824604
:10384000119B01331193A7E70020F8E780235B0069
:103850002343511C119152786C2A01D01C0018E0AE
:10386000C0239B001C430131119112E080232343AC
:10387000511C11915278682A01D01C0009E0C02324
:103880001C430131119104E080235B001C43013291
:103890001192119B18780300253BDAB2532A00D904
:1038A0002CE29300864AD3589F4680239B001C43FA
:1038B00001321192EDE780235B001C43013211922B
:1038C000E7E7782809D0582838D06F2838D0622800
:1038D00038D010239C430A2600E01026582833D005
:1038E000692803D0642801D00C229443630501D5D4
:1038F0000122944369282AD0642828D0A30500D542
:103900009FE0E30500D5B8E0630600D4CAE01C9A46
:10391000111D1C911168FF220A4005940A9B049313
:1039200053460393029600230193009243463A00C4
:1039300059462800FFF76EFA070027E01026CDE76A
:103940000826CBE70226C9E720221443C8E7A305CF
:1039500020D4E30550D4630666D51C9A111D1C9132
:103960001168FF220A40D317D118594005940A9BC9
:103970000493534603930296D20F0192009143465B
:103980003A0059462800FFF745FA0700119B01331A
:103990001193D3E61C9BDA1D07218A4311000831DD
:1039A0001C91116853689C46DB170C930D930C9A7D
:1039B0000D9B100048400E90624653400F930E98A6
:1039C0000F990C9A0D9B801A99410E900F910894B3
:1039D0000A9B079353460693049600230593634678
:1039E000DA0F02920090019143463A0059462800AE
:1039F000FFF76EFA0700C9E71C9A111D1C911268A7
:103A0000D317D118594005940A9B04935346039346
:103A10000296D20F0192009143463A00594628007F
:103A2000FFF7F8F90700B1E7230605D51C9A111D29
:103A30001C910023D25E96E71C9A111D1C911268FE
:103A400091E71C9BDA1D07218A43110008311C9164
:103A500008940A9B07935346069304960023059304
:103A60000293136854680093019443463A00594600
:103A70002800FFF72DFA070088E71C9A111D1C91FA
:103A800005940A9B049353460393029600230193E3
:103A90001368009343463A0059462800FFF7BAF9E5
:103AA000070073E723060DD51C9A111D1C9112689F
:103AB0001204120C31E7C0462090031064900310EA
:103AC000B09003101C9A111D1C91126825E746281E
:103AD0001AD01C9B0733072293431A0008321C920A
:103AE00004940A9A0392524602925C681B680093FF
:103AF000019443463A0059462800FFF765FC070049
:103B0000119B0133119319E620231C43E1E7672839
:103B100001D0472802D180231B011C43452801D036
:103B2000472801D120231C431C9B073307229343C2
:103B30001A0008321C9204940A9A03925246029286
:103B40005C681B680093019443463A00594628007C
:103B5000FFF730FA0700119B01331193EEE50223C2
:103B60001A002240924623421FD001241C9B1A1D9A
:103B70001C927A1C9146187843463A005946A84749
:103B80005346002B16D1119B013311934F46D5E5B7
:103B9000561C434659462020B847230032005C1C7F
:103BA0009D42F5D83D001700E0E701233A002F00C1
:103BB0000A9DF4E74A46A9460A9D06E0571C43467B
:103BC00059462020C84734003A00661CA542F5D863
:103BD0004D469146D7E71C9B1A1D1C921B689946BF
:103BE0005346002B00D1013B4E4601E00136130045
:103BF0003278002A02D05A1E002BF7D14B46F21A17
:103C000010928023DB0026001E401C4203D0524548
:103C100001D95346109302231A0022400B922342EB
:103C200005D03A0037004C46A946554620E03A00F8
:103C3000109B5F46B3462E0006E0551C43463900F4
:103C40002020B04723002A005C1C0A999942F4D82E
:103C500035005E46BB46109437004C46A946554693
:103C600006E01D000134561C43465946C847320041
:103C70002078002804D0002FF4D06B1E002DF0D146
:103C800017004D460B9B002B03D1119B0133119361
:103C900054E50A9F109B06E0561C434659462020D7
:103CA000A847230032005C1C9F42F5D81700ECE7C0
:103CB00021231C431C9B1A1D1C921B680093059416
:103CC0000823049353460393102302930023019384
:103CD00043463A0059462800FFF79CF80700119B1D
:103CE000013311932AE57C1C43463A0059462520AE
:103CF000A847119B0133119327001FE57C1C434605
:103D00003A005946A847119B01331193270015E546
:103D10000A4B9A4610E5AA46474502D343465A1E27
:103D200000E03A00434659460020D047380013B01F
:103D3000F0BCBB46B246A946A046F0BD212C0010FF
:103D400000B585B0029003910121009313004A420F
:103D500002A90248FFF7E2FC05B000BD232C0010C9
:103D600001480421014B1847B00B0020A93D001069
:103D7000014B5B6818470000B00B0020014B9B68AB
:103D800018470000B00B002010B5010018231B8855
:103D900014221088984710BD10B5010018231B8805
:103DA00016221088984710BDF0B5C64600B507002A
:103DB0000E0000250123984600E00135B5420AD2E5
:103DC000AC003C192068FFF7DFFF20600028F4D129
:103DD00000239846F1E7404680BCB846F0BD00009D
:103DE000124A936F9B0815D29066D166002905D0C0
:103DF000FFE7FFE7FFE7516F106F704704B58021C1
:103E00000906C2175140002800D0C84334F060FAB8
:103E1000002104BDF0B5146E556E576F166FFFF795
:103E2000E3FF1466556657671667F0BD000000D0C3
:103E3000114A936F9B0813D210665166002905D072
:103E4000FFE7FFE7FFE7516F106F704704B50028E9
:103E500001D00020C04334F03BFA002104BDC0462D
:103E6000F0B5146E556E576F166FFFF7E5FF1466C9
:103E7000556657671667F0BD000000D094464A4A61
:103E8000926F9208624601D228E0C046F0B5464ED5
:103E9000346E756E776F366F00F020F89446424AA4
:103EA00014665566576716676246F0BD94463E4AEB
:103EB000926F9208624601D254E0C046F0B53A4E85
:103EC000346E756E776F366F00F04CF89446364A54
:103ED00014665566576716676246F0BD002B24DBF3
:103EE00011D000293EDA00B5C943404200D101316A
:103EF00000F038F8C943404200D10131DB4352425F
:103F000000D1013300BD002AEBD1002801D10029E6
:103F100005D00020C90FC90701D1C043410800B531
:103F200034F0CEF90022002300BD00B500290ADBE1
:103F3000DB43524200D1013300F014F8C943404240
:103F400000D1013100BDC943404200D10131DB4302
:103F5000524200D1013300F005F8DB43524200D158
:103F6000013300BD002923D1002B18D1002A0CD029
:103F7000BC460D4F38667A6600210023FFE7FFE755
:103F8000FFE77A6F386F67467047002801D007480F
:103F9000010000B534F094F90022002300BD0200B6
:103FA0000B00002000217047000000D0FFFFFFFF42
:103FB000002B00D0BFE0130C28D1002AE7D080B43A
:103FC000114F39667A66FFE7FFE730B4040C7B6F68
:103FD000396F1B0423433B667A66FFE7FFE7FFE781
:103FE000C04684B27B6F3D6F1B0423433B667A66F9
:103FF000FFE7FFE7C04600232C042D0C7A6F386FD3
:1040000000196941B0BC7047000000D0F0B594467B
:104010000025140E01D112020835140F01D112012E
:104020000435940F01D192000235D40F01D1520012
:104030000135D40B0134254F7C66254C3C660E0CB3
:1040400093B2FFE7FFE7FFE73C6F6643360C770369
:10405000BE467343DF0B5B04C01AB941130C7343B4
:10406000DB18C91ACE086643360CB64493B27343C4
:104070001F0F1B01C01AB941130C73431F0B1B0503
:10408000C01AB941860D8F023E436643360C092D96
:1040900024DB520A7243801A7703460A6643360CC1
:1040A00016235B1BDE40DF40BF1964466643821B5C
:1040B0007046043506330100D940A840C01900D32A
:1040C0000131A24206D20023F0BD0000000000D062
:1040D000FFFFFFFF121B0130F3D3F1E709277F1B1E
:1040E000FE406446A2B27243801A00D20139220C0B
:1040F0007243130C1204821A99410B007046043566
:1041000013370100F940A840801900D30131002B7A
:1041100002D1A2420AD2F0BD013000D30131121BFC
:10412000FAD2013BF8D1A24200D2F0BD013000D357
:104130000131121BF7E7F0B51C0C00D080E00CB485
:1041400000251C0A04D11B02160E33431202083547
:104150001C0B04D11B01160F3343120104359C0BB9
:1041600004D19B00960F334392000235DC0B02D141
:1041700092185B4101351C00971864410134464F89
:104180007C66464C3C660E0CFFE7FFE7FFE7C04647
:104190003C6F6643360C7703BE4697B27743C01B2D
:1041A00000D20139C01B00D201399FB27743C91B2D
:1041B000C91B170C77437E04FF0B801BB941CE0847
:1041C0006643360C0C2D33DBB644120B1F053A4305
:1041D0001B0B97B27743C01B00D201399FB27743C4
:1041E000C91B170C77433E043F0C801BB941860D59
:1041F0008F023E43664329277F1BFE400C3D7746D6
:10420000AF40BF1930BCA2B2ABB272437343801A45
:104210009941220C7243130C1204801A9941020036
:104220000B000137001BA941F9D2781E0021F0BD17
:104230000C277F1BFE4077467F0BAF40FF19E0E75E
:1042400000245D1C07D0144F7D663966FFE7FFE749
:10425000FFE7FFE73C6F95B29EB265436643401BA4
:10426000B141150C1E0C6543664336042F0C3E43CA
:104270002D04401BB141994204D202000B002000E2
:104280000021F0BD01D19042F7D3801A9941013449
:104290009942F2D3F6E70000000000D0FFFFFFFFD5
:1042A00048404140484018B41B4B5B68FC460193B2
:1042B00008BD04DF7B45001018B4174B1B68FC4693
:1042C000019308BD00DF854500109446134A926FA4
:1042D000920809D2624618B40F4BDB68FC46019382
:1042E00008BD0CDF3D4800100C4AF0B5146E556E49
:1042F000576F166F6246FFF7EEFF084A1466556661
:1043000057671667F0BD18B4034B9B68FC460193D2
:1043100008BD08DFE146001034410220000000D053
:10432000FFB550404240504059404B40594000E09A
:10433000FFB5154F4C00640D03D0BC4204D10C03F3
:1043400014D80020090D09055C00640D03D0BC429F
:1043500004D11C030AD800221B0D1B0501264B406B
:1043600009D44B4003D58B4200D18242FFBD994214
:10437000FCD19042FFBD0B43DB1803431343F5D040
:10438000C9434918FFBD0000FF07000000B5FFF753
:10439000CFFF804100BDC04600B5FFF7C9FF01D97E
:1043A000002000BD012000BD00B5FFF7B9FF01D915
:1043B000002000BD012000BD00B5FFF7B1FF804126
:1043C00000BD012040054A00121804D85A001218F6
:1043D00001D800207047012070470020704700007E
:1043E0000021002805D17047C1174840401AFAD073
:1043F000C90713B5064B1B6898470CBC441CA24068
:104400001005120B0349091B09051943114310BD7F
:10441000344202201F04000010B54C00620D8023BE
:10442000D218DB00D21A5B057E2A10DD9E3A13DA21
:10443000CC170903490819435242D14064000134A2
:104440001532202A05DAD0400843604310BD002011
:1044500010BD0846604310BDC80FC018013810BD1C
:1044600018B4044B5B6AFC46019308BD24DFED4998
:10447000001000003441022070B513231C78012C79
:1044800014D0012C14DC022C02DC1F4A1F4B9A644E
:104490001F48FFF779FC1F4B186070BD99001A4840
:1044A0001A4A885001331F2BF8D9EAE70023FAE7AC
:1044B0001948FFF771FC05001848FFF76DFC02383A
:1044C00003789B007F2B19DD802229000F4800F024
:1044D000ABFB022CD7D1124B1A88B5231B029A4290
:1044E00009D1104B1A88104B9A4204D10F4B1A88ED
:1044F0000F4B9A42C7D00020FEF77AFB0D4B0E4AB5
:1045000032210E48FEF7DAFA41450010344102200C
:104510004C33000034420220534400005346000054
:1045200054380000D8380000494600009C3800008C
:104530005946000050920310F8920310B0920310F5
:1045400007B56046002800D100BE01880A0A023083
:10455000DF2AFAD1C9B2820804D302884088000455
:10456000104300E00068024A5050039007BD00006D
:10457000344102200FB403BC0CBCF0B50124E407A5
:10458000634000E0F0B50C0DCF0F661E3605891BA9
:10459000640503D3C943404200D30131640D03D005
:1045A000661CF60A07D0E41B00207F00791C8907EF
:1045B0008912803C24031D0DDF0F6E1E36059B1BE8
:1045C0006D0503D3DB43524200D301336D0D03D09D
:1045D0006E1CF60A07D0ED1B00227F007B1C9B0798
:1045E0009B12803D2D032F1B661B58D4A446202E02
:1045F00046DA20371400BC401D00BD40F240334174
:104600002A4380185941CB0F05D0C943C04300222B
:1046100064425041514162464D0D28D10D0D07D1E4
:1046200000281FD0241940414941013A0D0DF9D00D
:10463000640006D3013000D30131002C01D14008C1
:104640004000013A0BD4941CE40A04D11205114431
:10465000DB071944F0BDD907204B194300E0D90707
:104660000020F0BD0029DDD1002CDBD1F0BD0132EE
:10467000C6074008CD0728434908002EE1D0D9E7F6
:104680003C2E29DA203E40371400BC4000D00124E3
:10469000F24014431A00BB401C43D317ACE7AC46AE
:1046A000202F08DA20360400B4400D00B540F84051
:1046B00039412843A5E73C2F0CDA203F403604005F
:1046C000B44000D00124F84004430800B1400C433A
:1046D000C117EAE710001900002494E70000F07FFA
:1046E000F0B50C0D661E3605891BE60A6405640DDF
:1046F00002D0651CED0A04D0002001210905803C90
:104700002403A4461C0D671E3F05DB1BE70A640556
:10471000640D02D0651CED0A04D0002201231B05A4
:10472000803C24037740644497B484B296B27443C7
:10473000070C7E43150C6F4380B26843361802D3D2
:10474000012000043F183004350C00197D418446D7
:1047500088B29AB250430C0C62431F0C7C438EB259
:104760007E43921902D301263604A4191604170CAD
:104770003618674101BC81B29AB25143040C6243BE
:104780001B0C5C4380B25843121802D30120000472
:1047900024181004130C401863412D185E410020AA
:1047A000474106BC88B293B258430C0C6343120CC9
:1047B000544389B251435B1802D3012109046418A0
:1047C00019041A0C091862416D185641002047411E
:1047D00018BCF902720D1143F0026A0D1043ED028C
:1047E0000A0D03D16D1940414941013B124E9B1BFB
:1047F0007600B3420ED26D0007D30130002671411E
:104800006646354301D1400840001B05C918E4073E
:104810002144F0BD0BDA013306D1013004D101315E
:104820004F0D01D04908F2E7E1070020F0BD013645
:1048300031050020EBE70000FF030000F0B51C0D80
:10484000671E3F05DB1BE70A6405640D02D0661C8A
:10485000F60A04D0002201231B05803C2403D02546
:104860002D060026F6432E661E096E66CE0FF6193B
:10487000B44649004F0D02D07E1CF60A03D000203A
:104880000021403F3F033E1BB600B444013F7F057B
:10489000C91B49082E6F013676089C02950D2543E9
:1048A0007543ED137543AD1301356D10F603761B9B
:1048B0000CB4CC02450D2C43A2B2B3B25A43270C20
:1048C0007B43350C6F43A4B26C431B1902D3012404
:1048D00024043F191C041D0CA4187D4124196D41AA
:1048E000009A91B2ACB26143170C7C432B0C5F432E
:1048F00092B25A43A41802D301221204BF18220410
:10490000230C52187B41019C6C431B19520ED90198
:104910000A434401A01A81B2B2B2514303145A436C
:10492000360C734387B27743D617D21900277E41DE
:1049300036049B191704160C7F185E417316ED1888
:10494000F301002680337541A90F06D16400690A7E
:10495000E8055B0A184309D22FE00422944480330F
:104960007541A90AA8059B0A184326D3404149412D
:104970002404009A019B0D005543641B4343E41A31
:1049800095B286B27543170C7E43030C5F4392B217
:104990005A43B61802D301221204BF183204330C52
:1049A00052197B4152429C41002C02D4002201301A
:1049B00051414008CA071043490802B06246D70770
:1049C0009210084BD218084B9A4203D2120589184C
:1049D000C919F0BD0020002A01DC3900F0BD013307
:1049E0001905F5E7FD030000FE070000002200B5F1
:1049F000203200F004F8080000BD000000220B1572
:104A00000AD410B5944600F031F81414013400DAD9
:104A10000021CB17144C204700200021704762442E
:104A2000343A0CD40C2A07DA0400914090405242E8
:104A30002032D440214310BDD843D94310BD203289
:104A400007D40C469440524220321141D0402043BA
:104A500010BD0800C917203203D452422032104141
:104A600010BD1800190010BD1F4A00100A0DCC0F10
:104A7000531E1B05C91A520503D3C943404200D334
:104A80000131520D03D0531CDB0A07D0121B00204A
:104A90006400611C89078912803A1203014BD21A03
:104AA00070470000FF03000051434343C9188C4680
:104AB000110C83B24B4310B4040C614392B280B228
:104AC000504362431C041B0C001910BC59411304D1
:104AD000120CC018514161447047000070B5132397
:104AE0001D782A48FFF758F90400012D11D0012D37
:104AF00009DDA31E1B789B007F2B40DD8022210057
:104B0000234800F091F82348FFF73EF9224B186044
:104B100070BD542201001E4800F086F81F4B1A8811
:104B20001F4B9A421CD1A7239B011A881D4B9A4206
:104B300016D11D4B1A881D4B9A4211D11C4B1A8855
:104B400094239B019A420BD11A4B1A881A4B9A4212
:104B500006D11A4B1A681A4B9A4201D1152307E065
:104B60001848FEF745F899001748094A885001335C
:104B70001F2BF8D9144A064B1A62DA61B7E7134BB8
:104B8000134A42211348FDF799FFC04653460000DF
:104B9000384202204C33000034420220EE2900004B
:104BA000C40F0000C20D0000962B0000C0B500002D
:104BB000182B0000CC2A000010B50000FC2C0000CF
:104BC00051ED87644C8F0310D94B00100C930310E8
:104BD000889303104093031007B56046002800D166
:104BE00000BE01880A0A0230DF2AFAD1C9B282085F
:104BF00004D3028840880004104300E00068024AA1
:104C00005050039007BD00003842022001480421A3
:104C1000014B1847C00B0020A93D0010014B1B6839
:104C200018470000C00B0020014B5B6818470000CC
:104C3000C00B002010B50300080011001B68984746
:104C400010BD0000F8B507000D001600437D002BD5
:104C500002D0002400200CE00368110028009847CF
:104C60002DE03B7D10E0022115483B689847601C11
:104C70000134B44214DA002CF3DD2B19013B1B780C
:104C80000D3B5A425341DBB22A5D0A2AF0D1002B78
:104C9000EED1A042E7DA211A28183B689847E2E7EC
:104CA000B04203DA311A28183B689847002E06DD17
:104CB000AD19013D2B780D3B5A4253413B75F8BD70
:104CC0001894031070B505000368002B16D00C4B28
:104CD0001C6805E0290004C92000FFF7B3FF246920
:104CE000002C09D02368002BF9D0064B1B68002B41
:104CF000F0D0A342F3D1EDE700232B6070BDC04696
:104D0000143D02201C3D022070B505000C000B680C
:104D1000802B05D021684B1C23606418257170BD61
:104D20000800FFF7CFFFF5E710B5FDF745F90200E2
:104D30000B1E0BDB0D48002112184B41002B0BDB27
:104D4000002B0DDB0A4833F0E3FA10BD094B0A4A89
:104D50003F210A48FDF7B2FE01225242084BEFE71D
:104D6000044B054A3F210548FDF7A8FE40420F00CD
:104D7000B00C0020DC840310009403103085031075
:104D8000FFFFFF7F10B5024833F092FA10BDC04616
:104D9000B00C0020F0B5CE46474680B583B0060083
:104DA0000D0090461C00FFF7BFFF81466B1C05D02D
:104DB000002C08D0194F1A4B1C6807E0300033F064
:104DC00045FA0500F4E7174FF5E72469002C17D0E2
:104DD0002368002BF9D0144B1B68002B01D0A34291
:104DE000F3D12A0031002000B8474346002BECD015
:104DF0006B46D91D0A230B7001222000B847E4E757
:104E00004B46002B07D16B1E9D41E8B203B0C0BCDE
:104E1000B946B046F0BDFFF7B5FFF4E7354C0010DA
:104E2000143D0220454C00101C3D0220094A01E0BF
:104E300010331A001368002B08D08342F8D10029E0
:104E400007D1036913600023036102E0002900D049
:104E500010607047143D022010B5064B1C6801E03D
:104E600098472469002C03D06368002BF8D1F8E739
:104E700010BDC046143D022070B5050033F0E6F9C0
:104E800004000023012201002800FFF783FFFFF741
:104E9000E3FF200070BD000070B5A2B004000E005A
:104EA000FFF742FF0500002301933300220001A910
:104EB0000848FEF745FF040001A8FFF703FFFFF7CE
:104EC000CBFF002D02D1200022B070BDFFF75AFFAA
:104ED000F9E7C046094D00100FB400B583B004A92E
:104EE00001C90191FFF7D8FF03B008BC04B018470F
:104EF000F0B583B005000E0000240FE06B46D91D0D
:104F00000D230B700020002816D193699B06FCD45A
:104F10000B78136001300131F5E70134B44219DA3E
:104F20000D4B1A682F5D0D4BD31859424B415B0056
:104F30000B495B5EBB42E1D06B46D91D0F70002070
:104F40000028EAD193699B06FCD40B7813600130EA
:104F50000131F5E703B0F0BD544302200080FCBFEF
:104F60004C430220F0B583B006000F00002504E09A
:104F70006B4607331B782B702500BD4215DA174BA3
:104F80001A6893691024210019401C420DD16C1C31
:104F900075196B46D81D0029EAD19369DB06FCD44C
:104FA0001368037001310130F5E70D4B1B68002BCE
:104FB0000CD00A4B1A685023936311003431536BA1
:104FC00038221A4080235B010B431A60002D02D067
:104FD000280003B0F0BD033DFAE7C0465443022069
:104FE000A03C022010B5064B1B68002B06D0054ADA
:104FF000126800219163044A1068984710BDC046AA
:10500000A03C022054430220A43C022070B50400BE
:105010000E001C4B1B681C4A981842425041143029
:105020000500002C03D0194A1268002A06D0002C73
:1050300019D0164B1C60164B1E6070BD1549FBF74E
:1050400097FF01212800FBF783FF0E4B1A685023BE
:10505000936311003431536B38221A4080235B0173
:105060000B431A60E5E7094A1268002AE1D00022E2
:105070009A6300212800FBF76BFF06492800FCF724
:10508000BBF8D6E7544302200080FCBFA03C0220BE
:10509000A43C0220E54F001070B50D001C000D4B24
:1050A0001860002A0BDA002C0EDA0A4B1868290067
:1050B000FDF704FB01210848FFF7B8FE70BD02218F
:1050C0001000FBF71DFEEEE702212000FBF718FEA3
:1050D000EBE7C04654430220D00B002002007F20A3
:1050E0001040D209400080184001014BC0187047A1
:1050F000203D022010B5038B3F333F22934302290A
:1051000015D0124C2268C260D31823609C0610D1BF
:105110000F4C6240634080246401A3420FD889068B
:10512000114380231B0619434368196010BD5B00BF
:10513000E7E7084B084A54210848FDF7BFFC084B35
:10514000054A56210548FDF7B9FCC046204102201A
:10515000000010501C940310349503104C9403105D
:10516000A0940310F8B505000E001400FFF7B6FF79
:105170007F232B40EF0985707A427A4142700022EA
:10518000C2700683C476012F0DD0DA0012498C4616
:1051900062448260826800211160002B09D1436063
:1051A0000E4BC360F8BDDA000D498C466244826044
:1051B000F0E7012F09D0013BDB000A4A9446634423
:1051C00043602100FFF796FFECE7013BDB00064A56
:1051D000944663444360F4E784001050000110508B
:1051E000800010500C0010500800105070B50C00DA
:1051F0001500FFF773FF2A00210000F00DF970BDC4
:1052000010B5002804D101210520FBF7A1FE10BD37
:10521000D521034B034A49000348FDF74FFCC04624
:10522000E8940310249503104C94031010B5002843
:1052300005D1002200218020FFF7D8FF10BDDB211F
:10524000024B034A49000348FDF738FCE894031079
:10525000149503104C940310024B80225202DA641E
:105260007047C0460020115070B5041E26D100F0D2
:10527000ADF8164D0C23AB67FF2215490520FBF74F
:10528000A1FE402200211348FFF7C8FC0022402164
:105290000020FFF767FF002240218020FFF762FF18
:1052A00033F04EF801232B6480239B05EB6490239D
:1052B000094AEA502000FFF7CFFF70BD8621074B57
:1052C000074AFF310748FDF7F9FBC04600001150BF
:1052D00061030020203D022010D00100E89403105B
:1052E000489503104C9403100B785B0602D14B7861
:1052F000052B00D070478A78014B1A60FAE7C04648
:105300000000115010B50C0000280DD10979637907
:105310001B020B435B05590DE2789207920FA078B0
:10532000FFF720FF012010BDFC21034B034AFF3192
:105330000348FDF7C3FBC046E8940310049503102F
:105340004C94031010B532F0FBFF10BD10B50400F3
:10535000080011001A00002C03D1FFF747FF0120BD
:1053600010BD034B034A04490448FDF7A7FBC046A0
:10537000E8940310F49403100A0200004C94031004
:1053800010B508004B0605D1CB09012B0AD002222B
:10539000054B9A66FFF7A2FE80221201002132F02F
:1053A000D7FF10BD0122F3E70020115010B508000F
:1053B0004B0600D110BDFFF791FE0023C370002201
:1053C000014932F0C5FFF5E7FFF7FFFF10B5802375
:1053D0005B040C4A13600C4A13600C4B9A688023E0
:1053E0005B049343F9D10A4C9C2200212000FFF773
:1053F00015FC8022520100210648FFF70FFC09230B
:10540000636710BD00E0004000F0004000C00040B5
:10541000000011500000105070B504000D0016007F
:10542000837E002B17D1A6820023E3820133A3766B
:105430002561200032F094FF002804D0094A90230F
:1054400080218902D150200032F052FF002805D07F
:105450000123237770BD32F06BFFE4E7200032F0C8
:105460005FFFF7E70020115070B5050000240CE045
:1054700063001B19DA00184B1B689B18002B2AD0FD
:105480005B68280098470134E4B2144B1B78A342B0
:1054900010D3134A002A0BD0A342E9D8E31ADBB297
:1054A000002B18D15A00D218D2000E4B9B18E5E7FA
:1054B0002300F5E70C4C532200212000FFF7AEFB40
:1054C000E01C1022FF21FFF7A9FB2000133020224F
:1054D000FF21FFF7A3FB70BDA83A022087430220FB
:1054E00000000000D8960310743B022010B5FFF7AF
:1054F000BBFF00F0C5FD10BD70B505000C00160027
:10550000C86800F0C7FDE368320001212800984711
:1055100070BD0000F0B5D6464F4680B583B006009A
:105520000139C8B2FAF790FF002800D182E0437831
:10553000022B00D080E0C5796A11013B464C1A402D
:10554000110122781027BA430A432270AD112B4073
:105550005B01D2B220218A4313432370070009372D
:105560008278C478240214430419A7425BD27B7862
:105570000B2B09D001239A467B78042B62D1E31BC5
:105580009BB2994600251FE0FB789A463B78FF18AE
:10559000F2E76B005B19DA00304B1B689B1825E0C3
:1055A0002B001CE02C482B00019A3900133001F02D
:1055B000D1F8019B9C466744294B1B78AB42D4D25F
:1055C00000203AE00135EDB2254B1B78AB42F3D316
:1055D000244A002AE4D0AB42DBD8EB1ADBB2002B22
:1055E00032D15A00D218D2001F4B9B18002B2DD05D
:1055F0009B684A4639003000984701900828E1D955
:105600008145DFD300229245CCD9BB789B18DBB211
:105610001149C918C978FF291AD10F49CB18DD7073
:105620000132D2B2EFE7114B002B13D0FAF7D2FEC2
:10563000012002E0002000E0002003B0C0BCBA4618
:10564000B146F0BD0020F8E70020F6E70020F4E7BF
:105650000020F2E70120F0E7743B0220A83A022084
:105660008743022000000000D8960310D5030010E5
:1056700070B505000C00CB7888780F2B50D89A00B5
:105680002E498A589746FAF7D7FE020012232100C6
:10569000280000F0BBFC44E0294B002B42D000E086
:1056A00000BF021E40D08178C3781B020B4321004B
:1056B000280000F0ABFC34E0022B09D0214B002B7A
:1056C00034D000E000BF0200002A05D1002028E00D
:1056D000FAF7BAFE0200F7E79178D3781B020B4382
:1056E0002100280000F092FC1BE023796179090277
:1056F0001943FAF7ADFE021E1AD0037821002800E4
:1057000000F084FC0DE0104B002B13D000E000BF34
:10571000021E11D003782100280000F077FC00E081
:10572000002070BD0020FCE70020FAE70020F8E729
:105730000020F6E70020F4E70020F2E74C96031083
:10574000000000000000000000000000024B58783C
:10575000431E9841C0B27047743B0220024B187838
:105760004007C00F7047C046743B0220034B1878B7
:10577000FF38431E9841C0B27047C0460C0C002051
:1057800070B50400FFF7F2FF061E01D0300070BDB7
:10579000532200212348FFF741FA234D2800FBF74D
:1057A0008FFE224B1D60224D28001430FBF7AEFE09
:1057B000280001F081F81F4B1D601F4B002B04D007
:1057C0001E4800E000BF1E4B186000250BE06B0078
:1057D0005B19DA001A4B1B689B18002BD6D01B688C
:1057E00098470135EDB2154B1B78AB4210D3124AE6
:1057F000002A0BD0AB42EAD8EB1ADBB2002BC5D1A2
:105800005A00D218D2000F4B9B18E6E72B00F5E7A1
:105810000D4B1C702000FFF727FD2000FFF7F0FC68
:105820000126B3E7743B02202C3B0220C83B022038
:10583000F00B0020CC3B0220000000008743022038
:10584000A83A0220D89603100C0C002070B50C006A
:10585000094B1D788B7870221A4201D0002070BD50
:10586000064B9978200000F039FF0028F7D021007E
:105870002800FFF747FDF2E70C0C0020743B0220E4
:10588000F8B5CE46474680B581460C0017001E008D
:10589000089B9846002504E0099A13702378E418C1
:1058A0000135AF4214DD6378052B16D1E178890705
:1058B000890FB14213D121004846FFF7C7FF0028E6
:1058C00007D0A378DA09012AE6D042461370E5E74B
:1058D0000120C0BCB946B046F8BD0020F9E7002061
:1058E000F7E7000010B57F200840C90940004018C4
:1058F0003030044908180330034B196800F0C6FE25
:1059000010BDC046743B0220C83B0220F8B5CE460D
:10591000474680B5194800787F250D40CE096F00B5
:10592000174CE419A4193034E478E40704D50020B6
:10593000C0BCB946B046F8BD114CE419A4193027D3
:10594000B946A1444C46E4780127BC4667463C432F
:1059500027004C46E770FFF7F9FC0028E8D16D00FE
:10596000074B5D19AE193036F37801229343F3707B
:10597000F37803329343F370DAE7C0460C0C00204F
:10598000743B02207F220A40CB0952000349891848
:10599000C9183031C878C007C00F7047743B022067
:1059A00070B50F4B18787F240C40CD0962000D4B69
:1059B0009B185B193033DB789B0700D570BDFFF770
:1059C000DFFC6300074CE41864193034E3780222EA
:1059D0001343E370E37801221343E370EEE7C0461C
:1059E0000C0C0020743B022070B50F4B18787F24FC
:1059F0000C40CD0962000D4B9B185B193033DB78EE
:105A00009B0700D470BDFFF7D1FC6300074CE4187E
:105A100064193034E37802229343E370E378013A67
:105A20009343E370EEE7C0460C0C0020743B022069
:105A30007F220A40CB09520003498918C918303126
:105A4000C8788007C00F7047743B0220F0B5C64687
:105A500000B582B005000C00002000F01BFB23788D
:105A600060221340602B00D185E1402B0FD02278BB
:105A7000D206D20E012A00D1C9E0022A00D10FE1DC
:105A8000002A11D0002002B080BCB846F0BDC74B40
:105A9000002B00D171E1180000F0FCFA2200012176
:105AA000280000E000BFEEE7202B0AD0002B00D03A
:105AB0006BE16378092B00D969E19B00BC4AD3589C
:105AC0009F4623790F2B00D959E1BA4AD318DB78C6
:105AD000B94A002A05D0B94A1278934211D39B1AC9
