:020000041000EA
:1000000000B5324B212058609868022188439860DF
:10001000D860186158612E4B002199600221596106
:100020000121F02299502B49196001219960352056
:1000300000F044F80222904214D00621196600F024
:1000400034F8196E01211966002018661A6600F04E
:100050002CF8196E196E196E052000F02FF8012189
:100060000842F9D1002199601B49196000215960AB
:100070001A491B48016001219960EB211966A021F2
:10008000196600F012F800219960164914480160C1
:100090000121996001BC002800D000471248134993
:1000A000086003C880F30888084703B5996A0420EC
:1000B0000142FBD001200142F8D103BD02B5186610
:1000C0001866FFF7F2FF186E186E02BD00000240BE
:1000D000000000180000070000035F00212200005C
:1000E000F4000018222000A00001001008ED00E03C
:1000F00000000000000000000000000074B24E7A12
:1001000000200420F7010010C3010010C5010010F9
:10011000C1010010C1010010C1010010C101001097
:10012000C1010010C1010010C1010010C701001081
:10013000C1010010C1010010C9010010CB01001065
:10014000CD010010CD010010CD010010CD01001037
:10015000CD010010CD010010CD010010CD01001027
:10016000CD010010CD010010CD010010CD01001017
:10017000CD010010CD010010CD010010CD01001007
:10018000CD010010CD010010CD010010CD010010F7
:10019000CD010010CD010010CD010010CD010010E7
:1001A000CD010010CD010010CD010010CD010010D7
:1001B000CD010010CD010010CD010010CD010010C7
:1001C00000BE00BE00BE00BE00BE00BEEFF3058054
:1001D000103800BEF2EB8871B4D50310D8D50310E7
:1001E0003402001090A31AE700201F49086006C8D7
:1001F00081F3088810471D48006800282FD10DA4FE
:100200000ECC002902D000F012F8F9E71849194A7B
:10021000002000E001C19142FCD1174988471749ED
:1002200088471749884700BEFDE701C901C29A42C5
:10023000FBD37047D8D50310C0000020BC0C0020B1
:10024000D4E103100000042000000420D4E10310D6
:10025000001004200010042000000000704709482E
:1002600003F038FB0047000008ED00E0000000D07C
:10027000C00C0020347B0120452600101104001022
:10028000012600105756000006005250ABB36053D1
:100290003C84031006005250861C03024C84031059
:1002A000060052505422A29D58840310050052505B
:1002B000DE65F468D4E10310F8B5C0460448054B88
:1002C00010B5834203D0044B002B00D0984710BDDB
:1002D000BC0C0020BC0C00200000000006480749B0
:1002E000091A8B10C90FC91810B5491003D0044B57
:1002F000002B00D0984710BDBC0C0020BC0C002087
:100300000000000010B5074C2378002B09D1FFF73F
:10031000D5FF054B002B02D0044800E000BF0123AD
:10032000237010BDC00D00200000000030740310C9
:10033000054B10B5002B03D00449054800E000BF71
:10034000FFF7CCFF10BDC04600000000C40D002028
:100350003074031010B513F047FE05F0F1FB10BD2B
:1003600010B501F0F3FB002906DB0BD0FA22920056
:10037000002303F041FB10BD054B064A3F21064810
:1003800002F042F9FA21890003F0F8FAF3E7C046D7
:10039000307403104C7403108474031010B5164BA2
:1003A0001B68002B00D110BD01F0D0FB002918DB29
:1003B0001DD0FA229200002303F01EFB0F4B1B6896
:1003C000C01A0D4A12689042EDD39B180B4A136075
:1003D0000B4C207805F0B6FA2378012253402370A5
:1003E000E1E7084B084A3F21084802F00DF9FA21DD
:1003F000890003F0C3FAE1E7240B002018D20020A3
:100400002A7B0120307403104C7403108474031091
:1004100070B584B005F07EFA05F0A0F900F016F989
:1004200000F040F908F098FD00F056F9FFF792FF50
:100430000022FC21C9000DF0A6FEFFF78BFF18F08B
:100440005AF90400154B1A78303201A9144B0800F0
:1004500060CB60C01B8803800A72200018F050FE39
:10046000FFF778FF0022012149420DF0B2FF00237F
:1004700000220121200009F04CFFFFF771FF0090DE
:10048000FFF78CFF054B01221A6001A931230B7283
:10049000200018F035FE16F017FEF1E7200B0020C3
:1004A000CC74031010B502A80088022A00D010BD39
:1004B0000129FCD10028FAD01B789B0706D5074BF1
:1004C00000221A60012005F03DFAF0E7002005F057
:1004D00039FA024B05221A60E9E7C046240B0020D6
:1004E00010B582B00C00002004F0C2FE002808D035
:1004F000002C08D10F4B1B78002B14D10D4B002280
:100500001A7002B010BD002300936A469380043332
:1005100013706B4600220121002004F013FF054BED
:1005200001221A70EDE7002300220121002004F0CF
:1005300009FFE3E72B7B012010B50C780134E4B20E
:10054000042C00D910BD05F00BFA01002000FFF7C4
:10055000C7FFF7E70020704700B583B06B46D91D91
:100560000870D0231B0640229A613F3A024836F0B9
:1005700027FF03B000BDC04600C0034000B583B0F4
:100580006B46D91D0870D0231B0640225A613F3AA2
:10059000024836F015FF03B000BDC04600C003405E
:1005A000F8B507000D0016001C002A20FFF7D4FF45
:1005B0000020FFF7E3FF3800FFF7E0FF0020FFF720
:1005C000DDFF3000FFF7DAFF2B20FFF7C5FF00202B
:1005D000FFF7D4FF2800FFF7D1FF0020FFF7CEFF81
:1005E0002000FFF7CBFF2C20FFF7B6FFF8BDF8B5D2
:1005F000CE46474680B581460F0016008B790A79B2
:1006000089783878FFF7CCFF0222BB5E98460FE06E
:100610003488200AFFF7B2FFE0B2FFF7AFFF0236DF
:1006200001350422BB5EAB42F2DA01239C46E04472
:100630000622BB5E434502DB0023FD5EF1E7484630
:1006400013F061FEC0BCB946B046F8BD70B51349A1
:10065000134805F0D5F90121122000F067F80121B7
:10066000132000F063F8052000F078F8D024240669
:1006700020236362112000F071F88025AD026562CD
:10068000062000F06BF840236362A561642001F04E
:10069000A9F96561642001F0A5F970BD20A10700EA
:1006A00000C0034010B50120FFF756FF962001F06F
:1006B00099F91120FFF750FF962001F093F92920B6
:1006C000FFF74AFF962001F08DF93A20FFF744FF2B
:1006D0000520FFF753FF10BD70B5A0230C4DDB01C3
:1006E00000220C49280013F0C7FB0B4C200013F02C
:1006F00097FB0A4B63618023238020336380E5608E
:10070000200013F0C6FB064B186013F067FC70BDA9
:10071000207201201CD200203C720120EF05001045
:100720001C72012000487047D874031010B5830074
:10073000084A944663441C6840226240C024144026
:100740008022520113431C60C000034B9C4660444E
:10075000416010BD04C001400040014010B50123BC
:100760008340D0221206936293610521FFF7DEFFDA
:1007700010BD0000034B1B6802201840431E984127
:10078000C0B2704700C00640EFF3108072B6034B52
:100790001B68002BFBD0BFF35F8F70472C0100D08C
:1007A000BFF35F8F024B00221A6080F310887047FE
:1007B0002C0100D0F8B506000C001500FFF7E4FF8F
:1007C000E308F718F15C07222240012393400B4213
:1007D00005D1DBB20B433B70FFF7E2FFF8BD210010
:1007E000280001F0ABFFF0B583B0060001911400C2
:1007F0001F00FFF7C9FF00E00134BC420CD8E3083A
:10080000F518F35C0721214001228A401A42F3D1F6
:10081000D2B21A432A7001E001246442FFF7C0FFFC
:10082000002C02DB200003B0F0BD019B002BF9D0AF
:10083000089801F083FF0000002307E0054A9A189A
:100840009200BFF35F8F0021116001331F2BF5D998
:100850007047C04640000034054A1078431CDBB2A4
:100860001370172B02D9130010221A707047C0465C
:10087000280B002000B583B00100044B00931F2318
:1008800018220348FFF7AFFF03B000BDC87503107F
:100890004C740120074B9B68103080001950BFF347
:1008A0005F8FBFF35F8F044B0021196082F31088C4
:1008B0007047C04600ED00E0240100D010B5091AD1
:1008C000081F0A4B9C466144094A914208D8C30755
:1008D00006D440104005400D064B184380B210BDB1
:1008E000054B064AA321064801F08EFEFC070000D6
:1008F000FE0F000000E0FFFFE475031038780310DE
:100900001476031010B5091A04394C08090B08D1E4
:100910004905490D064A11430180064B2343438094
:1009200010BD054B054AAB21054801F06DFEC046E0
:1009300000F0FFFF00F8FFFF547603100C7803105F
:100940001476031001238340034A10681840431EA5
:100950009841C0B27047C04600E100E0002904D0D1
:10096000034B1860034B18607047034B1860FBE79C
:1009700080E200E000E100E080E100E010B501234A
:1009800083401800FFF7EAFF10BD0000024B9B6890
:1009900010308000C058704700ED00E070B50400D2
:1009A0000D00EFF3108672B60C4B1B68002BFBD0CA
:1009B000BFF35F8F2000FFF7E9FF094B984201D09A
:1009C000A84205D1320029002000FFF763FF70BD67
:1009D000044B054A8621054801F016FE240100D08B
:1009E000CD010010647603106C78031014760310A8
:1009F000F0B5DE4657464E464546E0B589B08146DD
:100A000001911500EFF3108A72B6744B1B68002B2E
:100A1000FBD0BFF35F8F724B0027DF57002F40DB07
:100A20007C00E419A4006F4824180622A2566C4BDF
:100A30001A706D4B9A684B4610339B00D3589846FA
:100A40001E001B1A2F2B38D9684B98452FD105AEA5
:100A5000674B33807B009B46D8198000614B9846DA
:100A6000404402306349FFF729FF7080624BB38036
:100A7000FF23B371F571019B07935F44BF004744A7
:100A80000ECE0EC701231C43A0465246414648469F
:100A9000FFF700FF09B0F0BCBB46B246A946A0462E
:100AA000F0BD564B564AD721564801F0ADFD564B86
:100AB000534ADE21534801F0A7FDC04340440C21B6
:100AC00002F05CFF002912D101239E43B34633009C
:100AD0000026DA79AA4211D90621595600290CDBE1
:100AE0004A00521892001E003E4B9B18F1E7474BFC
:100AF000434AEA21434801F087FD1E00002E3AD008
:100B000005AB434A1A80813A5A800623F356029372
:100B1000002B17DA3F4805AB9B469880029A9A71E2
:100B2000DD71019A0792301D2100FFF7C7FEB080EA
:100B3000B7717B00DB199B002A4FFF185B4607CB80
:100B400007C7A2E77800C0198000264BC018043000
:100B5000321DB388D90A1C2907D15B05591502310A
:100B600049005118FFF7AAFED5E72B4B2B4AB121BC
:100B7000244801F049FD05AE1D4B33807B000293F4
:100B8000D8198000174A9046020042440392901CF4
:100B90001849FFF793FE7080039A101D5946FFF71E
:100BA0008DFEB0801E4B5A464146521A5241534365
:100BB0001B0DB371F571019A0792029B9C46674425
:100BC000BF0047440ECE0EC7114B5A461380813BDF
:100BD000538001231C43A04657E7C046240100D0A0
:100BE0002F7B01202C0B002000ED00E0CD01001038
:100BF00000A1FFFF5C0B002001BDFFFF9C760310EE
:100C00005478031014760310C4760310EC760310A6
:100C10000148000001BD0000607703104478031014
:100C2000AAAA0000F0B5CE46474680B583B00600BC
:100C30000D00EFF3108872B6564B1B68002BFBD0EB
:100C4000BFF35F8F544B9A6834001034A300D75819
:100C5000524B9F4207D0AF4200D198E00197504BD2
:100C6000FB1A2F2B09D9424639003000FFF712FE3C
:100C700003B0C0BCB946B046F0BD3000FFF762FE1D
:100C8000814600213000FFF779FEBFF35F8FEFF35D
:100C90000581002901D08C4211D10123019C9C4384
:100CA0000022A368AB4212D00622A256002A0DDB16
:100CB00053009B189B002200394CE418F1E73621C1
:100CC000384B394AFF31394801F09EFC2200AB42D3
:100CD00056D106256557002D38DB6B005B199A004D
:100CE0002F4B9B189A68A260DA79E27106229A5615
:100CF000A2719B795BB2002B0FDA2D48A0806B00AC
:100D00005B199B00264AD3182A4A117899711570ED
:100D100049463000FFF732FEA5E7201D6B005B1946
:100D20009B001F4A9B181A1D9B88D90A1C2907D1B2
:100D30005B055B15023359005118FFF7BFFDDDE776
:100D40001D4B1E4AB121194801F05EFC002912D149
:100D5000002A0ED0FF239371194B9380154A137804
:100D6000A371184B0E49641A644163431B0D137041
:100D7000CEE70A4FF2E7201D1349FFF7C3FDC7E78F
:100D80006A21124B084AFF31084801F03DFC034F2D
:100D900069E7C046240100D000ED00E0CD0100105D
:100DA0002C0B00207877031024780310147603109E
:100DB00001BD00002F7B01206077031044780310F1
:100DC00001BDFFFFAAAA0000660B0020AC7703104C
:100DD00070B5012101432E4BCB1A2F2B28D8EFF3EE
:100DE0000583002B2BD0EFF3108C72B6294A1268C2
:100DF000002AFBD0BFF35F8F274A0400244D641BF9
:100E000064416243120D54B2244A92689B00D25846
:100E10008A421BD00022032A32D853009B189B0021
:100E20001B49CB189B795BB2A3421FD00132F2E77A
:100E3000C7211B4B1B4A49001B4801F0E5FB9221CF
:100E40001A4B184AFF31184801F0DEFB134A92682A
:100E50001749D150174B1A7882711C70BFF35F8FFE
:100E60000C4B00221A608CF3108870BD0D005300EB
:100E7000991889006918FF268E710F4A8A80E9E760
:100E8000D1210E4B074A4900074801F0BDFBC0467F
:100E90002C0B0020240100D0AAAA000000ED00E0E5
:100EA000B4770310F077031014760310DC77031087
:100EB000CD0100102F7B012001BDFFFFE87703105B
:100EC0000022044B02E0044902C30132072AFAD986
:100ED0007047C04600E400E080808080024B9C4662
:100EE00061448900016070474000003410B504007F
:100EF000FFF7B2FC01002000FFF7F0FFFF23237192
:100F0000BFF35F8F10BD10B50400FFF7A5FC010013
:100F10002000FFF7E3FFFF23237100236371BFF37A
:100F20005F8F10BD034B9C46614489000160BFF395
:100F30005F8F70474000003410B504000120FFF7B8
:100F400099FC01002000FFF7EDFF10BD70B5050012
:100F50000C00080000F0D6FE0949200000F016FE43
:100F6000FFF77AFC074B9C466044800068602C7554
:100F7000D0231B061B786B75A400034BE55070BD96
:100F80009112001040000034C87801200A4B1A6802
:100F9000EFF3108172B61368002BFCD0BFF35F8FA4
:100FA000054B1B68BFF35F8F00221A6081F3108826
:100FB00040BF002000217047DC7A012010B50029D5
:100FC00022D003681B7B99421ED8174B9C46614474
:100FD000090183689C4661440C684968002A19D05D
:100FE00003681B7B9A4215D883680F488446624485
:100FF00012019A1810685368020001208B4201D830
:101000000ED00020C0B210BD084B094A3C2109484F
:1010100001F0FAFA054B064A3C21064801F0F4FAC1
:10102000A242EFD8EDE7C046FFFFFF0F9C79031007
:10103000007C03106479031010B500291ED0037BD7
:1010400099421BD84B005B18033B0468A4466344D9
:10105000002919D0002A1DD0914221D0002A25D084
:10106000047BA24222D8046850008018033820185C
:101070008170197800291FD11A7010BD104B114AC8
:101080006821114801F0C0FA104B114A6F310E4827
:1010900001F0BAFA0F4B0E4A70210B4801F0B4FA76
:1010A0000D4B0B4A7121084801F0AEFA044B054A7A
:1010B0006821054801F0A8FA41701A70DDE7C046C2
:1010C000C07903106C7C0310DC790310287A0310BC
:1010D000487C0310347A0310407A031070B5060080
:1010E0000D001400002914D0002A14D08068736801
:1010F0009847002806D0220029003000FFF79CFF07
:10110000280007E02A0021003000FFF795FF2000AB
:1011100000E0100070BD0800FCE70000F0B583B0EF
:101120000500009201930AAB1C780BAB1F78002CD2
:1011300026D003685A7B944207D10123002B19D192
:10114000002C3BD1200003B0F0BD002C0CD01A7B4A
:10115000944209D81A6863001B19033BD3189B7883
:10116000002BEBD00123E9E73E4B3F4A68213F4883
:1011700001F04AFA3E4B3F4A67213F4801F044FAEA
:1011800003689C7B002CDBD012D01A7B94420FD8D2
:1011900062001219033A19688C46624451789973B7
:1011A000002900D1D9730023937053701370C7E7DF
:1011B0002C4B2D4A68212D4801F026FA002C3AD0FC
:1011C0002B681B7B9C4236D82C4BE3181B01AA686A
:1011D00094466344009A1A60019A5A60089A9A6089
:1011E000099ADA602E68002C2BD030D0337B9C42D9
:1011F0002DD863001B19033B3268944663440022D8
:101200009A705A701A70717B22003000FFF766FFE7
:101210007073844200D095E7287D009A019B00F00E
:10122000FDFC061E01D0002F17D00C9B002B00D117
:1012300088E71E7086E7124B124A3C210E4801F0E7
:10124000E3F9114B114AA521084801F0DDF9054BDE
:10125000054A6821054801F0D7F92868210000F007
:1012600015FFE2E7C07903106C7C0310DC790310F2
:10127000587A0310787C031064790310FFFFFF0F86
:101280009C790310007C0310607903105C7C0310D0
:10129000F0B5DE4657464E464546E0B58BB0099060
:1012A000002308938200B54BD658370052E0B44B68
:1012B000B44A3F21B44801F0A7F9B44BB44A3C21E9
:1012C000B44801F0A1F9002901D1002869D1002119
:1012D000404600F0D1FEA04219D12A686B68069200
:1012E0000793AB689846EB689A464346002B14D0A8
:1012F000002C18D03B681B7B9C4214D8631EFA68F4
:10130000D35C08931B0218433861002015E0A24B00
:10131000A24A8E219F4801F077F9A14B9F4A922162
:101320009C4801F071F9994B9E4A4121994801F07E
:101330006BF900239A46984600207B68BFF35F8FC5
:1013400000221A6086F310884346002B32D1002811
:1013500000D10CE100F0FAFB02000B1EA7DB00201D
:101360000021069007917868EFF3108672B6016845
:101370000029FCD0BFF35F8F396888464C7B002C76
:10138000D7D09AD0097B8C4297D8874965182D0110
:10139000B9688C46654428686968801A99410029B3
:1013A00091DD2A686B68099800F038FC00239A46A2
:1013B0009846C2E7089B1B022343994651461800F2
:1013C000C04705000E007A68EFF3108B72B6136801
:1013D00059424B41D9B2002BF9D1BFF35F8F002E98
:1013E0001EDB002E46DD3B69002B47D04B456DD1FF
:1013F00000F0ACFB02000B1E6EDB52197341002B98
:1014000070DB002B72DB0021049101310391029407
:1014100051460191414600913800FFF77FFE4CE0B4
:101420003B69002BDDD04B4514D1069A079B521B1C
:10143000B341002B14DB002B16DB0021049101319A
:101440000391029451460191414600913800FFF703
:1014500065FE32E0554B514AA1214E4801F0D4F8C7
:1014600001225242524BE6E7454B464A3F2146484D
:1014700001F0CAF8002E01D1002DB4D13B68002C38
:1014800050D05A7B944237D1012100294AD1DA7BCE
:10149000002A4DD19A7B002A03D1DA7B002A5AD147
:1014A0009C73DC73002C5CD03B681B7B9C4258D83F
:1014B000FA68013C135D0133135500233B617A68E0
:1014C000BFF35F8F13608BF3108843E7374B334ACA
:1014D000A421304801F098F8294B2A4A3F212A4894
:1014E00001F092F801225242314B8AE7244B254AFF
:1014F0003F21254801F088F8002C0DD01A7B94423A
:101500000AD862001219033A186884466244927835
:10151000002ABAD00121B8E7264B274A682127487C
:1015200001F072F8264B274AF621244801F06CF8A6
:10153000002A0AD0197B8A4207D851008A18033A38
:1015400019688C4662445470A4E71A4B1A4A682101
:101550001A4801F059F81C4B1A4AFB21174801F0B0
:1015600053F80A4B0F4A41210A4801F04DF80BB0DD
:10157000F0BCBB46B246A946A046F0BDC8780120E3
:1015800030740310CC7B0310847403109C79031017
:10159000007C031064790310807A0310E47B03104D
:1015A000987A0310247C0310FFFFFF0FA47A031026
:1015B000FFFFFF7FC07903106C7C0310DC79031000
:1015C000E07A0310387C0310047B031010B50C4B39
:1015D0005B68002B04D00A210A48FFF77FFC10BD8E
:1015E000074C2300084A1021206800F055FC032016
:1015F00000F0A0FA03212000FFF7A8FCEBE7C046AB
:10160000740B0020DC7A0120BD0F001010B5064BD2
:101610005B68002B01D0044810BD044B044A5E21D6
:10162000044800F0F1FFC046740B0020187B031043
:101630000C7C031064790310F0B5DE4657464E4625
:101640004546E0B58BB0804616001F00149B9A46B5
:10165000159B994616AB1B789B461F2302AA9446FE
:10166000634400221A702BE0002809D04246126819
:10167000127B904204D8421E4146C9688A5C41E010
:10168000404B414A4121414800F0BEFF07984CE0E1
:10169000361BAF41002F07DB002F11DA3C4B3D4AD0
:1016A0003F213D4800F0B0FF012676423B4FF3E773
:1016B000374B384A3F21384800F0A6FF002F4FDB58
:1016C00043465A68EFF3108472B6136859424B418F
:1016D000D9B20791002BF8D1BFF35F8F1F3302AA55
:1016E0009446634404930023039302934B4601936F
:1016F0005346009332003B004046FFF70FFD031EA8
:10170000B2D1020041464968BFF35F8F00250D60EA
:1017100084F31088002B29D01F2302A98C46634430
:101720001B78002BB2D112021043002B20D05B4655
:10173000002B1DD04946D04704000D0003000B4389
:101740001DD00029A4DB00F001FA06000F1EAFDB5C
:1017500036196F41002FB1DA012676420F4FADE7FF
:101760000B4B0C4A3F210C4800F04EFF0120404239
:101770000BB0F0BCBB46B246A946A046F0BD0798E8
:10178000F6E7C0469C790310247C031064790310AB
:1017900030740310CC7B031084740310FFFFFF7FB1
:1017A000F8B504004268EFF3108572B6136858422A
:1017B0004341D8B2002BF9D1BFF35F8FCBB222687F
:1017C000567BB3421BD10120002848D020698842B3
:1017D0002BD0090AC9B2002B2ED02068007B83428F
:1017E0002AD8581EE668305C88422BD000206368F7
:1017F000BFF35F8F00221A6085F31088F8BD002BBD
:101800000DD0167BB3420AD85E00F618033E176867
:10181000BC466644B678002ED6D00120D4E7134BE0
:10182000134A6821134800F0EFFE9521124B134A2A
:101830004900134800F0E8FE124B134A41211048BA
:1018400000F0E2FE1900100000F020FC0028CED1CC
:1018500032210E4B094AFF31094800F0D5FE2369B9
:101860008B42C4D100232361C1E7C046C079031075
:101870006C7C0310DC7903103C7B0310B47B0310F9
:10188000647903109C790310247C0310607B03109F
:10189000F0B587B006000F00EFF30583002B1FD1D2
:1018A00006246442E517A4197D418D4202D803D174
:1018B000844201D900240025002D14DB04940595F1
:1018C00000F044F902000B1E13DBA41A9D41002D09
:1018D00017DC14D03000390000F044F907B0F0BD37
:1018E000234800F02BFF234B234A3F21234800F0DD
:1018F0008BFE204B204A3F21204800F085FE002C23
:10190000E8D0FFF783FE0023029301931C4B009362
:10191000049A059BFFF790FE002818DADAE7002307
:1019200000E00023002BD5D1164B1A68EFF310818D
:1019300072B61368002BFCD0BFF35F8F114B1B688E
:10194000BFF35F8F00221A6081F3108820BF0499D3
:10195000059A0D4B5B6A9A42E3D80B48806A88422D
:1019600003D29A42DBD00123DCE70123DAE7C04649
:10197000647B031030740310CC7B03108474031059
:101980008D0F0010DC7A01200040054070B5040086
:101990000D0000F0DBF802000B1E0ADB200029001E
:1019A0008018594100290ADB00290CDBFFF770FF82
:1019B00070BD084B084A3F21084800F025FE012071
:1019C00040420749F0E7034B034A3F21034800F038
:1019D0001BFEC04630740310CC7B031084740310CC
:1019E000FFFFFF7F10B5FA2292000023002102F0D2
:1019F00001FEFFF7CBFF10BD70B584B005000C00F1
:101A0000EFF30583002B1ED1FFF700FE00230293A6
:101A10000193224B00932A002300FFF70DFE061EC0
:101A200023DD20BFFFF7F2FD3100FFF7B9FE1C4BAD
:101A30005B6A9C422DD81A4A926AAA422CD29C42D6
:101A400025D0012026E0164B5B6A994209D8144A3A
:101A5000926A824207D2994201D001201AE0002006
:101A600018E0002016E0012014E00D4B5B6A9C4258
:101A700009D80B4A926AAA4207D29C4201D001209F
:101A800008E0002006E0002004E0012002E0002041
:101A900000E0002004B070BD0120FBE78D0F0010B6
:101AA0000040054070B5EFF305801038EFF3108C5F
:101AB00072B61A4B1B68002BFBD0BFF35F8F01225D
:101AC0001300834016494B6316490B601649097889
:101AD0000C00C440224214D0114A546A8200134DB3
:101AE0005259944206D38200114C125999430E4B1D
:101AF000197007E00A4A031D9B009958995000226B
:101B000000E00022BFF35F8F044B002119608CF3CB
:101B10001088002A00D0904770BDC046280100D030
:101B2000004005403C700540307B0120E07A0120F8
:101B30003474012010B50100024A0348FEF73AFE52
:101B400010BDC046907C03102E7B0120044B5B6AC5
:101B5000034A906A1900536A9942F9D17047C04606
:101B600000400540084B5B6A01E0074B5B6A8B4213
:101B7000FBD301E0044B5B6A8B4203D1024B9B6AAF
:101B80008342F7D37047C0460040054070B504005B
:101B90000D00EFF3108672B61B4B1B68002BFBD0B9
:101BA000BFF35F8F002D1CD02000FEF7EFFE174B18
:101BB00083420BD019002000FEF7F0FE0121200027
:101BC000FEF7DCFE0123A340114A1360A400114B71
:101BD000E550BFF35F8F0C4B00221A6086F310882C
:101BE00070BDA2000B4B0021D1500122A2400A4936
:101BF0000B7893430B7005492000FFF713F8002181
:101C00002000FEF7BBFEE4E7280100D0A51A001073
:101C10003860054034740120307B0120F0B5DE4689
:101C200000B584B00400150001921E000293FFF776
:101C30008DFF03958E4202D84ED185424CD9EFF3E9
:101C4000108B72B6274B1B68002BFBD0BFF35F8F46
:101C5000254A17780125A540EBB23B431370234B6F
:101C60005D63221D92000199D150A2002049029883
:101C700050501B6A2B4212D11C4B1B6C2B4208D0BC
:101C80000020BFF35F8F174B00221A608BF3108880
:101C900023E0184B184AC521184800F0B5FCFFF79F
:101CA00055FF8E4214D802D1039B834210D80E4BAD
:101CB0001B78BB420ED00D4B1D625D631F2004409C
:101CC0000123A3400E4A1360074B1F701E38D8E74C
:101CD0000020D6E70120D4E7012004B080BCBB4639
:101CE000F0BDC046280100D0307B012000400540F7
:101CF000E07A0120B47C03101C7D0310D87C031013
:101D000080E200E0EFF3108C72B60B4B1B68002BE7
:101D1000FBD0BFF35F8F01238340084A1362084959
:101D20000A789A430A70BFF35F8F034B00221A6050
:101D30008CF310887047C046280100D00040054051
:101D4000307B012010B500291ED0037B99421BD89F
:101D50004B005B18033B0468A4466344002919D078
:101D6000002A1DD0914221D0002A25D0047BA24216
:101D700022D8046850008018033820188170197820
:101D800000291FD11A7010BD104B114A682111484B
:101D900000F03AFC104B114A6F310E4800F034FC51
:101DA0000F4B0E4A70210B4800F02EFC0D4B0B4AD6
:101DB0007121084800F028FC044B054A68210548B9
:101DC00000F022FC41701A70DDE7C046C0790310B4
:101DD000247E0310DC790310287A0310107E031090
:101DE000347A0310407A031070B506000D00140019
:101DF000002914D0002A14D08068736898470028FE
:101E000006D0220029003000FFF79CFF280007E0E1
:101E10002A0021003000FFF795FF200000E01000AD
:101E200070BD0800FCE7000010B5002343730133C8
:101E30008373037BC3730123027B9A4214D9002B63
:101E40000CD0027B934209D85A00D218033A016899
:101E50008C4662440133DBB25370EDE70B4B0C4A06
:101E600068210C4800F0D0FB002A09D0924207D824
:101E7000016853009A18033A8A180023537010BD62
:101E8000024B034A6821034800F0BEFBC0790310EF
:101E9000247E0310DC79031010B501734260836067
:101EA000FFF7C2FF10BD000070B50400081E00D18E
:101EB00070BD002934D0237B994231D84B005B1888
:101EC000033B2268944663445A78002AF0D02DD010
:101ED000237B9A422AD853009B18033B21688C46E7
:101EE00063445D7800215970002825D0237B9842F7
:101EF00022D843001B18033B21688C466344002111
:101F0000597001002000FFF76FFF06002900200034
:101F1000FFF7CAFF020031002000FFF765FFC7E7A7
:101F2000084B094A6821094800F06EFB054B064A38
:101F30006821064800F068FB024B034A6821034809
:101F400000F062FBC0790310247E0310DC790310DB
:101F500070B505000C00160000292FD034D0037B8B
:101F6000994231D84B005B18033B026894466344A6
:101F70005A78002A2ED19A78002A31D11978FFF7A1
:101F800093FF0300002E0AD0EA7B002A2ED1AA7B01
:101F9000002A03D1EA7B002A3BD1AC73EC73002BFF
:101FA0003DD1002C4FD02B7B9C424CD82B6861003C
:101FB0000C19033C1C190023637070BD254B264A85
:101FC0003821264800F020FB254B264A6821264868
:101FD00000F01AFB254B204A3A21204800F014FB60
:101FE000234B1D4A3B211D4800F00EFB002A0AD05E
:101FF000297B8A4207D851008A18033A29688C46FF
:1020000062445470C3E7164B164A6821164800F024
:10201000FBFA184B104A4221104800F0F5FA002B49
:102020000BD02A7B934208D843001B18033B2A6835
:102030009446634400229A70B3E7094B094A682129
:10204000094800F0E1FA064B064A6821064800F00C
:10205000DBFAC046387D0310FC7D0310407D031081
:10206000C0790310247E0310DC790310787D0310FF
:10207000A07D0310047B031070B504000A00457BAB
:102080002900FFF765FF6073280070BD70B504007C
:10209000002967D0437B8B420ED0002911D0037BEF
:1020A00099420ED84B005B18033B0268D018837826
:1020B000002B0CD1002056E00121FFF7DDFF0120AD
:1020C00051E0294B294A6821294800F09DFA002B4C
:1020D00020D0227B93421DD85A00D318033B22689C
:1020E000D2182568EB5C8B421AD0002B1BD0227BC8
:1020F000934218D85A00D318033B2268D218537859
:102100008B4216D0002BF0D11A4B1B4A6B211B4877
:1021100000F07AFA144B154A6821154800F074FA59
:102120004378137007E0104B104A6821104800F004
:102130006BFA4378537000238370437001222000B0
:10214000FFF706FF0200617B814205D02000FFF708
:102150004BFE6073012006E0094B074A71210748D6
:1021600000F052FA002070BDC0790310247E0310E5
:10217000DC790310E8770310E47D0310407D031041
:10218000C47D031070B504000D00062000F07EF938
:10219000C000290001F0F2FBC60908D00E4B9E4298
:1021A00017D87F23184001303500460800E001258C
:1021B0006562A6622C3480208001044300232360E2
:1021C000062000F063F98000A901891901F0D6FB0F
:1021D00070BD0026014DEBE7FEFF0000FFFF000091
:1021E000002909D00A22064B9C46604443425841CC
:1021F0004000044BC252704780225200F3E7C046B1
:102200000080FCBFF07A012070B505000C000620AC
:1022100000F03CF9002829D0164B9D4227D080229F
:10222000D203154B1A60154B1A60154B9B681100B1
:102230009943FAD100212800FFF7D2FF210028009E
:10224000FFF7A0FF2C002C34E96A60224A406E217F
:10225000114080225201224311600A4B2B638023DC
:102260009B01234310221A600323AB6470BD8022BC
:102270001204D6E70080034000E0004000F0004078
:1022800000C0004001030000F8B5DE4657464E4648
:102290004546E0B505000F0092460A9A93424ED398
:1022A0001A0E91461E020A9A00233000494601F098
:1022B000A3FB80466C006419A4002F4B9C46644429
:1022C0006368834200D260602B1FDBB29B46012B08
:1022D0003BD9C0239B012343802212011A60AB002B
:1022E000264A9958002905D0506901F047FB013072
:1022F0000138FDD153465A0123685A40E0231A4061
:1023000080235B0123431A605A46012A28D980237F
:102310009B012343802212011A60434663604246B8
:1023200000233000494601F067FBAD00134B5851C4
:102330000120F0BCBB46B246A946A046F8BD104BF2
:10234000104A2D21104800F05FF9012FC1D1C023A0
:102350009B01234303221A60A368DB07FCD5C9E76E
:102360002168794003220A401A60A2680123BB4019
:102370001342FAD0CBE7C0460080004050740120E1
:10238000307E0310887E0310447E031030B583B086
:102390000C2000F017F9FEF7EDF900280DD000230E
:1023A00004E099002D4A2E4888500133092BF8D9B2
:1023B0002A4B2C4A5A6203B030BD2B4B00229A673D
:1023C00000F008F9294B01221A60274B5B6C012BA6
:1023D000FBD1274B03221A60234B9B6B012BFBD1B4
:1023E000013300930433234A0121234800F054F8B9
:1023F00005230093214A0121214800F04DF8214B8B
:102400000093002202210420FFF73EFF1E4D00959D
:102410002B00002201210520FFF736FF104C00940D
:102420002300002200210720FFF72EFF0094230045
:10243000002200210820FFF727FF0A4B009323000A
:10244000002200210920FFF71FFF00952B0000222A
:1024500000210620FFF718FFADE7C04650740120A9
:10246000006CDC021BB70000008000403CB0004064
:1024700030B00040002F685900800240008C864731
:1024800000C00240001BB700405973078000014B99
:10249000C058704750740120F0B5C64600B504001E
:1024A0000D00170098460C2001F068FA0600394B21
:1024B000FA18394B9A4241D843011B1A9901C91A9B
:1024C000C90009188901380001F058FA0200103AD1
:1024D00098235B009A4237D84346013B062B39D8F4
:1024E000069B013B062B35D83F09B74238D34346FC
:1024F0001E04069B1A0316432368002B36DB274B6A
:102500009C4244D080225201254B1A60254B1A6010
:10251000254B9B6811009943FAD12560A060231DCB
:10252000C02292011A43212313602368002BFCDA96
:10253000E6600823136080BCB846F0BD1B4B1C4A04
:1025400011211C4800F060F81B4B194A1921194849
:1025500000F05AF8194B164A1C21164800F054F89E
:10256000174B134A2321134800F04EF822683F23EB
:102570001340AB42C3D1A3681B051B0D8342BED1E0
:10258000E368EE22D2021340B342B8D1D3E78022EF
:102590009201B9E780E84BD380F8A93200C002402D
:1025A00000E0004000F0004000C00040987E0310B2
:1025B000BC7F0310F87E0310387F0310547F031094
:1025C000A07F031080239B000343014AD36270471E
:1025D00000800540064BAA2212011A602F22DA6001
:1025E000044B054A1A60024B5B68002BFBDA70470C
:1025F000004002400060024000B0FA0000BEFDE76B
:1026000010B5FFF7FBFF000010B582B00C001900F9
:10261000002A0CD0084B002A0BD001920093230013
:102620000200064802F0FEF90120FFF7E7FF044B25
:10263000F1E7034AF1E7C046C87F0310D87F0310D3
:10264000D47F031070B52B4B2B4A1A602B4B2C4AAE
:102650001A602C4B9A682A4B9343FAD12A4C01E01A
:1026600008CC9847294B9C42FAD3FFF78FFE234BA7
:10267000274A1A60234B9B68DB43DB01FAD1254BC9
:1026800040229A675A671A67DA66234C09E0234B9F
:10269000234A86212348FFF7B7FF2000FEF726FCD8
:1026A0000834214B9C4209D22368002BF5D0012B22
:1026B000EDD12000FEF727FC0834F2E71B4CA1689F
:1026C0001B4DC022280002F055F8A560EFF30583EA
:1026D000002B00D000BEFEF7AFF8FEF7F1FBFEF7CF
:1026E00075FF144C01E008CC9847134B9C42FAD379
:1026F00070BDC04600E00040BFCDFBFE00F00040D2
:10270000FE7F3C0000C00040A80C0020B80C002058
:10271000FFFFFF0100F00140A00C00200880031023
:102720008080031028800310A80C002000ED00E03A
:1027300000000020B80C0020BC0C00200FB400B535
:1027400083B0084802F03EF9049B002B07D005A98E
:102750000191180002F046F9034802F033F9012014
:10276000FFF74CFF6C8003107C800310704710B59E
:10277000002802D00B684968984710BD010000206E
:1027800007E083001B185B00501C08601078C0181D
:1027900030380A681378303BDBB2092BF1D9704727
:1027A000F0B5DE4657464E464546E0B583B0934603
:1027B0001F000C9B9A460D9C0E9B99460F9B9B07F6
:1027C00003D0B8460F00060022E00192A3468846D7
:1027D0004E46B9460700B44207D2551C4B46414607
:1027E0002020B84701342A00F5E73D004F465C46FB
:1027F000019B9B46B1464646B84637002E0007E08F
:10280000013C551C5346185D43463900B0472A0029
:10281000002CF5D135003E0047460F9B9B0707D49F
:10282000100003B0F0BCBB46B246A946A046F0BDBE
:10283000B0464E46B9462F005D46531BB342EFD219
:10284000541C4B4641462020B8472200F5E7F0B51E
:10285000CE46474680B585B0944698460C9D0D9C63
:102860000EAB1B789946109A119B129EB7071CD489
:10287000002B0CD0F7070AD54F46002F02D10C379A
:10288000374204D0013B02E030272F5501349442F7
:1028900001D21F2CF8D9F70707D59C4205D21F2C6F
:1028A00003D830272F550134F5E7F70615D57705FE
:1028B00005D4002C03D0944224D09C4222D00F9AFD
:1028C000102A2BD00F9A102A30D00F9A022A35D016
:1028D0001F2C02D830222A5501341F2C05D84A4615
:1028E000002A31D02D222A550134039602930194F7
:1028F000009543466246FFF753FF05B0C0BCB9469A
:10290000B046F0BD621E012C06D00F9F102F01D0E3
:102910001400D4E7023CD2E71400D0E7B206D1D4C9
:102920001F2CCFD878222A550134D1E7B206CCD556
:102930001F2CCAD858222A550134C9E71F2CC7D8E2
:1029400060322A550134C3E7720703D52B222A557A
:102950000134CAE73207C8D520222A550134C4E71A
:10296000F0B5DE4657464E464546E0B593B0814643
:102970008A46089209931CAB10CB1B789B461E9D80
:10298000219B9846002C03D1102342469A4390463F
:102990008023DB0046461E4042461A4212D0002CDD
:1029A00022D000260EE03033D9B2771C0AAB9955FD
:1029B0002900200000F0E2FFAC4216D31F2F14D8EC
:1029C0003E0004002900200000F0D8FFCBB2092B04
:1029D000E9D94246920605D54121C918C9B20A393A
:1029E000C9B2E2E76121F8E7270043460693209B3E
:1029F00005931F9B049303955B46029301970AABD3
:102A00000093099B089A51464846FFF720FF13B0F0
:102A1000F0BCBB46B246A946A046F0BDF0B5DE46C6
:102A200057464E464546E0B595B0089009910A9242
:102A30000B931E9E1F9C20AB1B789B46229B9946A6
:102A4000239D269B9A463300234303D110335246DD
:102A50009A4392468023DB0057461F4052461A4253
:102A600019D0330023432DD0002714E03033DAB2DD
:102A70007B1C98460CABDA554A462B0030002100EF
:102A800000F0BAFFA5421FD819D043461F2B1BD810
:102A9000474606000C004A462B003000210000F09B
:102AA000ABFFD3B2092BE1D95246920605D541229C
:102AB000D218D2B20A3AD2B2DAE76122F8E7B145C7
:102AC000E3D901E00023984653460693259B0593DE
:102AD000249B04934B4603935B4602934346019326
:102AE0000CAB00930B9B0A9A09990898FFF7AFFE6D
:102AF00015B0F0BCBB46B246A946A046F0BD0000EA
:102B0000F0B5DE4657464E464546E0B591B08346A1
:102B10008A460C9298461A9C08941B9D099522009F
:102B20002B002000290001F0F2F9002800D0E5E098
:102B300001225242D74B2000290001F0E3F900287E
:102B400000D0DBE001225242D34B2000290001F0EB
:102B5000C3F9002800D0D1E000220023089E3000F5
:102B6000099D290001F0B8F9002800D0DDE008989F
:102B70000999069007918023DB001E9A1A400D9256
:102B80001E9A1A4201D106231C9306980799040045
:102B90000D000A000600024300D1D1E0080D4005F7
:102BA000400DBE4CA44660440A03120BBC4B1343B9
:102BB0001F0001F0BFF9BB4ABB4B01F04AF9BB4A09
:102BC000BB4B01F01FF904000D000022B94B30008F
:102BD000390001F00EF9B84AB84B01F03AF9020099
:102BE0000B002000290001F00DF901F0BBF981462E
:102BF00001F0A0F904000D00B14AB24B01F029F92F
:102C00000022B14B01F0FEF801F0ACF90600AF4A2A
:102C1000AF4B2000290001F01CF904000D0030002A
:102C200001F088F9AB4AAC4B01F013F902000B003C
:102C30002000290001F0DDF804000D0002000B0067
:102C400001F007F90A900B91A44BF31800261F0519
:102C500022002B002000290001F0D4F80E900F91E3
:102C600022002B0000208021C90501F0C2F80400D9
:102C70000D0000229A4B0A980B9901F0CCF8002223
:102C8000984B01F0BFF802000B000A980B9901F075
:102C9000C2F80022944B01F0B5F802000B000A982C
:102CA0000B9901F0B8F802000B002000290001F098
:102CB000A9F802000B000E980F9901F0ACF8002261
:102CC000774B01F09FF832003B0001F0C2F806009C
:102CD0000F0004000D00069A079B01F013F900286D
:102CE00030D001235B429C46E14400227D4B300002
:102CF000390001F090F804000D0023E01E9B0493BE
:102D00001D9B03931C9B0293089A099B00920193BD
:102D100043460C9A5146584600F0FCF811B0F0BCFE
:102D2000BB46B246A946A046F0BD00230024069348
:102D30000794069680231B069C46654407951AE770
:102D4000002399464B466333C62B1ED804261E9B90
:102D50001B0526D52B0023430FD0644A644B0698ED
:102D6000079901F0C7F8002879D00022614B069836
:102D7000079901F0B1F8002871D01C9B4B4506DD86
:102D80004A46981A431E1C9303E00526DFE70023FA
:102D90001C938023DB001E9A1A431E9200260023F8
:102DA00099461D9B9E4264D29F1B02231E9A1A4085
:102DB0000A921E9A134202D0002E00D000274B46E2
:102DC000002B07D022002B000698079901F023F86A
:102DD00006900791002200230898099901F07CF8D9
:102DE000002848D1444B1E9A1340049303971C9B20
:102DF0000293069B079C0093019443460C9A51460C
:102E0000584600F087F8002E00D187E71E9B9B06EE
:102E10003DD54525441C4346020051462800D8476D
:102E20004B46DA179B18534005220592013E049643
:102E3000002203920A3202924A46D00F0190009378
:102E40004346220051465846FFF78AFD0A9B002B55
:102E500000D163E702005F460C9E1D9D54E01C9B61
:102E6000002B9ED00D9B002B9BD01C9B013B1C93E9
:102E700097E7002799E7069C079D220029008020FC
:102E80000006844661440B0006920793AAE7652575
:102E9000C0E7C046FFFFEF7FFFFFEFFF01FCFFFF32
:102EA0000000F03FFB799F501344D33FB3C8608BC1
:102EB000288AC63F0000F83F61436F63A787D23F6F
:102EC00071A379094F930A400000E03F1655B5BB46
:102ED000B16B0240EF39FAFE422EE63FFF030000DD
:102EE00000002C4000002440000018402D431CEB43
:102EF000E2361A3F80842E41FFF7FFFF541C434601
:102F000051462020B8472200931BAB42F6D3100055
:102F100004E7C046F0B5DE4657464E464546E0B5A6
:102F200095B00690079193469946209F1E9A1F9B45
:102F30001000190000F0EBFF002831D101225242AD
:102F4000BF4B1E981F9900F0C7FF002837D1012200
:102F50005242BC4B1E981F9900F0D4FF00283DD16F
:102F60000022B94B1E981F9900F0CCFF002850D1C9
:102F70000022B64B1E981F9900F0AEFF002848D1E2
:102F8000002200231E981F9900F0A6FF002850D1B0
:102F900000239846229B5B0500D4B6E0002458E04D
:102FA000229B0393219B029303230193A84B00933D
:102FB0004B465A4607990698FFF7F2FB0EE1229B13
:102FC0000393219B029304230193A24B00934B464E
:102FD0005A4607990698FFF7E3FBFFE00423229A7D
:102FE0001A4022990B4210D09B4B002A0FD004228A
:102FF0002299039121990291019200934B465A46DE
:1030000007990698FFF7CCFBE8E0944BEDE7032225
:10301000EEE7229B0493219B039302971E9B1F9C28
:10302000009301944B465A4607990698FFF768FDAE
:10303000D4E01E9A1F9B0020002100F0DAFE1E90B3
:103040001F9101239846A5E70CAB30221A55013F8A
:1030500001341F2C01D8092FF6D81E981F9900F0B3
:1030600081FF050000F066FF02000B001E981F990B
:1030700000F0BFFEFA007A4B9B181A685B680A9250
:103080000B9300F0E6FE0890099100F08FFF060018
:1030900000F04CFF02000B000898099900F0A9FE0F
:1030A0000890099100226F4B00F02CFF00282ED0D1
:1030B0000136300000F03AFF02000B000A980B992D
:1030C00000F010FF002801D001350026002F2CD180
:1030D000280000F02FFF02000B001E981F9900F03F
:1030E00088FE06000F0000225E4B00F0F5FE00286F
:1030F00046D100225B4B3000390000F003FF00286E
:103100003ED1EB073CD501353AE0062746E70022E1
:10311000544B0898099900F0DFFE0028D6D1002E04
:1031200001D0F307D2D50136D0E7AA461F2C11D81B
:10313000013F0A21300000F021FC651C30310CAB4E
:1031400019550A21300000F019FC092E0ED906008D
:103150002C00EBE755461F2C0CD87B1E002F09D006
:103160000CAA302111551F000134F4E72B005546FD
:103170001C00F0E71F2C03D80CAB2E221A5501348B
:103180001F2C10D80A21280000F0D0FB661C30311B
:103190000CAB19550A21280000F0C8FB051E01D010
:1031A0003400EDE734000323229A1340012B1CD096
:1031B0001F2C06D84346002B32D00CAB2D221A55BB
:1031C0000134229B0393219B029301940CAB009347
:1031D0004B465A4607990698FFF7E2FA15B0F0BC3D
:1031E000BB46B246A946A046F0BD219B002B13D09A
:1031F0004346002B02D10C3313420FD0219B013BDD
:103200002193190003E00CAB30221A5501348C4293
:10321000CED21F2CF7D9CBE72199F8E72199F6E711
:10322000229B5B0704D50CAB2B221A550134C8E74F
:10323000229B1B07C5D50CAB20221A550134C0E7D1
:10324000FFFFEFFFFFFFEF7F65CDCD4165CDCDC126
:103250009C800310A08003109480031090800310C2
:10326000888203100000E03FF0B5DE4657464E4628
:103270004546E0B593B082468B46904611930029AF
:1032800000D1EBE200275546119B1878002800D1A9
:10329000E7E2252809D07C1C43463A005946A84756
:1032A000119B013311932700EEE7013311930024A2
:1032B000119A11780B00203BD8B2102803D8830054
:1032C000D048C3589F460B00303BDBB2092B2CD9AA
:1032D0002A292FD000230A93119B1A782E2A39D03D
:1032E00000239A46119A1378683BD9B2122976D8EE
:1032F0008B00C549CB589F4601231C4301321192D4
:10330000D6E702231C4301321192D1E704231C4368
:1033100001321192CCE708231C4301321192C7E716
:1033200010231C4301321192C2E711A8FFF726FABD
:103330000A90D1E71C9B1A1D1C921868002804DB18
:103340000A90119B01331193C6E702231C434342A9
:103350000A93F6E78022D20014435A1C11925A783D
:103360001300303BDBB2092B04D92A2A07D00023F3
:103370009A46B7E711A8FFF701FA8246B2E71C9B0D
:103380001A1D1C921868002804DB8246119B013329
:103390001193A7E70020F8E780235B002343511C2B
:1033A000119152786C2A01D01C0018E0C0239B00B8
:1033B0001C430131119112E080232343511C1191D0
:1033C0005278682A01D01C0009E0C0231C43013157
:1033D000119104E080235B001C4301321192119B88
:1033E00018780300253BDAB2532A00D92CE2930067
:1033F000864AD3589F4680239B001C43013211927A
:10340000EDE780235B001C4301321192E7E7782847
:1034100009D0582838D06F2838D0622838D01023E7
:103420009C430A2600E01026582833D0692803D090
:10343000642801D00C229443630501D501229443F2
:1034400069282AD0642828D0A30500D59FE0E30589
:1034500000D5B8E0630600D4CAE01C9A111D1C9187
:103460001168FF220A4005940A9B04935346039374
:10347000029600230193009243463A0059462800E1
:10348000FFF76EFA070027E01026CDE70826CBE706
:103490000226C9E720221443C8E7A30520D4E30588
:1034A00050D4630666D51C9A111D1C911168FF2229
:1034B0000A40D317D118594005940A9B04935346E8
:1034C00003930296D20F0192009143463A00594667
:1034D0002800FFF745FA0700119B01331193D3E64B
:1034E0001C9BDA1D07218A43110008311C911168C9
:1034F00053689C46DB170C930D930C9A0D9B1000A0
:1035000048400E90624653400F930E980F990C9AC4
:103510000D9B801A99410E900F9108940A9B079376
:10352000534606930496002305936346DA0F0292EE
:103530000090019143463A0059462800FFF76EFA81
:103540000700C9E71C9A111D1C911268D317D118E6
:10355000594005940A9B0493534603930296D20F55
:103560000192009143463A0059462800FFF7F8F9C6
:103570000700B1E7230605D51C9A111D1C910023F5
:10358000D25E96E71C9A111D1C91126891E71C9B54
:10359000DA1D07218A43110008311C9108940A9B07
:1035A00007935346069304960023059302931368EA
:1035B00054680093019443463A0059462800FFF7A7
:1035C0002DFA070088E71C9A111D1C9105940A9B8F
:1035D00004935346039302960023019313680093C8
:1035E00043463A0059462800FFF7BAF9070073E747
:1035F00023060DD51C9A111D1C9112681204120C81
:1036000031E7C046A8800310EC8003103881031016
:103610001C9A111D1C91126825E746281AD01C9B84
:103620000733072293431A0008321C9204940A9A23
:103630000392524602925C681B68009301944346D1
:103640003A0059462800FFF765FC0700119B01333B
:10365000119319E620231C43E1E7672801D047288E
:1036600002D180231B011C43452801D0472801D1EA
:1036700020231C431C9B0733072293431A00083264
:103680001C9204940A9A0392524602925C681B6848
:103690000093019443463A0059462800FFF730FA58
:1036A0000700119B01331193EEE502231A0022401B
:1036B000924623421FD001241C9B1A1D1C927A1C87
:1036C0009146187843463A005946A8475346002B7E
:1036D00016D1119B013311934F46D5E5561C434635
:1036E00059462020B847230032005C1C9D42F5D883
:1036F0003D001700E0E701233A002F000A9DF4E7A0
:103700004A46A9460A9D06E0571C434659462020D2
:10371000C84734003A00661CA542F5D84D4691468C
:10372000D7E71C9B1A1D1C921B6899465346002B19
:1037300000D1013B4E4601E0013613003278002AE9
:1037400002D05A1E002BF7D14B46F21A109280235A
:10375000DB0026001E401C4203D0524501D95346CF
:10376000109302231A0022400B92234205D03A0004
:1037700037004C46A946554620E03A00109B5F466C
:10378000B3462E0006E0551C434639002020B047C2
:1037900023002A005C1C0A999942F4D835005E4641
:1037A000BB46109437004C46A946554606E01D001E
:1037B0000134561C43465946C84732002078002839
:1037C00004D0002FF4D06B1E002DF0D117004D4611
:1037D0000B9B002B03D1119B0133119354E50A9FDE
:1037E000109B06E0561C434659462020A84723005C
:1037F00032005C1C9F42F5D81700ECE721231C43E4
:103800001C9B1A1D1C921B680093059408230493AB
:1038100053460393102302930023019343463A0037
:1038200059462800FFF79CF80700119B01331193BC
:103830002AE57C1C43463A0059462520A847119B9F
:103840000133119327001FE57C1C43463A0059467B
:10385000A847119B01331193270015E50A4B9A469F
:1038600010E5AA46474502D343465A1E00E03A00F7
:10387000434659460020D047380013B0F0BCBB4641
:10388000B246A946A046F0BD6D27001000B585B030
:10389000029003910121009313004A4202A90248B9
:1038A000FFF7E2FC05B000BD6F27001001480421BE
:1038B000014B1847A00B0020F5380010014B5B6846
:1038C00018470000A00B0020014B9B681847000020
:1038D000A00B002010B5010018231B8814221088AB
:1038E000984710BD10B5010018231B8816221088B8
:1038F000984710BDF0B5C64600B507000E0000257C
:103900000123984600E00135B5420AD2AC003C19CB
:103910002068FFF7DFFF20600028F4D100239846DD
:10392000F1E7404680BCB846F0BD0000124A936FF4
:103930009B0815D29066D166002905D0FFE7FFE706
:10394000FFE7516F106F704704B580210906C21759
:103950005140002800D0C84333F01AFD002104BDB7
:10396000F0B5146E556E576F166FFFF7E3FF1466D0
:10397000556657671667F0BD000000D0114A936F77
:103980009B0813D210665166002905D0FFE7FFE7B8
:10399000FFE7516F106F704704B5002801D0002079
:1039A000C04333F0F5FC002104BDC046F0B5146EF1
:1039B000556E576F166FFFF7E5FF1466556657672C
:1039C0001667F0BD000000D094464A4A926F9208F4
:1039D000624601D228E0C046F0B5464E346E756EA0
:1039E000776F366F00F020F89446424A14665566A9
:1039F000576716676246F0BD94463E4A926F92083A
:103A0000624601D254E0C046F0B53A4E346E756E4F
:103A1000776F366F00F04CF89446364A1466556658
:103A2000576716676246F0BD002B24DB11D00029D2
:103A30003EDA00B5C943404200D1013100F038F808
:103A4000C943404200D10131DB43524200D101332E
:103A500000BD002AEBD1002801D1002905D00020AB
:103A6000C90FC90701D1C043410800B533F088FC34
:103A70000022002300BD00B500290ADBDB435242CF
:103A800000D1013300F014F8C943404200D10131A4
:103A900000BDC943404200D10131DB43524200D155
:103AA000013300F005F8DB43524200D1013300BD81
:103AB000002923D1002B18D1002A0CD0BC460D4F71
:103AC00038667A6600210023FFE7FFE7FFE77A6F99
:103AD000386F67467047002801D00748010000B5DD
:103AE00033F04EFC0022002300BD02000B0000203A
:103AF00000217047000000D0FFFFFFFF002B00D027
:103B0000BFE0130C28D1002AE7D080B4114F3966EA
:103B10007A66FFE7FFE730B4040C7B6F396F1B0454
:103B200023433B667A66FFE7FFE7FFE7C04684B2C0
:103B30007B6F3D6F1B0423433B667A66FFE7FFE71D
:103B4000C04600232C042D0C7A6F386F0019694190
:103B5000B0BC7047000000D0F0B594460025140EAC
:103B600001D112020835140F01D112010435940F4E
:103B700001D192000235D40F01D152000135D40B8E
:103B80000134254F7C66254C3C660E0C93B2FFE752
:103B9000FFE7FFE73C6F6643360C7703BE4673438F
:103BA000DF0B5B04C01AB941130C7343DB18C91A4D
:103BB000CE086643360CB64493B273431F0F1B0105
:103BC000C01AB941130C73431F0B1B05C01AB9412E
:103BD000860D8F023E436643360C092D24DB520AC4
:103BE0007243801A7703460A6643360C16235B1B22
:103BF000DE40DF40BF1964466643821B70460435D1
:103C000006330100D940A840C01900D30131A242B7
:103C100006D20023F0BD0000000000D0FFFFFFFF30
:103C2000121B0130F3D3F1E709277F1BFE406446E6
:103C3000A2B27243801A00D20139220C7243130CD3
:103C40001204821A99410B007046043513370100A3
:103C5000F940A840801900D30131002B02D1A242C3
:103C60000AD2F0BD013000D30131121BFAD2013B60
:103C7000F8D1A24200D2F0BD013000D30131121BB5
:103C8000F7E7F0B51C0C00D080E00CB400251C0A4E
:103C900004D11B02160E3343120208351C0B04D14B
:103CA0001B01160F3343120104359C0B04D19B00FA
:103CB000960F334392000235DC0B02D192185B4120
:103CC00001351C00971864410134464F7C66464C10
:103CD0003C660E0CFFE7FFE7FFE7C0463C6F66431C
:103CE000360C7703BE4697B27743C01B00D201392A
:103CF000C01B00D201399FB27743C91BC91B170CE7
:103D000077437E04FF0B801BB941CE086643360C17
:103D10000C2D33DBB644120B1F053A431B0B97B235
:103D20007743C01B00D201399FB27743C91B170CE0
:103D300077433E043F0C801BB941860D8F023E4302
:103D4000664329277F1BFE400C3D7746AF40BF19D5
:103D500030BCA2B2ABB272437343801A9941220CB9
:103D60007243130C1204801A994102000B000137B0
:103D7000001BA941F9D2781E0021F0BD0C277F1B42
:103D8000FE4077467F0BAF40FF19E0E700245D1C43
:103D900007D0144F7D663966FFE7FFE7FFE7FFE7CF
:103DA0003C6F95B29EB265436643401BB141150C12
:103DB0001E0C6543664336042F0C3E432D04401B06
:103DC000B141994204D202000B0020000021F0BD55
:103DD00001D19042F7D3801A994101349942F2D32C
:103DE000F6E70000000000D0FFFFFFFF4840414021
:103DF000484018B41B4B5B68FC46019308BD04DFC8
:103E0000C740001018B4174B1B68FC46019308BD4F
:103E100000DFD14000109446134A926F920809D2F5
:103E2000624618B40F4BDB68FC46019308BD0CDFFB
:103E3000894300100C4AF0B5146E556E576F166F1B
:103E40006246FFF7EEFF084A146655665767166725
:103E5000F0BD18B4034B9B68FC46019308BD08DF16
:103E60002D420010D8780120000000D0FFB550404E
:103E70004240504059404B40594000E0FFB5154F7B
:103E80004C00640D03D0BC4204D10C0314D80020B4
:103E9000090D09055C00640D03D0BC4204D11C036C
:103EA0000AD800221B0D1B0501264B4009D44B40AC
:103EB00003D58B4200D18242FFBD9942FCD1904292
:103EC000FFBD0B43DB1803431343F5D0C943491827
:103ED000FFBD0000FF07000000B5FFF7CFFF8041E6
:103EE00000BDC04600B5FFF7C9FF01D9002000BDE5
:103EF000012000BD00B5FFF7B9FF01D9002000BDCA
:103F0000012000BD00B5FFF7B1FF804100BD0120D9
:103F100040054A00121804D85A00121801D800208F
:103F200070470120704700207047000000210028E2
:103F300005D17047C1174840401AFAD0C90713B5D8
:103F4000064B1B6898470CBC441CA2401005120B82
:103F50000349091B09051943114310BDD8790120F4
:103F60001F04000010B54C00620D8023D218DB0046
:103F7000D21A5B057E2A10DD9E3A13DACC170903AC
:103F8000490819435242D140640001341532202AB5
:103F900005DAD0400843604310BD002010BD08463C
:103FA000604310BDC80FC018013810BD18B4044BD1
:103FB0005B6AFC46019308BD24DF39450010000010
:103FC000D878012070B513231C78012C14D0012C53
:103FD00014DC022C02DC1F4A1F4B9A641F48FFF7B7
:103FE00079FC1F4B186070BD99001A481A4A885016
:103FF00001331F2BF8D9EAE70023FAE71948FFF746
:1040000071FC05001848FFF76DFC023803789B002F
:104010007F2B19DD802229000F4800F0ABFB022C1A
:10402000D7D1124B1A88B5231B029A4209D1104BE3
:104030001A88104B9A4204D10F4B1A880F4B9A42A0
:10404000C7D00020FEF77AFB0D4B0E4A32210E48F6
:10405000FEF7DAFA8D400010D87801204C330000CA
:10406000D879012053440000534600005438000022
:10407000D8380000494600009C380000594600002E
:10408000D8820310808303103883031007B560467D
:10409000002800D100BE01880A0A0230DF2AFAD1C6
:1040A000C9B2820804D3028840880004104300E0AB
:1040B0000068024A5050039007BD0000D8780120E4
:1040C0000FB403BC0CBCF0B50124E407634000E06E
:1040D000F0B50C0DCF0F661E3605891B640503D3A2
:1040E000C943404200D30131640D03D0661CF60A77
:1040F00007D0E41B00207F00791C89078912803CCF
:1041000024031D0DDF0F6E1E36059B1B6D0503D3AB
:10411000DB43524200D301336D0D03D06E1CF60A0F
:1041200007D0ED1B00227F007B1C9B079B12803D6C
:104130002D032F1B661B58D4A446202E46DA2037A9
:104140001400BC401D00BD40F24033412A4380189A
:104150005941CB0F05D0C943C043002264425041AE
:10416000514162464D0D28D10D0D07D100281FD0B9
:10417000241940414941013A0D0DF9D0640006D39C
:10418000013000D30131002C01D140084000013A38
:104190000BD4941CE40A04D112051144DB07194422
:1041A000F0BDD907204B194300E0D9070020F0BD2E
:1041B0000029DDD1002CDBD1F0BD0132C60740085B
:1041C000CD0728434908002EE1D0D9E73C2E29DA53
:1041D000203E40371400BC4000D00124F24014437C
:1041E0001A00BB401C43D317ACE7AC46202F08DABB
:1041F00020360400B4400D00B540F8403941284352
:10420000A5E73C2F0CDA203F40360400B44000D034
:104210000124F84004430800B1400C43C117EAE709
:1042200010001900002494E70000F07FF0B50C0D99
:10423000661E3605891BE60A6405640D02D0651CFE
:10424000ED0A04D0002001210905803C2403A44686
:104250001C0D671E3F05DB1BE70A6405640D02D0D9
:10426000651CED0A04D0002201231B05803C2403B9
:104270007740644497B484B296B27443070C7E438B
:10428000150C6F4380B26843361802D30120000436
:104290003F183004350C00197D41844688B29AB22B
:1042A00050430C0C62431F0C7C438EB27E43921928
:1042B00002D301263604A4191604170C36186741D8
:1042C00001BC81B29AB25143040C62431B0C5C43A3
:1042D00080B25843121802D301200004241810049D
:1042E000130C401863412D185E410020474106BC65
:1042F00088B293B258430C0C6343120C544389B2F6
:1043000051435B1802D301210904641819041A0CE3
:10431000091862416D1856410020474118BCF90246
:10432000720D1143F0026A0D1043ED020A0D03D124
:104330006D1940414941013B124E9B1B7600B3422F
:104340000ED26D0007D30130002671416646354319
:1043500001D1400840001B05C918E4072144F0BD05
:104360000BDA013306D1013004D101314F0D01D0F8
:104370004908F2E7E1070020F0BD013631050020D1
:10438000EBE70000FF030000F0B51C0D671E3F05C2
:10439000DB1BE70A6405640D02D0661CF60A04D034
:1043A000002201231B05803C2403D0252D06002676
:1043B000F6432E661E096E66CE0FF619B446490006
:1043C0004F0D02D07E1CF60A03D000200021403F92
:1043D0003F033E1BB600B444013F7F05C91B49089B
:1043E0002E6F013676089C02950D25437543ED131B
:1043F0007543AD1301356D10F603761B0CB4CC027A
:10440000450D2C43A2B2B3B25A43270C7B43350C63
:104410006F43A4B26C431B1902D3012424043F1937
:104420001C041D0CA4187D4124196D41009A91B201
:10443000ACB26143170C7C432B0C5F4392B25A43DE
:10444000A41802D301221204BF182204230C52180C
:104450007B41019C6C431B19520ED9010A43440154
:10446000A01A81B2B2B2514303145A43360C7343BB
:1044700087B27743D617D21900277E4136049B199D
:104480001704160C7F185E417316ED18F301002611
:1044900080337541A90F06D16400690AE8055B0AFB
:1044A000184309D22FE00422944480337541A90AAD
:1044B000A8059B0A184326D3404149412404009A89
:1044C000019B0D005543641B4343E41A95B286B229
:1044D0007543170C7E43030C5F4392B25A43B618E0
:1044E00002D301221204BF183204330C52197B414B
:1044F00052429C41002C02D400220130514140081C
:10450000CA071043490802B06246D7079210084B09
:10451000D218084B9A4203D212058918C919F0BD66
:104520000020002A01DC3900F0BD01331905F5E750
:10453000FD030000FE070000002200B5203200F05D
:1045400004F8080000BD000000220B150AD410B5C5
:10455000944600F031F81414013400DA0021CB172E
:10456000144C20470020002170476244343A0CD498
:104570000C2A07DA04009140904052422032D44085
:10458000214310BDD843D94310BD203207D40C4677
:104590009440524220321141D040204310BD0800C7
:1045A000C917203203D452422032104110BD1800E6
:1045B000190010BD6B4500100A0DCC0F531E1B05D2
:1045C000C91A520503D3C943404200D30131520DE9
:1045D00003D0531CDB0A07D0121B00206400611CAF
:1045E00089078912803A1203014BD21A70470000E2
:1045F000FF03000051434343C9188C46110C83B29A
:104600004B4310B4040C614392B280B250436243F6
:104610001C041B0C001910BC59411304120CC018C7
:10462000514161447047000070B513231D782A483A
:10463000FFF758F90400012D11D0012D09DDA31E4B
:104640001B789B007F2B40DD80222100234800F057
:1046500091F82348FFF73EF9224B186070BD5422B1
:1046600001001E4800F086F81F4B1A881F4B9A4223
:104670001CD1A7239B011A881D4B9A4216D11D4BB2
:104680001A881D4B9A4211D11C4B1A8894239B0106
:104690009A420BD11A4B1A881A4B9A4206D11A4BDE
:1046A0001A681A4B9A4201D1152307E01848FEF701
:1046B00045F899001748094A885001331F2BF8D94B
:1046C000144A064B1A62DA61B7E7134B134A4221C8
:1046D0001348FDF799FFC04653460000DC790120DE
:1046E0004C330000D8790120EE290000C40F0000EF
:1046F000C20D0000962B0000C0B50000182B000072
:10470000CC2A000010B50000FC2C000051ED87649D
:10471000D47F0310254700109483031010840310E6
:10472000C883031007B56046002800D100BE018889
:104730000A0A0230DF2AFAD1C9B2820804D30288F9
:1047400040880004104300E00068024A5050039083
:1047500007BD0000DC79012001480421014B184706
:10476000B00B0020F5380010014B1B681847000003
:10477000B00B0020014B5B6818470000B00B002015
:1047800010B50300080011001B68984710BD000019
:10479000F8B507000D001600437D002B02D0002461
:1047A00000200CE003681100280098472DE03B7DB5
:1047B00010E0022115483B689847601C0134B44260
:1047C00014DA002CF3DD2B19013B1B780D3B5A4208
:1047D0005341DBB22A5D0A2AF0D1002BEED1A04270
:1047E000E7DA211A28183B689847E2E7B04203DA73
:1047F000311A28183B689847002E06DDAD19013D97
:104800002B780D3B5A4253413B75F8BDA0840310F1
:1048100070B505000368002B16D00C4B1C6805E032
:10482000290004C92000FFF7B3FF2469002C09D038
:104830002368002BF9D0064B1B68002BF0D0A34255
:10484000F3D1EDE700232B6070BDC046B8740120A2
:10485000C074012070B505000C000B68802B05D0DA
:1048600021684B1C23606418257170BD0800FFF798
:10487000CFFFF5E710B5FDF769F902000B1E0BDB62
:104880000D48002112184B41002B0BDB002B0DDBD8
:104890000A4832F0A5FD10BD094B0A4A3F210A48DB
:1048A000FDF7B2FE01225242084BEFE7044B054AE6
:1048B0003F210548FDF7A8FE40420F00A00C002054
:1048C000307403108884031084740310FFFFFF7F8B
:1048D00010B5024832F04CFD10BDC046A00C0020BF
:1048E000F0B5CE46474680B583B006000D00904631
:1048F0001C00FFF7BFFF81466B1C05D0002C08D0C1
:10490000194F1A4B1C6807E0300032F0F7FC050025
:10491000F4E7174FF5E72469002C17D02368002B24
:10492000F9D0144B1B68002B01D0A342F3D12A000D
:1049300031002000B8474346002BECD06B46D91D10
:104940000A230B7001222000B847E4E74B46002BF6
:1049500007D16B1E9D41E8B203B0C0BCB946B0465A
:10496000F0BDFFF7B5FFF4E781470010B8740120F0
:1049700091470010C0740120094A01E010331A0069
:104980001368002B08D08342F8D1002907D10369AE
:1049900013600023036102E0002900D0106070471B
:1049A000B874012010B5064B1C6801E098472469D3
:1049B000002C03D06368002BF8D1F8E710BDC04687
:1049C000B874012070B5050032F098FC0400002393
:1049D000012201002800FFF783FFFFF7E3FF20001B
:1049E00070BD000070B5A2B004000E00FFF742FFDA
:1049F0000500002301933300220001A90848FEF7B7
:104A000045FF040001A8FFF703FFFFF7CBFF002DD0
:104A100002D1200022B070BDFFF75AFFF9E7C0466F
:104A2000554800100FB400B583B004A901C9019125
:104A3000FFF7D8FF03B008BC04B01847F0B583B047
:104A400005000E0000240FE06B46D91D0D230B70EE
:104A50000020002816D193699B06FCD40B781360C4
:104A600001300131F5E70134B44219DA0D4B1A680F
:104A70002F5D0D4BD31859424B415B000B495B5ED8
:104A8000BB42E1D06B46D91D0F7000200028EAD14F
:104A900093699B06FCD40B78136001300131F5E774
:104AA00003B0F0BDF87A01200080FCBFF07A01204D
:104AB000F0B583B006000F00002504E06B46073315
:104AC0001B782B702500BD4215DA174B1A689369C5
:104AD0001024210019401C420DD16C1C75196B4625
:104AE000D81D0029EAD19369DB06FCD41368037052
:104AF00001310130F5E70D4B1B68002B0CD00A4B40
:104B00001A685023936311003431536B38221A40D2
:104B100080235B010B431A60002D02D0280003B0F4
:104B2000F0BD033DFAE7C046F87A01204474012045
:104B300010B5064B1B68002B06D0054A12680021F1
:104B40009163044A1068984710BDC0464474012020
:104B5000F87A01204874012070B504000E001C4B47
:104B60001B681C4A98184242504114300500002C22
:104B700003D0194A1268002A06D0002C19D0164B0F
:104B80001C60164B1E6070BD1549FBF707FF012125
:104B90002800FBF7F3FE0E4B1A68502393631100B5
:104BA0003431536B38221A4080235B010B431A6067
:104BB000E5E7094A1268002AE1D000229A63002141
:104BC0002800FBF7DBFE06492800FCF72BF8D6E7A8
:104BD000F87A01200080FCBF447401204874012051
:104BE000314B001070B50D001C000D4B1860002AF1
:104BF0000BDA002C0EDA0A4B18682900FDF704FBCB
:104C000001210848FFF7B8FE70BD02211000FBF734
:104C10008DFDEEE702212000FBF788FDEBE7C046A3
:104C2000F87A0120C00B002002007F201040D2093A
:104C3000400080184001014BC0187047C474012027
:104C400010B5038B3F333F229343022915D0124CFA
:104C50002268C260D31823609C0610D10F4C6240BA
:104C6000634080246401A3420FD889061143802346
:104C70001B0619434368196010BD5B00E7E7084B4A
:104C8000084A54210848FDF7BFFC084B054A562145
:104C90000548FDF7B9FCC046C4780120000010505B
:104CA000A4840310AC850310D4840310288503105A
:104CB000F8B505000E001400FFF7B6FF7F232B4068
:104CC000EF0985707A427A4142700022C2700683F1
:104CD000C476012F0DD0DA0012498C4662448260FE
:104CE000826800211160002B09D143600E4BC36024
:104CF000F8BDDA000D498C4662448260F0E7012F6E
:104D000009D0013BDB000A4A94466344436021001A
:104D1000FFF796FFECE7013BDB00064A944663444D
:104D20004360F4E7840010500001105080001050E0
:104D30000C0010500800105070B50C001500FFF763
:104D400073FF2A00210000F0BFF870BD10B50028E5
:104D500004D101210520FBF711FE10BDD521034B25
:104D6000034A49000348FDF74FFCC0467085031015
:104D70009C850310D4840310024B80225202DA6413
:104D80007047C0460020115070B5041E26D100F0B7
:104D900075F8164D0C23AB67FF2215490520FBF76C
:104DA00027FE402200211348FFF7DEFC00224021AD
:104DB0000020FFF77DFF002240218020FFF778FFD1
:104DC00032F006FB01232B6480239B05EB649023C8
:104DD000094AEA502000FFF7CFFF70BD8621074B3C
:104DE000074AFF310748FDF70FFCC046000011508D
:104DF00061030020C474012010D0010070850310ED
:104E0000C0850310D484031010B50C0000280DD108
:104E1000097963791B020B435B05590DE278920710
:104E2000920FA078FFF744FF012010BDFC21034B37
:104E3000034AFF310348FDF7E7FBC04670850310C6
:104E40008C850310D484031010B5040008001100F1
:104E50001A00002C03D1FFF76FFF012010BD034B98
:104E6000034A04490448FDF7CFFBC0467085031090
:104E70007C8503100A020000D484031010B580233F
:104E80005B040C4A13600C4A13600C4B9A68802335
:104E90005B049343F9D10A4C9C2200212000FFF7C8
:104EA00063FC8022520100210648FFF75DFC0923C4
:104EB000636710BD00E0004000F0004000C000400B
:104EC000000011500000105070B504000D001600D5
:104ED000837E002B17D1A6820023E3820133A376C1
:104EE0002561200032F03CFA002804D0094A9023C2
:104EF00080218902D150200032F052FA002805D0DA
:104F00000123237770BD32F07BFAE4E7200032F012
:104F10006FFAF7E700201150024B5878431E984172
:104F2000C0B2704718730120024B18784007C00FB9
:104F30007047C04618730120034B1878FF38431E92
:104F40009841C0B27047C046FC0B002070B5040009
:104F5000FFF7F2FF061E01D0300070BD5322002182
:104F60002348FFF701FC234D2800FBF7BFFF224B2E
:104F70001D60224D28001430FBF7DEFF280000F0F2
:104F8000AAFC1F4B1D601F4B002B04D01E4800E0E5
:104F900000BF1E4B186000250BE06B005B19DA00A8
:104FA0001A4B1B689B18002BD6D01B6898470135FD
:104FB000EDB2154B1B78AB4210D3124A002A0BD02E
:104FC000AB42EAD8EB1ADBB2002BC5D15A00D2189B
:104FD000D2000F4B9B18E6E72B00F5E70D4B1C703A
:104FE0002000FFF7D1FE2000FFF7B0FE0126B3E757
:104FF00018730120D07201206C730120E00B002097
:1050000070730120000000002C7B01208C720120B5
:10501000C4860310FC0B002070B50C00094B1D78F2
:105020008B7870221A4201D0002070BD064B99780F
:10503000200000F0C1FB0028F7D021002800FFF776
:10504000E3FEF2E7FC0B002018730120F8B5CE4612
:10505000474680B581460C0017001E00089B984605
:10506000002504E0099A13702378E4180135AF4253
:1050700014DD6378052B16D1E1788907890FB142D9
:1050800013D121004846FFF7C7FF002807D0A378B7
:10509000DA09012AE6D042461370E5E70120C0BCD8
:1050A000B946B046F8BD0020F9E70020F7E7000058
:1050B00010B57F200840C90940004018303004492D
:1050C00008180330034B196800F04DFB10BDC046B3
:1050D000187301206C730120F8B5CE46474680B5A1
:1050E000194800787F250D40CE096F00174CE41950
:1050F000A4193034E478E40704D50020C0BCB946D4
:10510000B046F8BD114CE419A4193027B946A144A2
:105110004C46E4780127BC4667463C4327004C4692
:10512000E770FFF791FE0028E8D16D00074B5D198D
:10513000AE193036F37801229343F370F3780332DB
:105140009343F370DAE7C046FC0B0020187301208C
:105150007F220A40CB09520003498918C91830310F
:10516000C878C007C00F704718730120F8B5050054
:10517000124B9F89DE89B91B89B20B1C402900D9CB
:1051800040239CB20D4B1B785BB2002B08DB002147
:10519000B74211D00A4A23002800FFF79DFFF8BD4F
:1051A000B74201D18021F3E7044B996822000448FB
:1051B000FFF7E0FA8021EBE70022ECE79072012094
:1051C000D872012070B506000C000B4D0822280093
:1051D000FFF7D0FA0023AB60EB81AB810023E356ED
:1051E000002B06DB8021002300223000FFF774FF34
:1051F00070BD0021F7E7C04690720120F0B5C646A9
:1052000000B580460C0016001D00184F082238001B
:10521000FFF7B0FABE600023FB81A379E1790902B0
:1052200019430B1CA94200D92B1C99B20F4A938138
:10523000A279E3791B02134309D0002901D0002E83
:1052400012D04046FFF792FF80BCB846F0BD002365
:10525000E356002B06DB8021002300224046FFF7A7
:105260003BFFF1E70021F7E70020EDE79072012016
:1052700010B52C2343431148C0184478FFF74CFE67
:10528000002806D10023002B13D0002C09D10020C8
:1052900010E0FFF749FE002801D10123F3E70023C6
:1052A000F1E721000020FFF753FF002803D1013070
:1052B00000E0002010BD0020FCE7C046A4720120E1
:1052C000F8B506000F0015001C002C2242431C4BB1
:1052D0009B1859780020FFF7EBFE002820D0002F04
:1052E0001FD0231C0F2C00D90F239CB214482C2351
:1052F0007343C21817720833C01801302200290006
:10530000FFF738FA0134A4B20D4B2C20464332008B
:1053100008329A189B19597823000020FFF7DCFE09
:10532000F8BD231C102C00D910239CB22C207043F4
:105330000830034B181822002900FFF71BFAE3E797
:10534000A472012030B583B004000D0019006B4633
:105350001A7000236A46537000290CD006226B464F
:10536000981CFFF707FA08236A4629002000FFF778
:10537000A7FF03B030BD062200216B46981CFFF743
:10538000F3F9F0E710B52C2200210248FFF7ECF901
:1053900010BDC046A472012010B50020FFF7F2FF37
:1053A00010BD0000F0B583B005000E004B79032B53
:1053B00049D10B79DC00E41AA4B21234A4B29442AD
:1053C00045D80023002B09D00027002F41D0317889
:1053D00071184B78212B0ED0002435E02C21594335
:1053E0001E4A52185278002A02D00133DBB2E9E794
:1053F0001A4F7F18E9E7B9620B78C91832797B1C1C
:105400000193BB1C009303232800FFF71FFE002815
:1054100021D0B379012B13D001233B71B3783B70BA
:10542000BA6AD179137A1B020B43FB80B978002941
:105430000AD03A00183210232800FFF74DFE03E08F
:10544000F379FB70E8E70024200003B0F0BD0024EE
:10545000FAE70024F8E70024F6E7C046A47201202A
:10546000F0B5C64600B582B00600150012781F23BD
:105470001340012B00D015E128790024002C0DD019
:10548000FF24002C00D012E12700602318001040F8
:10549000134236D101290AD0012004E12C236343B1
:1054A000894FDB5D9842ECD00134E4B2E6E7EA785C
:1054B0006B78062B06D0062B00D0FCE0222A11D0F8
:1054C0000020F0E0212AF6D1263363437E4FFF18F7
:1054D000BA6A002A00D1ECE0137829003000FFF707
:1054E0008DFEE0E02000FBF71DF902002C237B433A
:1054F000754FFF18FB8829003000FFF77FFE012061
:10550000D1E0202800D0D8E06B780B2B00D9D6E072
:105510009B006E4AD3589F46012901D00120C2E06A
:10552000EA78A9782C235F430837674BDF19A879FD
:10553000EB791B020343181C102B00D9102080B2FA
:10554000002909D0012B16D97B1C9C4639700138E3
:1055500080B20123984602E0BC46002398460090A2
:1055600063462000FAF7F6FF030043449BB2002B8A
:1055700005D1002097E0BC4600239846EFE73A00AB
:1055800029003000FFF73AFE01208CE0012903D00A
:10559000032914D0012086E0AA79EB791B0213437A
:1055A000102B01D900207EE02C226243183246499C
:1055B0008A1829003000FFF721FE012073E0EA7805
:1055C000A9782C23634318333F48C318AE79E87990
:1055D00000023043051C102800D91025ADB2002967
:1055E00004D0012802D91878884205D000952000FF
:1055F000FAF758FF012056E00133013DADB2F5E75F
:10560000012901D001204EE0E9782C2363432E4F7D
:10561000FF1879712E4B002B04D0200000E000BF52
:10562000002840D029003000FFF7CCFD01203AE0EF
:10563000012901D0012036E02C225743224AD219F9
:105640000532012329003000FFF7D8FD01202AE0B0
:10565000012901D0012026E02C2257431A4AD219F1
:105660000432012329003000FFF7C8FD01201AE0B1
:10567000012903D0032907D0012014E029003000BC
:10568000FFF7A0FD01200EE0A9782C2363430E4F05
:10569000FF1839710F4B002B13D0200000E000BF22
:1056A000012000E0002002B080BCB846F0BD002020
:1056B000F9E70020F7E70020F5E70020F3E70020F6
:1056C000F1E70120EFE7C046A4720120DC86031059
:1056D000000000000000000070B582B005001D4C05
:1056E000002000280AD000282FD162788A4212D0E8
:1056F000A2788A4219D0012002B070BD2C24444304
:10570000144A1419A2788A42EDD062788A42EAD00B
:105710000130C0B2E5E7104A002A18D02100083154
:105720009AB2FAF709FF0120E6E7260018369BB285
:105730000093330000220021FAF7B4FEA178102371
:1057400032002800FFF7C8FCD6E70020D4E701208C
:10575000D2E7C046A47201203905001010B5002020
:10576000FFF7F4FB10BD70B504000D000378DB07F4
:10577000DE0F002B1CD103785B071AD401214942AC
:10578000280031F015FE2378DB0704D423785B076B
:105790000CD5002600E00026002E03D0237804223A
:1057A00013432370280031F0E3FD02E00126F3E704
:1057B0000026300070BD000010B5047943791B024B
:1057C00023435B055B0DC2789207920F022A0FD02C
:1057D000032A19D0012A01D0002010BD022904D0CB
:1057E000124A9A421AD30120F7E78022D200F8E742
:1057F000022903D0402B15D80120EEE78022920029
:1058000093420DD10120E8E7022904D040229A42B8
:105810000AD30120E1E78022D200F8E70020DCE78C
:105820000020DAE70020D8E70020D6E7FF030000D9
:1058300003008A1890B2814202D85A00904203DBDA
:105840005B009BB2C01A80B27047818803899BB20B
:10585000428992B2934206D39B1A9BB200208B429C
:105860004041C0B270479B1A9BB24A009B189BB242
:10587000F4E7F8B504000E00C068002803D0012149
:10588000494231F095FD2589ADB22000FFF7DDFFDB
:10589000002802D0E779FF0916D0A2882B0001E08A
:1058A0009B1A9BB29A42FBD9E2885204520C534392
:1058B0002168C8183100FEF75DFFA0880122290089
:1058C000FFF7B6FF20810127E068002801D031F002
:1058D0004FFD3800F8BD10B50400C068002803D0A3
:1058E0000121494231F064FD2069002803D00121E3
:1058F000494231F05DFD002363812381E068002887
:1059000001D031F035FD2069002801D031F030FDA3
:10591000012010BD10B51920FAF720FFD0231B0677
:10592000802292045A620548054B1860E121012348
:1059300000224902FFF756F910BDC046004003405F
:10594000F47A0120002805D0D0231B06802292047F
:105950005A617047D0231B06802292049A61F8E7AF
:1059600010B531F055FD01235840C0B210BDF0B55F
:10597000D646474680B583B0824688460620FCF767
:1059800085FD0700022400E02C00FE2C1CD80197A6
:105990000026A51C2802424600230021FEF72AFE0D
:1059A000002903D1B142EFD1B842EDD980256D0075
:1059B000012D0CD96E1E210071433800FDF7DEFF6A
:1059C000404504D83500F3E780256D00F0E75346E5
:1059D0001C616B1E1B02524612685340FF221202CA
:1059E0001340802040015246104303602900614368
:1059F0003800FDF7C3FF03B0C0BCBA46B046F0BDE7
:105A000010B50400144B984222D080229202134B0E
:105A10001A60134B1A60134B9B6810009843FAD11D
:105A20002000FFF7A4FF226807235340CF221A402B
:105A300080235B0123431A602200243280239B01D0
:105A40001A430321116004341C430223236010BD58
:105A500080225202DBE7C04600C0034000E0004065
:105A600000F0004000C000400A38C3B20020042209
:105A70009A424041C0B2704710B5C9B2002208F046
:105A8000E7FC10BD10B509B204F04AFB10BD10B51B
:105A900009B204F02DFB10BD70B50500006808F0D8
:105AA00049FD040000222721006900F0FAFB0022D2
:105AB0002821606900F0F5FB6069002803D02823E5
:105AC000E35C9B070FD4002262612821635C012004
:105AD00083436354A2612868383108F0B5F820691F
