:020000041000EA
:1000000000B5324B212058609868022188439860DF
:10001000D860186158612E4B002199600221596106
:100020000121F02299502B49196001219960352056
:1000300000F044F80222904214D00621196600F024
:1000400034F8196E01211966002018661A6600F04E
:100050002CF8196E196E196E052000F02FF8012189
:100060000842F9D1002199601B49196000215960AB
:100070001A491B48016001219960EB211966A021F2
:10008000196600F012F800219960164914480160C1
:100090000121996001BC002800D000471248134993
:1000A000086003C880F30888084703B5996A0420EC
:1000B0000142FBD001200142F8D103BD02B5186610
:1000C0001866FFF7F2FF186E186E02BD00000240BE
:1000D000000000180000070000035F00212200005C
:1000E000F4000018222000A00001001008ED00E03C
:1000F00000000000000000000000000074B24E7A12
:1001000000200420F7010010C3010010C5010010F9
:10011000C1010010C1010010C1010010C101001097
:10012000C1010010C1010010C1010010C701001081
:10013000C1010010C1010010C9010010CB01001065
:10014000CD010010CD010010CD010010CD01001037
:10015000CD010010CD010010CD010010CD01001027
:10016000CD010010CD010010CD010010CD01001017
:10017000CD010010CD010010CD010010CD01001007
:10018000CD010010CD010010CD010010CD010010F7
:10019000CD010010CD010010CD010010CD010010E7
:1001A000CD010010CD010010CD010010CD010010D7
:1001B000CD010010CD010010CD010010CD010010C7
:1001C00000BE00BE00BE00BE00BE00BEEFF3058054
:1001D000103800BEF2EB887110C0031034C0031059
:1001E0003402001090A31AE700201F49086006C8D7
:1001F00081F3088810471D48006800282FD10DA4FE
:100200000ECC002902D000F012F8F9E71849194A7B
:10021000002000E001C19142FCD1174988471749ED
:1002200088471749884700BEFDE701C901C29A42C5
:10023000FBD3704734C00310C0000020040400202A
:1002400078C30310000004200000042078C30310CA
:10025000001004200010042000000000704709482E
:1002600003F018F90047000008ED00E0000000D09E
:1002700008040020C06C012005220010610300105A
:10028000C12100105756000006005250ABB3605316
:10029000FC70031006005250861C03020C71031000
:1002A000060052505422A29D1871031005005250AE
:1002B000DE65F46878C30310F8B5C0460448054B02
:1002C00010B5834203D0044B002B00D0984710BDDB
:1002D0000404002004040020000000000648074930
:1002E000091A8B10C90FC91810B5491003D0044B57
:1002F000002B00D0984710BD040400200404002007
:100300000000000010B5074C2378002B09D1FFF73F
:10031000D5FF054B002B02D0044800E000BF0123AD
:10032000237010BD08050020000000006862031063
:10033000054B10B5002B03D00449054800E000BF71
:10034000FFF7CCFF10BDC046000000000C050020E8
:100350006862031010B512F09DFD04F047FB10BD5C
:1003600010B504F041FA00F0A5F800F0CFF8002035
:1003700000F0E6F807F046FD00F0F8F8FFF7EAFFB6
:100380000022FC21C9000CF054FEFFF7E3FF17F038
:1003900008F90400094917F009FEFFF7DBFF002206
:1003A000012149420CF06BFF0023002209212000AB
:1003B00008F005FF15F0DEFDFCE7C046686203109B
:1003C00000B583B06B46D91D0870D0231B064022B0
:1003D0009A613F3A024835F02FFF03B000BDC04696
:1003E00000C0034000B583B06B46D91D0870D02310
:1003F0001B0640225A613F3A024835F01DFF03B008
:1004000000BDC04600C00340F8B507000D0016004F
:100410001C002A20FFF7D4FF0020FFF7E3FF38007D
:10042000FFF7E0FF0020FFF7DDFF3000FFF7DAFF06
:100430002B20FFF7C5FF0020FFF7D4FF2800FFF7B0
:10044000D1FF0020FFF7CEFF2000FFF7CBFF2C20CD
:10045000FFF7B6FFF8BDF8B5CE46474680B58146F2
:100460000F0016008B790A7989783878FFF7CCFF6E
:100470000222BB5E98460FE03488200AFFF7B2FFE5
:10048000E0B2FFF7AFFF023601350422BB5EAB429C
:10049000F2DA01239C46E0440622BB5E434502DBC0
:1004A0000023FD5EF1E7484612F083FEC0BCB9466A
:1004B000B046F8BD70B51349134804F0F7F90121AF
:1004C000122000F079F80121132000F075F80520C2
:1004D00000F08AF8D024240620236362112000F063
:1004E00083F88025AD026562062000F07DF8402388
:1004F0006362A561642001F055F86561642001F034
:1005000051F870BD20A1070000C0034010B50120C4
:10051000FFF756FF962001F045F81120FFF750FF36
:10052000962001F03FF82920FFF74AFF962001F0BE
:1005300039F83A20FFF744FF0520FFF753FF10BDBD
:1005400070B505009F237F2200210020FFF75CFF8C
:10055000002406E0280AFFF745FFE8B2FFF742FF54
:100560000134A023DB019C42F4DB70BD70B5A023F5
:100570000C4DDB0100220C49280012F0D3FB0B4C80
:10058000200012F0A3FB0A4B6361802323802033F9
:100590006380E560200012F0D2FB064B186012F079
:1005A00073FC70BD6469012060C90020806901206E
:1005B000570400106069012010B58300084A944672
:1005C00063441C6840226240C024144080225201CF
:1005D00013431C60C000034B9C466044416010BD47
:1005E00004C001400040014010B501238340D022E7
:1005F0001206936293610521FFF7DEFF10BD000034
:10060000034B1B6802201840431E9841C0B270473C
:1006100000C00640EFF3108072B6034B1B68002B3E
:10062000FBD0BFF35F8F70472C0100D0BFF35F8F0B
:10063000024B00221A6080F3108870472C0100D012
:10064000F8B506000C001500FFF7E4FFE308F71803
:10065000F15C07222240012393400B4205D1DBB21B
:100660000B433B70FFF7E2FFF8BD2100280001F0CB
:1006700045FE0000002307E0054A9A189200BFF3E8
:100680005F8F0021116001331F2BF5D97047C046E1
:1006900040000034054A1078431CDBB21370172B5E
:1006A00002D9130010221A707047C0469802002029
:1006B000074B9B68103080001950BFF35F8FBFF36A
:1006C0005F8F044B0021196082F310887047C04689
:1006D00000ED00E0240100D010B5091A081F0A4BF4
:1006E0009C466144094A914208D8C30706D4401089
:1006F0004005400D064B184380B210BD054B064A1D
:10070000A321064801F060FDFC070000FE0F000079
:1007100000E0FFFF70620310C4640310A0620310C6
:1007200010B5091A04394C08090B08D14905490DBF
:10073000064A11430180064B2343438010BD054BFD
:10074000054AAB21054801F03FFDC04600F0FFFF20
:1007500000F8FFFFE062031098640310A06203102A
:1007600001238340034A10681840431E9841C0B2D9
:100770007047C04600E100E0002904D0034B186038
:10078000034B18607047034B1860FBE780E200E002
:1007900000E100E080E100E010B501238340180093
:1007A000FFF7EAFF10BD0000024B9B68103080008D
:1007B000C058704700ED00E070B504000D00EFF385
:1007C000108672B60C4B1B68002BFBD0BFF35F8FFB
:1007D0002000FFF7E9FF094B984201D0A84205D15C
:1007E000320029002000FFF763FF70BD044B054A6B
:1007F0008621054801F0E8FC240100D0CD0100105D
:10080000F0620310E0640310A0620310F0B5CE465E
:10081000474680B583B006000D00EFF3108872B62E
:10082000564B1B68002BFBD0BFF35F8F544B9A686D
:1008300034001034A300D758524B9F4207D0AF4228
:1008400000D198E00197504BFB1A2F2B09D9424653
:1008500039003000FFF72CFF03B0C0BCB946B046EA
:10086000F0BD3000FFF77CFF814600213000FFF72C
:1008700093FFBFF35F8FEFF30581002901D08C4216
:1008800011D10123019C9C430022A368AB4212D0EA
:100890000622A256002A0DDB53009B189B00220063
:1008A000394CE418F1E73621384B394AFF313948E1
:1008B00001F08AFC2200AB4256D106256557002D77
:1008C00038DB6B005B199A002F4B9B189A68A2606B
:1008D000DA79E27106229A56A2719B795BB2002BFB
:1008E0000FDA2D48A0806B005B199B00264AD318B5
:1008F0002A4A11789971157049463000FFF74CFF6C
:10090000A5E7201D6B005B199B001F4A9B181A1D51
:100910009B88D90A1C2907D15B055B150233590056
:100920005118FFF7D9FEDDE71D4B1E4AB1211948CA
:1009300001F04AFC002912D1002A0ED0FF23937146
:10094000194B9380154A1378A371184B0E49641AFA
:10095000644163431B0D1370CEE70A4FF2E7201D7D
:100960001349FFF7DDFEC7E76A21124B084AFF3142
:10097000084801F029FC034F69E7C046240100D074
:1009800000ED00E0CD0100109C0200200464031083
:10099000B0640310A062031001BD0000BB6C012015
:1009A000EC630310D064031001BDFFFFAAAA00008E
:1009B000D60200203864031070B5012101432E4B8C
:1009C000CB1A2F2B28D8EFF30583002B2BD0EFF376
:1009D000108C72B6294A1268002AFBD0BFF35F8FD1
:1009E000274A0400244D641B64416243120D54B233
:1009F000244A92689B00D2588A421BD00022032AC4
:100A000032D853009B189B001B49CB189B795BB2D3
:100A1000A3421FD00132F2E7C7211B4B1B4A4900FA
:100A20001B4801F0D1FB92211A4B184AFF3118489C
:100A300001F0CAFB134A92681749D150174B1A7834
:100A400082711C70BFF35F8F0C4B00221A608CF315
:100A5000108870BD0D005300991889006918FF2691
:100A60008E710F4A8A80E9E7D1210E4B074A49006F
:100A7000074801F0A9FBC0469C020020240100D0D9
:100A8000AAAA000000ED00E0406403107C6403109B
:100A9000A062031068640310CD010010BB6C01203C
:100AA00001BDFFFF746403100022044B02E00449FF
:100AB00002C30132072AFAD97047C04600E400E0B9
:100AC00080808080024B9C466144890001607047B1
:100AD0004000003410B50400FFF7DCFD01002000E9
:100AE000FFF7F0FFFF232371BFF35F8F10BD10B539
:100AF0000400FFF7CFFD01002000FFF7E3FFFF2315
:100B0000237100236371BFF35F8F10BD70B50500C3
:100B10000C00080000F0D6FE0949200000F016FE87
:100B2000FFF7B8FD074B9C466044800068602C7559
:100B3000D0231B061B786B75A400034BE55070BDDA
:100B4000510E001040000034586A01200A4B1A6808
:100B5000EFF3108172B61368002BFCD0BFF35F8FE8
:100B6000054B1B68BFF35F8F00221A6081F310886A
:100B700040BF0020002170476C6C012010B5002997
:100B800022D003681B7B99421ED8174B9C466144B8
:100B9000090183689C4661440C684968002A19D0A1
:100BA00003681B7B9A4215D883680F4884466244C9
:100BB00012019A1810685368020001208B4201D874
:100BC0000ED00020C0B210BD084B094A3C21094894
:100BD00001F0FAFA054B064A3C21064801F0F4FA06
:100BE000A242EFD8EDE7C046FFFFFF0F5C6603109F
:100BF000C06803102466031010B500291ED0037BC3
:100C000099421BD84B005B18033B0468A44663441D
:100C1000002919D0002A1DD0914221D0002A25D0C8
:100C2000047BA24222D804685000801803382018A0
:100C30008170197800291FD11A7010BD104B114A0C
:100C40006821114801F0C0FA104B114A6F310E486B
:100C500001F0BAFA0F4B0E4A70210B4801F0B4FABA
:100C60000D4B0B4A7121084801F0AEFA044B054ABE
:100C70006821054801F0A8FA41701A70DDE7C04606
:100C8000806603102C6903109C660310E86603104D
:100C900008690310F46603100067031070B50600BE
:100CA0000D001400002914D0002A14D08068736845
:100CB0009847002806D0220029003000FFF79CFF4B
:100CC000280007E02A0021003000FFF795FF2000F0
:100CD00000E0100070BD0800FCE70000F0B583B034
:100CE0000500009201930AAB1C780BAB1F78002C17
:100CF00026D003685A7B944207D10123002B19D1D7
:100D0000002C3BD1200003B0F0BD002C0CD01A7B8E
:100D1000944209D81A6863001B19033BD3189B78C7
:100D2000002BEBD00123E9E73E4B3F4A68213F48C7
:100D300001F04AFA3E4B3F4A67213F4801F044FA2E
:100D400003689C7B002CDBD012D01A7B94420FD816
:100D500062001219033A19688C46624451789973FB
:100D6000002900D1D9730023937053701370C7E723
:100D70002C4B2D4A68212D4801F026FA002C3AD040
:100D80002B681B7B9C4236D82C4BE3181B01AA68AE
:100D900094466344009A1A60019A5A60089A9A60CD
:100DA000099ADA602E68002C2BD030D0337B9C421D
:100DB0002DD863001B19033B32689446634400221C
:100DC0009A705A701A70717B22003000FFF766FF2C
:100DD0007073844200D095E7287D009A019B00F053
:100DE000FDFC061E01D0002F17D00C9B002B00D15C
:100DF00088E71E7086E7124B124A3C210E4801F02C
:100E0000E3F9114B114AA521084801F0DDF9054B22
:100E1000054A6821054801F0D7F92868210000F04B
:100E200015FFE2E7806603102C6903109C6603102F
:100E3000186703103869031024660310FFFFFF0FC3
:100E40005C660310C0680310206603101C69031061
:100E5000F0B5DE4657464E464546E0B58BB00990A4
:100E6000002308938200B54BD658370052E0B44BAC
:100E7000B44A3F21B44801F0A7F9B44BB44A3C212D
:100E8000B44801F0A1F9002901D1002869D100215D
:100E9000404600F0D1FEA04219D12A686B68069244
:100EA0000793AB689846EB689A464346002B14D0EC
:100EB000002C18D03B681B7B9C4214D8631EFA6838
:100EC000D35C08931B0218433861002015E0A24B45
:100ED000A24A8E219F4801F077F9A14B9F4A9221A7
:100EE0009C4801F071F9994B9E4A4121994801F0C3
:100EF0006BF900239A46984600207B68BFF35F8F0A
:100F000000221A6086F310884346002B32D1002855
:100F100000D10CE100F0FAFB02000B1EA7DB002061
:100F20000021069007917868EFF3108672B6016889
:100F30000029FCD0BFF35F8F396888464C7B002CBA
:100F4000D7D09AD0097B8C4297D8874965182D0154
:100F5000B9688C46654428686968801A99410029F7
:100F600091DD2A686B68099800F038FC00239A46E6
:100F70009846C2E7089B1B02234399465146180036
:100F8000C04705000E007A68EFF3108B72B6136845
:100F900059424B41D9B2002BF9D1BFF35F8F002EDC
:100FA0001EDB002E46DD3B69002B47D04B456DD143
:100FB00000F0ACFB02000B1E6EDB52197341002BDC
:100FC00070DB002B72DB002104910131039102944C
:100FD00051460191414600913800FFF77FFE4CE0F9
:100FE0003B69002BDDD04B4514D1069A079B521B61
:100FF000B341002B14DB002B16DB002104910131DF
:101000000391029451460191414600913800FFF747
:1010100065FE32E0554B514AA1214E4801F0D4F80B
:1010200001225242524BE6E7454B464A3F21464891
:1010300001F0CAF8002E01D1002DB4D13B68002C7C
:1010400050D05A7B944237D1012100294AD1DA7B12
:10105000002A4DD19A7B002A03D1DA7B002A5AD18B
:101060009C73DC73002C5CD03B681B7B9C4258D883
:10107000FA68013C135D0133135500233B617A6824
:10108000BFF35F8F13608BF3108843E7374B334A0E
:10109000A421304801F098F8294B2A4A3F212A48D8
:1010A00001F092F801225242314B8AE7244B254A43
:1010B0003F21254801F088F8002C0DD01A7B94427E
:1010C0000AD862001219033A18688446624492787A
:1010D000002ABAD00121B8E7264B274A68212748C1
:1010E00001F072F8264B274AF621244801F06CF8EB
:1010F000002A0AD0197B8A4207D851008A18033A7D
:1011000019688C4662445470A4E71A4B1A4A682145
:101110001A4801F059F81C4B1A4AFB21174801F0F4
:1011200053F80A4B0F4A41210A4801F04DF80BB021
:10113000F0BCBB46B246A946A046F0BD586A0120A5
:10114000506503108C6803106C6503105C66031017
:10115000C06803102466031040670310A4680310DE
:1011600058670310E4680310FFFFFF0F6467031064
:10117000FFFFFF7F806603102C6903109C6603103D
:10118000A0670310F8680310C467031010B50C4B78
:101190005B68002B04D00A210A48FFF793FC10BDBE
:1011A000074C2300084A1021206800F055FC03205A
:1011B00000F0A0FA03212000FFF7A8FCEBE7C046EF
:1011C000E40200206C6C01207D0B001010B5064B72
:1011D0005B68002B01D0044810BD044B044A5E211B
:1011E000044800F0F1FFC046E4020020D867031075
:1011F000CC68031024660310F0B5DE4657464E4611
:101200004546E0B58BB0804616001F00149B9A46F9
:10121000159B994616AB1B789B461F2302AA944642
:10122000634400221A702BE0002809D0424612685D
:10123000127B904204D8421E4146C9688A5C41E054
:10124000404B414A4121414800F0BEFF07984CE025
:10125000361BAF41002F07DB002F11DA3C4B3D4A14
:101260003F213D4800F0B0FF012676423B4FF3E7B7
:10127000374B384A3F21384800F0A6FF002F4FDB9C
:1012800043465A68EFF3108472B6136859424B41D3
:10129000D9B20791002BF8D1BFF35F8F1F3302AA99
:1012A0009446634404930023039302934B460193B3
:1012B0005346009332003B004046FFF70FFD031EEC
:1012C000B2D1020041464968BFF35F8F00250D602F
:1012D00084F31088002B29D01F2302A98C46634475
:1012E0001B78002BB2D112021043002B20D05B469A
:1012F000002B1DD04946D04704000D0003000B43CE
:101300001DD00029A4DB00F001FA06000F1EAFDBA0
:1013100036196F41002FB1DA012676420F4FADE743
:101320000B4B0C4A3F210C4800F04EFF012040427D
:101330000BB0F0BCBB46B246A946A046F0BD07982C
:10134000F6E7C0465C660310E468031024660310E9
:10135000506503108C6803106C650310FFFFFF7F5E
:10136000F8B504004268EFF3108572B6136858426E
:101370004341D8B2002BF9D1BFF35F8FCBB22268C3
:10138000567BB3421BD10120002848D020698842F7
:101390002BD0090AC9B2002B2ED02068007B8342D3
:1013A0002AD8581EE668305C88422BD0002063683B
:1013B000BFF35F8F00221A6085F31088F8BD002B01
:1013C0000DD0167BB3420AD85E00F618033E1768AC
:1013D000BC466644B678002ED6D00120D4E7134B25
:1013E000134A6821134800F0EFFE9521124B134A6F
:1013F0004900134800F0E8FE124B134A41211048FF
:1014000000F0E2FE1900100000F020FC0028CED110
:1014100032210E4B094AFF31094800F0D5FE2369FD
:101420008B42C4D100232361C1E7C046806603100C
:101430002C6903109C660310FC670310746803108A
:10144000246603105C660310E46803102068031030
:10145000F0B587B006000F00EFF30583002B1FD116
:1014600006246442E517A4197D418D4202D803D1B8
:10147000844201D900240025002D14DB0494059535
:1014800000F044F902000B1E13DBA41A9D41002D4D
:1014900017DC14D03000390000F044F907B0F0BD7B
:1014A000234800F02BFF234B234A3F21234800F021
:1014B0008BFE204B204A3F21204800F085FE002C67
:1014C000E8D0FFF783FE0023029301931C4B0093A7
:1014D000049A059BFFF790FE002818DADAE700234C
:1014E00000E00023002BD5D1164B1A68EFF31081D2
:1014F00072B61368002BFCD0BFF35F8F114B1B68D3
:10150000BFF35F8F00221A6081F3108820BF049917
:10151000059A0D4B5B6A9A42E3D80B48806A884271
:1015200003D29A42DBD00123DCE70123DAE7C0468D
:1015300024680310506503108C6803106C65031059
:101540004D0B00106C6C01200040054070B504008C
:101550000D0000F0DBF802000B1E0ADB2000290062
:101560008018594100290ADB00290CDBFFF770FFC6
:1015700070BD084B084A3F21084800F025FE0120B5
:1015800040420749F0E7034B034A3F21034800F07C
:101590001BFEC046506503108C6803106C65031079
:1015A000FFFFFF7F10B5FA2292000023002102F016
:1015B00001FEFFF7CBFF10BD70B584B005000C0035
:1015C000EFF30583002B1ED1FFF700FE00230293EB
:1015D0000193224B00932A002300FFF70DFE061E05
:1015E00023DD20BFFFF7F2FD3100FFF7B9FE1C4BF2
:1015F0005B6A9C422DD81A4A926AAA422CD29C421B
:1016000025D0012026E0164B5B6A994209D8144A7E
:10161000926A824207D2994201D001201AE000204A
:1016200018E0002016E0012014E00D4B5B6A9C429C
:1016300009D80B4A926AAA4207D29C4201D00120E3
:1016400008E0002006E0002004E0012002E0002085
:1016500000E0002004B070BD0120FBE74D0B00103E
:101660000040054070B5EFF305801038EFF3108CA3
:1016700072B61A4B1B68002BFBD0BFF35F8F0122A1
:101680001300834016494B6316490B6016490978CD
:101690000C00C440224214D0114A546A8200134DF7
:1016A0005259944206D38200114C125999430E4B61
:1016B000197007E00A4A031D9B00995899500022AF
:1016C00000E00022BFF35F8F044B002119608CF310
:1016D0001088002A00D0904770BDC046280100D075
:1016E000004005403C700540BC6C0120706C01203E
:1016F000D069012010B50100024A0348FEF7A0FF9F
:1017000010BDC04650690310BA6C0120044B5B6ADF
:10171000034A906A1900536A9942F9D17047C0464A
:1017200000400540084B5B6A01E0074B5B6A8B4257
:10173000FBD301E0044B5B6A8B4203D1024B9B6AF3
:101740008342F7D37047C0460040054070B504009F
:101750000D00EFF3108672B61B4B1B68002BFBD0FD
:10176000BFF35F8F002D1CD02000FFF71DF8174B33
:1017700083420BD019002000FFF71EF80121200042
:10178000FFF70AF80123A340114A1360A400114B8C
:10179000E550BFF35F8F0C4B00221A6086F3108870
:1017A00070BDA2000B4B0021D1500122A2400A497A
:1017B0000B7893430B7005492000FFF727F80021B1
:1017C0002000FEF7E9FFE4E7280100D065160010CD
:1017D00038600540D0690120BC6C0120F0B5DE46C0
:1017E00000B584B00400150001921E000293FFF7BB
:1017F0008DFF03958E4202D84ED185424CD9EFF32E
:10180000108B72B6274B1B68002BFBD0BFF35F8F8A
:10181000254A17780125A540EBB23B431370234BB3
:101820005D63221D92000199D150A20020490298C7
:1018300050501B6A2B4212D11C4B1B6C2B4208D000
:101840000020BFF35F8F174B00221A608BF31088C4
:1018500023E0184B184AC521184800F0B5FCFFF7E3
:1018600055FF8E4214D802D1039B834210D80E4BF1
:101870001B78BB420ED00D4B1D625D631F200440E0
:101880000123A3400E4A1360074B1F701E38D8E790
:101890000020D6E70120D4E7012004B080BCBB467D
:1018A000F0BDC046280100D0BC6C012000400540BE
:1018B000706C012074690310DC69031098690310CF
:1018C00080E200E0EFF3108C72B60B4B1B68002B2C
:1018D000FBD0BFF35F8F01238340084A136208499E
:1018E0000A789A430A70BFF35F8F034B00221A6095
:1018F0008CF310887047C046280100D00040054096
:10190000BC6C012010B500291ED0037B99421BD866
:101910004B005B18033B0468A4466344002919D0BC
:10192000002A1DD0914221D0002A25D0047BA2425A
:1019300022D8046850008018033820188170197864
:1019400000291FD11A7010BD104B114A682111488F
:1019500000F03AFC104B114A6F310E4800F034FC95
:101960000F4B0E4A70210B4800F02EFC0D4B0B4A1A
:101970007121084800F028FC044B054A68210548FD
:1019800000F022FC41701A70DDE7C046806603104B
:10199000E46A03109C660310E8660310D06A031023
:1019A000F46603100067031070B506000D00140004
:1019B000002914D0002A14D0806873689847002842
:1019C00006D0220029003000FFF79CFF280007E026
:1019D0002A0021003000FFF795FF200000E01000F2
:1019E00070BD0800FCE7000010B50023437301330D
:1019F0008373037BC3730123027B9A4214D9002BA8
:101A00000CD0027B934209D85A00D218033A0168DD
:101A10008C4662440133DBB25370EDE70B4B0C4A4A
:101A200068210C4800F0D0FB002A09D0924207D868
:101A3000016853009A18033A8A180023537010BDA6
:101A4000024B034A6821034800F0BEFB8066031086
:101A5000E46A03109C66031010B501734260836052
:101A6000FFF7C2FF10BD000070B50400081E00D1D2
:101A700070BD002934D0237B994231D84B005B18CC
:101A8000033B2268944663445A78002AF0D02DD054
:101A9000237B9A422AD853009B18033B21688C462B
:101AA00063445D7800215970002825D0237B98423B
:101AB00022D843001B18033B21688C466344002155
:101AC000597001002000FFF76FFF06002900200079
:101AD000FFF7CAFF020031002000FFF765FFC7E7EC
:101AE000084B094A6821094800F06EFB054B064A7D
:101AF0006821064800F068FB024B034A682103484E
:101B000000F062FB80660310E46A03109C66031019
:101B100070B505000C00160000292FD034D0037BCF
:101B2000994231D84B005B18033B026894466344EA
:101B30005A78002A2ED19A78002A31D11978FFF7E5
:101B400093FF0300002E0AD0EA7B002A2ED1AA7B45
:101B5000002A03D1EA7B002A3BD1AC73EC73002B43
:101B60003DD1002C4FD02B7B9C424CD82B68610080
:101B70000C19033C1C190023637070BD254B264AC9
:101B80003821264800F020FB254B264A68212648AC
:101B900000F01AFB254B204A3A21204800F014FBA4
:101BA000234B1D4A3B211D4800F00EFB002A0AD0A2
:101BB000297B8A4207D851008A18033A29688C4643
:101BC00062445470C3E7164B164A6821164800F069
:101BD000FBFA184B104A4221104800F0F5FA002B8E
:101BE0000BD02A7B934208D843001B18033B2A687A
:101BF0009446634400229A70B3E7094B094A68216E
:101C0000094800F0E1FA064B064A6821064800F050
:101C1000DBFAC046F8690310BC6A0310006A0310BF
:101C200080660310E46A03109C660310386A031090
:101C3000606A0310C467031070B504000A00457B96
:101C40002900FFF765FF6073280070BD70B50400C0
:101C5000002967D0437B8B420ED0002911D0037B33
:101C600099420ED84B005B18033B0268D01883786A
:101C7000002B0CD1002056E00121FFF7DDFF0120F1
:101C800051E0294B294A6821294800F09DFA002B90
:101C900020D0227B93421DD85A00D318033B2268E0
:101CA000D2182568EB5C8B421AD0002B1BD0227B0C
:101CB000934218D85A00D318033B2268D21853789D
:101CC0008B4216D0002BF0D11A4B1B4A6B211B48BC
:101CD00000F07AFA144B154A6821154800F074FA9E
:101CE0004378137007E0104B104A6821104800F049
:101CF0006BFA4378537000238370437001222000F5
:101D0000FFF706FF0200617B814205D02000FFF74C
:101D10004BFE6073012006E0094B074A712107481A
:101D200000F052FA002070BD80660310E46A0310D0
:101D30009C66031074640310A46A0310006A031005
:101D4000846A031070B504000D00062000F07EF9CF
:101D5000C000290001F0F2FBC60908D00E4B9E42DC
:101D600017D87F23184001303500460800E00125D0
:101D70006562A6622C348020800104430023236026
:101D8000062000F063F98000A901891901F0D6FB53
:101D900070BD0026014DEBE7FEFF0000FFFF0000D5
:101DA000002909D00A22064B9C4660444342584110
:101DB0004000044BC252704780225200F3E7C046F5
:101DC0000080FCBF806C012070B505000C0006206F
:101DD00000F03CF9002829D0164B9D4227D08022E4
:101DE000D203154B1A60154B1A60154B9B681100F6
:101DF0009943FAD100212800FFF7D2FF21002800E3
:101E0000FFF7A0FF2C002C34E96A60224A406E21C3
:101E1000114080225201224311600A4B2B63802320
:101E20009B01234310221A600323AB6470BD802200
:101E30001204D6E70080034000E0004000F00040BC
:101E400000C0004001030000F8B5DE4657464E468C
:101E50004546E0B505000F0092460A9A93424ED3DC
:101E60001A0E91461E020A9A00233000494601F0DC
:101E7000A3FB80466C006419A4002F4B9C4664446D
:101E80006368834200D260602B1FDBB29B46012B4C
:101E90003BD9C0239B012343802212011A60AB006F
:101EA000264A9958002905D0506901F047FB0130B6
:101EB0000138FDD153465A0123685A40E0231A40A5
:101EC00080235B0123431A605A46012A28D98023C4
:101ED0009B012343802212011A60434663604246FD
:101EE00000233000494601F067FBAD00134B585109
:101EF0000120F0BCBB46B246A946A046F8BD104B37
:101F0000104A2D21104800F05FF9012FC1D1C023E4
:101F10009B01234303221A60A368DB07FCD5C9E7B2
:101F20002168794003220A401A60A2680123BB405D
:101F30001342FAD0CBE7C04600800040E869012098
:101F4000F06A0310486B0310046B031030B583B0C4
:101F50000C2000F017F9FEF753FB00280DD00023EA
:101F600004E099002D4A2E4888500133092BF8D9F6
:101F70002A4B2C4A5A6203B030BD2B4B00229A6781
:101F800000F008F9294B01221A60274B5B6C012BEA
:101F9000FBD1274B03221A60234B9B6B012BFBD1F8
:101FA000013300930433234A0121234800F054F8FD
:101FB00005230093214A0121214800F04DF8214BCF
:101FC0000093002202210420FFF73EFF1E4D0095E2
:101FD0002B00002201210520FFF736FF104C009452
:101FE0002300002200210720FFF72EFF009423008A
:101FF000002200210820FFF727FF0A4B009323004F
:10200000002200210920FFF71FFF00952B0000226E
:1020100000210620FFF718FFADE7C046E869012060
:10202000006CDC021BB70000008000403CB00040A8
:1020300030B00040002F685900800240008C864775
:1020400000C00240001BB700405973078000014BDD
:10205000C0587047E8690120F0B5C64600B50400D5
:102060000D00170098460C2001F068FA0600394B65
:10207000FA18394B9A4241D843011B1A9901C91ADF
:10208000C90009188901380001F058FA0200103A15
:1020900098235B009A4237D84346013B062B39D838
:1020A000069B013B062B35D83F09B74238D3434640
:1020B0001E04069B1A0316432368002B36DB274BAE
:1020C0009C4244D080225201254B1A60254B1A6055
:1020D000254B9B6811009943FAD12560A060231D10
:1020E000C02292011A43212313602368002BFCDADB
:1020F000E6600823136080BCB846F0BD1B4B1C4A49
:1021000011211C4800F060F81B4B194A192119488D
:1021100000F05AF8194B164A1C21164800F054F8E2
:10212000174B134A2321134800F04EF822683F232F
:102130001340AB42C3D1A3681B051B0D8342BED124
:10214000E368EE22D2021340B342B8D1D3E7802233
:102150009201B9E780E84BD380F8A93200C0024071
:1021600000E0004000F0004000C00040586B031049
:102170007C6C0310B86B0310F86B0310146C031025
:10218000606C031080239B000343014AD3627047B5
:1021900000800540064BAA2212011A602F22DA6045
:1021A000044B054A1A60024B5B68002BFBDA704750
:1021B000004002400060024000B0FA0000BEFDE7AF
:1021C00010B5FFF7FBFF000010B582B00C0019003E
:1021D000002A0CD0084B002A0BD001920093230058
:1021E0000200064802F0FEF90120FFF7E7FF044B6A
:1021F000F1E7034AF1E7C046886C0310986C0310BE
:10220000946C031070B52B4B2B4A1A602B4B2C4A45
:102210001A602C4B9A682A4B9343FAD12A4C01E05E
:1022200008CC9847294B9C42FAD3FFF78FFE234BEB
:10223000274A1A60234B9B68DB43DB01FAD1254B0D
:1022400040229A675A671A67DA66234C09E0234BE3
:10225000234A86212348FFF7B7FF2000FEF73AFC08
:102260000834214B9C4209D22368002BF5D0012B66
:10227000EDD12000FEF73BFC0834F2E71B4CA168CF
:102280001B4DC022280002F055F8A560EFF305832E
:10229000002B00D000BEFEF7EDF9FEF705FCFEF7BF
:1022A00075FF144C01E008CC9847134B9C42FAD3BD
:1022B00070BDC04600E00040BFCDFBFE00F0004016
:1022C000FE7F3C0000C00040F0030020000400201E
:1022D000FFFFFF0100F00140E8030020C86C03107D
:1022E000406D0310E86C0310F003002000ED00E0E7
:1022F0000000002000040020040400200FB400B5FA
:1023000083B0084802F03EF9049B002B07D005A9D2
:102310000191180002F046F9034802F033F9012058
:10232000FFF74CFF2C6D03103C6D0310704710B588
:10233000002802D00B684968984710BD01000020B2
:1023400007E083001B185B00501C08601078C01861
:1023500030380A681378303BDBB2092BF1D970476B
:10236000F0B5DE4657464E464546E0B583B0934647
:102370001F000C9B9A460D9C0E9B99460F9B9B073A
:1023800003D0B8460F00060022E00192A34688461B
:102390004E46B9460700B44207D2551C4B4641464B
:1023A0002020B84701342A00F5E73D004F465C463F
:1023B000019B9B46B1464646B84637002E0007E0D3
:1023C000013C551C5346185D43463900B0472A006E
:1023D000002CF5D135003E0047460F9B9B0707D4E4
:1023E000100003B0F0BCBB46B246A946A046F0BD03
:1023F000B0464E46B9462F005D46531BB342EFD25E
:10240000541C4B4641462020B8472200F5E7F0B562
:10241000CE46474680B585B0944698460C9D0D9CA7
:102420000EAB1B789946109A119B129EB7071CD4CD
:10243000002B0CD0F7070AD54F46002F02D10C37DE
:10244000374204D0013B02E030272F55013494423B
:1024500001D21F2CF8D9F70707D59C4205D21F2CB3
:1024600003D830272F550134F5E7F70615D5770542
:1024700005D4002C03D0944224D09C4222D00F9A41
:10248000102A2BD00F9A102A30D00F9A022A35D05A
:102490001F2C02D830222A5501341F2C05D84A4659
:1024A000002A31D02D222A5501340396029301943B
:1024B000009543466246FFF753FF05B0C0BCB946DE
:1024C000B046F0BD621E012C06D00F9F102F01D028
:1024D0001400D4E7023CD2E71400D0E7B206D1D40E
:1024E0001F2CCFD878222A550134D1E7B206CCD59B
:1024F0001F2CCAD858222A550134C9E71F2CC7D827
:1025000060322A550134C3E7720703D52B222A55BE
:102510000134CAE73207C8D520222A550134C4E75E
:10252000F0B5DE4657464E464546E0B593B0814687
:102530008A46089209931CAB10CB1B789B461E9DC4
:10254000219B9846002C03D1102342469A43904683
:102550008023DB0046461E4042461A4212D0002C21
:1025600022D000260EE03033D9B2771C0AAB995541
:102570002900200000F0E2FFAC4216D31F2F14D830
:102580003E0004002900200000F0D8FFCBB2092B48
:10259000E9D94246920605D54121C918C9B20A397E
:1025A000C9B2E2E76121F8E7270043460693209B82
:1025B00005931F9B049303955B46029301970AAB17
:1025C0000093099B089A51464846FFF720FF13B035
:1025D000F0BCBB46B246A946A046F0BDF0B5DE460B
:1025E00057464E464546E0B595B0089009910A9287
:1025F0000B931E9E1F9C20AB1B789B46229B9946EB
:10260000239D269B9A463300234303D11033524621
:102610009A4392468023DB0057461F4052461A4297
:1026200019D0330023432DD0002714E03033DAB221
:102630007B1C98460CABDA554A462B003000210033
:1026400000F0BAFFA5421FD819D043461F2B1BD854
:10265000474606000C004A462B003000210000F0DF
:10266000ABFFD3B2092BE1D95246920605D54122E0
:10267000D218D2B20A3AD2B2DAE76122F8E7B1450B
:10268000E3D901E00023984653460693259B059322
:10269000249B04934B4603935B460293434601936A
:1026A0000CAB00930B9B0A9A09990898FFF7AFFEB1
:1026B00015B0F0BCBB46B246A946A046F0BD00002E
:1026C000F0B5DE4657464E464546E0B591B08346E6
:1026D0008A460C9298461A9C08941B9D09952200E4
:1026E0002B002000290001F0F2F9002800D0E5E0DD
:1026F00001225242D74B2000290001F0E3F90028C3
:1027000000D0DBE001225242D34B2000290001F02F
:10271000C3F9002800D0D1E000220023089E300039
:10272000099D290001F0B8F9002800D0DDE00898E3
:102730000999069007918023DB001E9A1A400D929A
:102740001E9A1A4201D106231C9306980799040089
:102750000D000A000600024300D1D1E0080D40053B
:10276000400DBE4CA44660440A03120BBC4B1343FD
:102770001F0001F0BFF9BB4ABB4B01F04AF9BB4A4D
:10278000BB4B01F01FF904000D000022B94B3000D3
:10279000390001F00EF9B84AB84B01F03AF90200DD
:1027A0000B002000290001F00DF901F0BBF9814672
:1027B00001F0A0F904000D00B14AB24B01F029F973
:1027C0000022B14B01F0FEF801F0ACF90600AF4A6F
:1027D000AF4B2000290001F01CF904000D0030006F
:1027E00001F088F9AB4AAC4B01F013F902000B0081
:1027F0002000290001F0DDF804000D0002000B00AC
:1028000001F007F90A900B91A44BF31800261F055D
:1028100022002B002000290001F0D4F80E900F9127
:1028200022002B0000208021C90501F0C2F804001D
:102830000D0000229A4B0A980B9901F0CCF8002267
:10284000984B01F0BFF802000B000A980B9901F0B9
:10285000C2F80022944B01F0B5F802000B000A9870
:102860000B9901F0B8F802000B002000290001F0DC
:10287000A9F802000B000E980F9901F0ACF80022A5
:10288000774B01F09FF832003B0001F0C2F80600E0
:102890000F0004000D00069A079B01F013F90028B1
:1028A00030D001235B429C46E14400227D4B300046
:1028B000390001F090F804000D0023E01E9B049302
:1028C0001D9B03931C9B0293089A099B0092019302
:1028D00043460C9A5146584600F0FCF811B0F0BC43
:1028E000BB46B246A946A046F0BD0023002406938D
:1028F0000794069680231B069C46654407951AE7B5
:10290000002399464B466333C62B1ED804261E9BD4
:102910001B0526D52B0023430FD0644A644B069831
:10292000079901F0C7F8002879D00022614B06987A
:10293000079901F0B1F8002871D01C9B4B4506DDCA
:102940004A46981A431E1C9303E00526DFE700233E
:102950001C938023DB001E9A1A431E92002600233C
:1029600099461D9B9E4264D29F1B02231E9A1A40C9
:102970000A921E9A134202D0002E00D000274B4626
:10298000002B07D022002B000698079901F023F8AE
:1029900006900791002200230898099901F07CF81D
:1029A000002848D1444B1E9A1340049303971C9B64
:1029B0000293069B079C0093019443460C9A514650
:1029C000584600F087F8002E00D187E71E9B9B0633
:1029D0003DD54525441C4346020051462800D847B2
:1029E0004B46DA179B18534005220592013E049688
:1029F000002203920A3202924A46D00F01900093BD
:102A00004346220051465846FFF78AFD0A9B002B99
:102A100000D163E702005F460C9E1D9D54E01C9BA5
:102A2000002B9ED00D9B002B9BD01C9B013B1C932D
:102A300097E7002799E7069C079D22002900802040
:102A40000006844661440B0006920793AAE76525B9
:102A5000C0E7C046FFFFEF7FFFFFEFFF01FCFFFF76
:102A60000000F03FFB799F501344D33FB3C8608B05
:102A7000288AC63F0000F83F61436F63A787D23FB3
:102A800071A379094F930A400000E03F1655B5BB8A
:102A9000B16B0240EF39FAFE422EE63FFF03000021
:102AA00000002C4000002440000018402D431CEB87
:102AB000E2361A3F80842E41FFF7FFFF541C434645
:102AC00051462020B8472200931BAB42F6D310009A
:102AD00004E7C046F0B5DE4657464E464546E0B5EB
:102AE00095B00690079193469946209F1E9A1F9B8A
:102AF0001000190000F0EBFF002831D101225242F2
:102B0000BF4B1E981F9900F0C7FF002837D1012244
:102B10005242BC4B1E981F9900F0D4FF00283DD1B3
:102B20000022B94B1E981F9900F0CCFF002850D10D
:102B30000022B64B1E981F9900F0AEFF002848D126
:102B4000002200231E981F9900F0A6FF002850D1F4
:102B500000239846229B5B0500D4B6E0002458E091
:102B6000229B0393219B029303230193A84B009381
:102B70004B465A4607990698FFF7F2FB0EE1229B57
:102B80000393219B029304230193A24B00934B4692
:102B90005A4607990698FFF7E3FBFFE00423229AC1
:102BA0001A4022990B4210D09B4B002A0FD00422CE
:102BB0002299039121990291019200934B465A4622
:102BC00007990698FFF7CCFBE8E0944BEDE703226A
:102BD000EEE7229B0493219B039302971E9B1F9C6D
:102BE000009301944B465A4607990698FFF768FDF3
:102BF000D4E01E9A1F9B0020002100F0DAFE1E90F8
:102C00001F9101239846A5E70CAB30221A55013FCE
:102C100001341F2C01D8092FF6D81E981F9900F0F7
:102C200081FF050000F066FF02000B001E981F994F
:102C300000F0BFFEFA007A4B9B181A685B680A9294
:102C40000B9300F0E6FE0890099100F08FFF06005C
:102C500000F04CFF02000B000898099900F0A9FE53
:102C60000890099100226F4B00F02CFF00282ED015
:102C70000136300000F03AFF02000B000A980B9971
:102C800000F010FF002801D001350026002F2CD1C4
:102C9000280000F02FFF02000B001E981F9900F083
:102CA00088FE06000F0000225E4B00F0F5FE0028B3
:102CB00046D100225B4B3000390000F003FF0028B2
:102CC0003ED1EB073CD501353AE0062746E7002226
:102CD000544B0898099900F0DFFE0028D6D1002E49
:102CE00001D0F307D2D50136D0E7AA461F2C11D860
:102CF000013F0A21300000F021FC651C30310CAB93
:102D000019550A21300000F019FC092E0ED90600D1
:102D10002C00EBE755461F2C0CD87B1E002F09D04A
:102D20000CAA302111551F000134F4E72B00554641
:102D30001C00F0E71F2C03D80CAB2E221A550134CF
:102D40001F2C10D80A21280000F0D0FB661C30315F
:102D50000CAB19550A21280000F0C8FB051E01D054
:102D60003400EDE734000323229A1340012B1CD0DA
:102D70001F2C06D84346002B32D00CAB2D221A55FF
:102D80000134229B0393219B029301940CAB00938B
:102D90004B465A4607990698FFF7E2FA15B0F0BC81
:102DA000BB46B246A946A046F0BD219B002B13D0DE
:102DB0004346002B02D10C3313420FD0219B013B21
:102DC0002193190003E00CAB30221A5501348C42D8
:102DD000CED21F2CF7D9CBE72199F8E72199F6E756
:102DE000229B5B0704D50CAB2B221A550134C8E794
:102DF000229B1B07C5D50CAB20221A550134C0E716
:102E0000FFFFEFFFFFFFEF7F65CDCD4165CDCDC16A
:102E10005C6D0310606D0310546D0310506D031052
:102E2000486F03100000E03FF0B5DE4657464E46BF
:102E30004546E0B593B082468B46904611930029F3
:102E400000D1EBE200275546119B1878002800D1ED
:102E5000E7E2252809D07C1C43463A005946A8479A
:102E6000119B013311932700EEE7013311930024E6
:102E7000119A11780B00203BD8B2102803D8830098
:102E8000D048C3589F460B00303BDBB2092B2CD9EE
:102E90002A292FD000230A93119B1A782E2A39D081
:102EA00000239A46119A1378683BD9B2122976D832
:102EB0008B00C549CB589F4601231C430132119218
:102EC000D6E702231C4301321192D1E704231C43AD
:102ED00001321192CCE708231C4301321192C7E75B
:102EE00010231C4301321192C2E711A8FFF726FA02
:102EF0000A90D1E71C9B1A1D1C921868002804DB5D
:102F00000A90119B01331193C6E702231C434342ED
:102F10000A93F6E78022D20014435A1C11925A7881
:102F20001300303BDBB2092B04D92A2A07D0002337
:102F30009A46B7E711A8FFF701FA8246B2E71C9B51
:102F40001A1D1C921868002804DB8246119B01336D
:102F50001193A7E70020F8E780235B002343511C6F
:102F6000119152786C2A01D01C0018E0C0239B00FC
:102F70001C430131119112E080232343511C119114
:102F80005278682A01D01C0009E0C0231C4301319B
:102F9000119104E080235B001C4301321192119BCC
:102FA00018780300253BDAB2532A00D92CE29300AB
:102FB000864AD3589F4680239B001C4301321192BE
:102FC000EDE780235B001C4301321192E7E778288C
:102FD00009D0582838D06F2838D0622838D010232C
:102FE0009C430A2600E01026582833D0692803D0D5
:102FF000642801D00C229443630501D50122944337
:1030000069282AD0642828D0A30500D59FE0E305CD
:1030100000D5B8E0630600D4CAE01C9A111D1C91CB
:103020001168FF220A4005940A9B049353460393B8
:10303000029600230193009243463A005946280025
:10304000FFF76EFA070027E01026CDE70826CBE74A
:103050000226C9E720221443C8E7A30520D4E305CC
:1030600050D4630666D51C9A111D1C911168FF226D
:103070000A40D317D118594005940A9B049353462C
:1030800003930296D20F0192009143463A005946AB
:103090002800FFF745FA0700119B01331193D3E68F
:1030A0001C9BDA1D07218A43110008311C9111680D
:1030B00053689C46DB170C930D930C9A0D9B1000E4
:1030C00048400E90624653400F930E980F990C9A09
:1030D0000D9B801A99410E900F9108940A9B0793BB
:1030E000534606930496002305936346DA0F029233
:1030F0000090019143463A0059462800FFF76EFAC6
:103100000700C9E71C9A111D1C911268D317D1182A
:10311000594005940A9B0493534603930296D20F99
:103120000192009143463A0059462800FFF7F8F90A
:103130000700B1E7230605D51C9A111D1C91002339
:10314000D25E96E71C9A111D1C91126891E71C9B98
:10315000DA1D07218A43110008311C9108940A9B4B
:10316000079353460693049600230593029313682E
:1031700054680093019443463A0059462800FFF7EB
:103180002DFA070088E71C9A111D1C9105940A9BD3
:10319000049353460393029600230193136800930C
:1031A00043463A0059462800FFF7BAF9070073E78B
:1031B00023060DD51C9A111D1C9112681204120CC5
:1031C00031E7C046686D0310AC6D0310F86D031055
:1031D0001C9A111D1C91126825E746281AD01C9BC9
:1031E0000733072293431A0008321C9204940A9A68
:1031F0000392524602925C681B6800930194434616
:103200003A0059462800FFF765FC0700119B01337F
:10321000119319E620231C43E1E7672801D04728D2
:1032200002D180231B011C43452801D0472801D12E
:1032300020231C431C9B0733072293431A000832A8
:103240001C9204940A9A0392524602925C681B688C
:103250000093019443463A0059462800FFF730FA9C
:103260000700119B01331193EEE502231A0022405F
:10327000924623421FD001241C9B1A1D1C927A1CCB
:103280009146187843463A005946A8475346002BC2
:1032900016D1119B013311934F46D5E5561C434679
:1032A00059462020B847230032005C1C9D42F5D8C7
:1032B0003D001700E0E701233A002F000A9DF4E7E4
:1032C0004A46A9460A9D06E0571C43465946202017
:1032D000C84734003A00661CA542F5D84D469146D1
:1032E000D7E71C9B1A1D1C921B6899465346002B5E
:1032F00000D1013B4E4601E0013613003278002A2E
:1033000002D05A1E002BF7D14B46F21A109280239E
:10331000DB0026001E401C4203D0524501D9534613
:10332000109302231A0022400B92234205D03A0048
:1033300037004C46A946554620E03A00109B5F46B0
:10334000B3462E0006E0551C434639002020B04706
:1033500023002A005C1C0A999942F4D835005E4685
:10336000BB46109437004C46A946554606E01D0062
:103370000134561C43465946C8473200207800287D
:1033800004D0002FF4D06B1E002DF0D117004D4655
:103390000B9B002B03D1119B0133119354E50A9F22
:1033A000109B06E0561C434659462020A8472300A0
:1033B00032005C1C9F42F5D81700ECE721231C4328
:1033C0001C9B1A1D1C921B680093059408230493F0
:1033D00053460393102302930023019343463A007C
:1033E00059462800FFF79CF80700119B0133119301
:1033F0002AE57C1C43463A0059462520A847119BE4
:103400000133119327001FE57C1C43463A005946BF
:10341000A847119B01331193270015E50A4B9A46E3
:1034200010E5AA46474502D343465A1E00E03A003B
:10343000434659460020D047380013B0F0BCBB4685
:10344000B246A946A046F0BD2D23001000B585B0B8
:10345000029003910121009313004A4202A90248FD
:10346000FFF7E2FC05B000BD2F2300100148042146
:10347000014B184710030020B5340010014B5B6866
:103480001847000010030020014B9B6818470000FC
:103490001003002010B5010018231B881422108887
:1034A000984710BD10B5010018231B8816221088FC
:1034B000984710BDF0B5C64600B507000E000025C0
:1034C0000123984600E00135B5420AD2AC003C1910
:1034D0002068FFF7DFFF20600028F4D10023984622
:1034E000F1E7404680BCB846F0BD0000124A936F39
:1034F0009B0815D29066D166002905D0FFE7FFE74B
:10350000FFE7516F106F704704B580210906C2179D
:103510005140002800D0C84332F086FE002104BD8F
:10352000F0B5146E556E576F166FFFF7E3FF146614
:10353000556657671667F0BD000000D0114A936FBB
:103540009B0813D210665166002905D0FFE7FFE7FC
:10355000FFE7516F106F704704B5002801D00020BD
:10356000C04332F061FE002104BDC046F0B5146EC8
:10357000556E576F166FFFF7E5FF14665566576770
:103580001667F0BD000000D094464A4A926F920838
:10359000624601D228E0C046F0B5464E346E756EE4
:1035A000776F366F00F020F89446424A14665566ED
:1035B000576716676246F0BD94463E4A926F92087E
:1035C000624601D254E0C046F0B53A4E346E756E94
:1035D000776F366F00F04CF89446364A146655669D
:1035E000576716676246F0BD002B24DB11D0002917
:1035F0003EDA00B5C943404200D1013100F038F84D
:10360000C943404200D10131DB43524200D1013372
:1036100000BD002AEBD1002801D1002905D00020EF
:10362000C90FC90701D1C043410800B532F0F4FD0C
:103630000022002300BD00B500290ADBDB43524213
:1036400000D1013300F014F8C943404200D10131E8
:1036500000BDC943404200D10131DB43524200D199
:10366000013300F005F8DB43524200D1013300BDC5
:10367000002923D1002B18D1002A0CD0BC460D4FB5
:1036800038667A6600210023FFE7FFE7FFE77A6FDD
:10369000386F67467047002801D00748010000B521
:1036A00032F0BAFD0022002300BD02000B00002012
:1036B00000217047000000D0FFFFFFFF002B00D06B
:1036C000BFE0130C28D1002AE7D080B4114F39662F
:1036D0007A66FFE7FFE730B4040C7B6F396F1B0499
:1036E00023433B667A66FFE7FFE7FFE7C04684B205
:1036F0007B6F3D6F1B0423433B667A66FFE7FFE762
:10370000C04600232C042D0C7A6F386F00196941D4
:10371000B0BC7047000000D0F0B594460025140EF0
:1037200001D112020835140F01D112010435940F92
:1037300001D192000235D40F01D152000135D40BD2
:103740000134254F7C66254C3C660E0C93B2FFE796
:10375000FFE7FFE73C6F6643360C7703BE467343D3
:10376000DF0B5B04C01AB941130C7343DB18C91A91
:10377000CE086643360CB64493B273431F0F1B0149
:10378000C01AB941130C73431F0B1B05C01AB94172
:10379000860D8F023E436643360C092D24DB520A08
:1037A0007243801A7703460A6643360C16235B1B66
:1037B000DE40DF40BF1964466643821B7046043515
:1037C00006330100D940A840C01900D30131A242FC
:1037D00006D20023F0BD0000000000D0FFFFFFFF75
:1037E000121B0130F3D3F1E709277F1BFE4064462B
:1037F000A2B27243801A00D20139220C7243130C18
:103800001204821A99410B007046043513370100E7
:10381000F940A840801900D30131002B02D1A24207
:103820000AD2F0BD013000D30131121BFAD2013BA4
:10383000F8D1A24200D2F0BD013000D30131121BF9
:10384000F7E7F0B51C0C00D080E00CB400251C0A92
:1038500004D11B02160E3343120208351C0B04D18F
:103860001B01160F3343120104359C0B04D19B003E
:10387000960F334392000235DC0B02D192185B4164
:1038800001351C00971864410134464F7C66464C54
:103890003C660E0CFFE7FFE7FFE7C0463C6F664360
:1038A000360C7703BE4697B27743C01B00D201396E
:1038B000C01B00D201399FB27743C91BC91B170C2B
:1038C00077437E04FF0B801BB941CE086643360C5C
:1038D0000C2D33DBB644120B1F053A431B0B97B27A
:1038E0007743C01B00D201399FB27743C91B170C25
:1038F00077433E043F0C801BB941860D8F023E4347
:10390000664329277F1BFE400C3D7746AF40BF1919
:1039100030BCA2B2ABB272437343801A9941220CFD
:103920007243130C1204801A994102000B000137F4
:10393000001BA941F9D2781E0021F0BD0C277F1B86
:10394000FE4077467F0BAF40FF19E0E700245D1C87
:1039500007D0144F7D663966FFE7FFE7FFE7FFE713
:103960003C6F95B29EB265436643401BB141150C56
:103970001E0C6543664336042F0C3E432D04401B4A
:10398000B141994204D202000B0020000021F0BD99
:1039900001D19042F7D3801A994101349942F2D370
:1039A000F6E70000000000D0FFFFFFFF4840414065
:1039B000484018B41B4B5B68FC46019308BD04DF0C
:1039C000873C001018B4174B1B68FC46019308BDD8
:1039D00000DF913C00109446134A926F920809D27E
:1039E000624618B40F4BDB68FC46019308BD0CDF40
:1039F000493F00100C4AF0B5146E556E576F166FA4
:103A00006246FFF7EEFF084A146655665767166769
:103A1000F0BD18B4034B9B68FC46019308BD08DF5A
:103A2000ED3D0010686A0120000000D0FFB5504055
:103A30004240504059404B40594000E0FFB5154FBF
:103A40004C00640D03D0BC4204D10C0314D80020F8
:103A5000090D09055C00640D03D0BC4204D11C03B0
:103A60000AD800221B0D1B0501264B4009D44B40F0
:103A700003D58B4200D18242FFBD9942FCD19042D6
:103A8000FFBD0B43DB1803431343F5D0C94349186B
:103A9000FFBD0000FF07000000B5FFF7CFFF80412A
:103AA00000BDC04600B5FFF7C9FF01D9002000BD29
:103AB000012000BD00B5FFF7B9FF01D9002000BD0E
:103AC000012000BD00B5FFF7B1FF804100BD01201E
:103AD00040054A00121804D85A00121801D80020D4
:103AE0007047012070470020704700000021002827
:103AF00005D17047C1174840401AFAD0C90713B51D
:103B0000064B1B6898470CBC441CA2401005120BC6
:103B10000349091B09051943114310BD686B0120B6
:103B20001F04000010B54C00620D8023D218DB008A
:103B3000D21A5B057E2A10DD9E3A13DACC170903F0
:103B4000490819435242D140640001341532202AF9
:103B500005DAD0400843604310BD002010BD084680
:103B6000604310BDC80FC018013810BD18B4044B15
:103B70005B6AFC46019308BD24DFF9400010000099
:103B8000686A012070B513231C78012C14D0012C15
:103B900014DC022C02DC1F4A1F4B9A641F48FFF7FB
:103BA00079FC1F4B186070BD99001A481A4A88505A
:103BB00001331F2BF8D9EAE70023FAE71948FFF78A
:103BC00071FC05001848FFF76DFC023803789B0074
:103BD0007F2B19DD802229000F4800F0ABFB022C5F
:103BE000D7D1124B1A88B5231B029A4209D1104B28
:103BF0001A88104B9A4204D10F4B1A880F4B9A42E5
:103C0000C7D00020FEF77AFB0D4B0E4A32210E483A
:103C1000FEF7DAFA4D3C0010686A01204C330000D0
:103C2000686B0120534400005346000054380000E4
:103C3000D8380000494600009C3800005946000072
:103C4000986F031040700310F86F031007B56046BB
:103C5000002800D100BE01880A0A0230DF2AFAD10A
:103C6000C9B2820804D3028840880004104300E0EF
:103C70000068024A5050039007BD0000686A0120A6
:103C80000FB403BC0CBCF0B50124E407634000E0B2
:103C9000F0B50C0DCF0F661E3605891B640503D3E6
:103CA000C943404200D30131640D03D0661CF60ABB
:103CB00007D0E41B00207F00791C89078912803C13
:103CC00024031D0DDF0F6E1E36059B1B6D0503D3F0
:103CD000DB43524200D301336D0D03D06E1CF60A54
:103CE00007D0ED1B00227F007B1C9B079B12803DB1
:103CF0002D032F1B661B58D4A446202E46DA2037EE
:103D00001400BC401D00BD40F24033412A438018DE
:103D10005941CB0F05D0C943C043002264425041F2
:103D2000514162464D0D28D10D0D07D100281FD0FD
:103D3000241940414941013A0D0DF9D0640006D3E0
:103D4000013000D30131002C01D140084000013A7C
:103D50000BD4941CE40A04D112051144DB07194466
:103D6000F0BDD907204B194300E0D9070020F0BD72
:103D70000029DDD1002CDBD1F0BD0132C60740089F
:103D8000CD0728434908002EE1D0D9E73C2E29DA97
:103D9000203E40371400BC4000D00124F2401443C0
:103DA0001A00BB401C43D317ACE7AC46202F08DAFF
:103DB00020360400B4400D00B540F8403941284396
:103DC000A5E73C2F0CDA203F40360400B44000D079
:103DD0000124F84004430800B1400C43C117EAE74E
:103DE00010001900002494E70000F07FF0B50C0DDE
:103DF000661E3605891BE60A6405640D02D0651C43
:103E0000ED0A04D0002001210905803C2403A446CA
:103E10001C0D671E3F05DB1BE70A6405640D02D01D
:103E2000651CED0A04D0002201231B05803C2403FD
:103E30007740644497B484B296B27443070C7E43CF
:103E4000150C6F4380B26843361802D3012000047A
:103E50003F183004350C00197D41844688B29AB26F
:103E600050430C0C62431F0C7C438EB27E4392196C
:103E700002D301263604A4191604170C361867411C
:103E800001BC81B29AB25143040C62431B0C5C43E7
:103E900080B25843121802D30120000424181004E1
:103EA000130C401863412D185E410020474106BCA9
:103EB00088B293B258430C0C6343120C544389B23A
:103EC00051435B1802D301210904641819041A0C28
:103ED000091862416D1856410020474118BCF9028B
:103EE000720D1143F0026A0D1043ED020A0D03D169
:103EF0006D1940414941013B124E9B1B7600B34274
:103F00000ED26D0007D3013000267141664635435D
:103F100001D1400840001B05C918E4072144F0BD49
:103F20000BDA013306D1013004D101314F0D01D03C
:103F30004908F2E7E1070020F0BD01363105002015
:103F4000EBE70000FF030000F0B51C0D671E3F0506
:103F5000DB1BE70A6405640D02D0661CF60A04D078
:103F6000002201231B05803C2403D0252D060026BA
:103F7000F6432E661E096E66CE0FF619B44649004A
:103F80004F0D02D07E1CF60A03D000200021403FD6
:103F90003F033E1BB600B444013F7F05C91B4908DF
:103FA0002E6F013676089C02950D25437543ED135F
:103FB0007543AD1301356D10F603761B0CB4CC02BE
:103FC000450D2C43A2B2B3B25A43270C7B43350CA8
:103FD0006F43A4B26C431B1902D3012424043F197C
:103FE0001C041D0CA4187D4124196D41009A91B246
:103FF000ACB26143170C7C432B0C5F4392B25A4323
:10400000A41802D301221204BF182204230C521850
:104010007B41019C6C431B19520ED9010A43440198
:10402000A01A81B2B2B2514303145A43360C7343FF
:1040300087B27743D617D21900277E4136049B19E1
:104040001704160C7F185E417316ED18F301002655
:1040500080337541A90F06D16400690AE8055B0A3F
:10406000184309D22FE00422944480337541A90AF1
:10407000A8059B0A184326D3404149412404009ACD
:10408000019B0D005543641B4343E41A95B286B26D
:104090007543170C7E43030C5F4392B25A43B61824
:1040A00002D301221204BF183204330C52197B418F
:1040B00052429C41002C02D4002201305141400860
:1040C000CA071043490802B06246D7079210084B4E
:1040D000D218084B9A4203D212058918C919F0BDAB
:1040E0000020002A01DC3900F0BD01331905F5E795
:1040F000FD030000FE070000002200B5203200F0A2
:1041000004F8080000BD000000220B150AD410B509
:10411000944600F031F81414013400DA0021CB1772
:10412000144C20470020002170476244343A0CD4DC
:104130000C2A07DA04009140904052422032D440C9
:10414000214310BDD843D94310BD203207D40C46BB
:104150009440524220321141D040204310BD08000B
:10416000C917203203D452422032104110BD18002A
:10417000190010BD2B4100100A0DCC0F531E1B055A
:10418000C91A520503D3C943404200D30131520D2D
:1041900003D0531CDB0A07D0121B00206400611CF3
:1041A00089078912803A1203014BD21A7047000026
:1041B000FF03000051434343C9188C46110C83B2DE
:1041C0004B4310B4040C614392B280B2504362433B
:1041D0001C041B0C001910BC59411304120CC0180C
:1041E000514161447047000070B513231D782A487F
:1041F000FFF758F90400012D11D0012D09DDA31E90
:104200001B789B007F2B40DD80222100234800F09B
:1042100091F82348FFF73EF9224B186070BD5422F5
:1042200001001E4800F086F81F4B1A881F4B9A4267
:104230001CD1A7239B011A881D4B9A4216D11D4BF6
:104240001A881D4B9A4211D11C4B1A8894239B014A
:104250009A420BD11A4B1A881A4B9A4206D11A4B22
:104260001A681A4B9A4201D1152307E01848FEF745
:1042700045F899001748094A885001331F2BF8D98F
:10428000144A064B1A62DA61B7E7134B134A42210C
:104290001348FDF799FFC046534600006C6B0120A0
:1042A0004C330000686B0120EE290000C40F0000B1
:1042B000C20D0000962B0000C0B50000182B0000B6
:1042C000CC2A000010B50000FC2C000051ED8764E2
:1042D000946C0310E542001054700310D07003106A
:1042E0008870031007B56046002800D100BE018821
:1042F0000A0A0230DF2AFAD1C9B2820804D302883E
:1043000040880004104300E00068024A50500390C7
:1043100007BD00006C6B012001480421014B1847C8
:1043200020030020B5340010014B1B681847000023
:1043300020030020014B5B68184700002003002089
:1043400010B50300080011001B68984710BD00005D
:10435000F8B507000D001600437D002B02D00024A5
:1043600000200CE003681100280098472DE03B7DF9
:1043700010E0022115483B689847601C0134B442A4
:1043800014DA002CF3DD2B19013B1B780D3B5A424C
:104390005341DBB22A5D0A2AF0D1002BEED1A042B4
:1043A000E7DA211A28183B689847E2E7B04203DAB7
:1043B000311A28183B689847002E06DDAD19013DDB
:1043C0002B780D3B5A4253413B75F8BD6071031089
:1043D00070B505000368002B16D00C4B1C6805E077
:1043E000290004C92000FFF7B3FF2469002C09D07D
:1043F0002368002BF9D0064B1B68002BF0D0A3429A
:10440000F3D1EDE700232B6070BDC046506A012058
:10441000546A012070B505000C000B68802B05D094
:1044200021684B1C23606418257170BD0800FFF7DC
:10443000CFFFF5E710B5FDF769F902000B1E0BDBA6
:104440000D48002112184B41002B0BDB002B0DDB1C
:104450000A4831F0F9FE10BD094B0A4A3F210A48CB
:10446000FDF7B2FE01225242084BEFE7044B054A2A
:104470003F210548FDF7A8FE40420F00E803002059
:1044800050650310487103106C650310FFFFFF7F38
:1044900010B5024831F0B8FE10BDC046E803002058
:1044A000F0B5CE46474680B583B006000D00904675
:1044B0001C00FFF7BFFF81466B1C05D0002C08D005
:1044C000194F1A4B1C6807E0300031F06DFE0500F3
:1044D000F4E7174FF5E72469002C17D02368002B69
:1044E000F9D0144B1B68002B01D0A342F3D12A0052
:1044F00031002000B8474346002BECD06B46D91D55
:104500000A230B7001222000B847E4E74B46002B3A
:1045100007D16B1E9D41E8B203B0C0BCB946B0469E
:10452000F0BDFFF7B5FFF4E741430010506A0120EA
:1045300051430010546A0120094A01E010331A0067
:104540001368002B08D08342F8D1002907D10369F2
:1045500013600023036102E0002900D0106070475F
:10456000506A012010B5064B1C6801E09847246989
:10457000002C03D06368002BF8D1F8E710BDC046CB
:10458000506A012070B5050031F00EFE04000023D2
:10459000012201002800FFF783FFFFF7E3FF20005F
:1045A00070BD000070B5A2B004000E00FFF742FF1E
:1045B0000500002301933300220001A90848FEF7FB
:1045C00045FF040001A8FFF703FFFFF7CBFF002D15
:1045D00002D1200022B070BDFFF75AFFF9E7C046B4
:1045E000154400100FB400B583B004A901C90191AE
:1045F000FFF7D8FF03B008BC04B01847F0B583B08C
:1046000005000E0000240FE06B46D91D0D230B7032
:104610000020002816D193699B06FCD40B78136008
:1046200001300131F5E70134B44219DA0D4B1A6853
:104630002F5D0D4BD31859424B415B000B495B5E1C
:10464000BB42E1D06B46D91D0F7000200028EAD193
:1046500093699B06FCD40B78136001300131F5E7B8
:1046600003B0F0BD886C01200080FCBF806C01208D
:10467000F0B583B006000F00002504E06B46073359
:104680001B782B702500BD4215DA174B1A68936909
:104690001024210019401C420DD16C1C75196B4669
:1046A000D81D0029EAD19369DB06FCD41368037096
:1046B00001310130F5E70D4B1B68002B0CD00A4B84
:1046C0001A685023936311003431536B38221A4017
:1046D00080235B010B431A60002D02D0280003B039
:1046E000F0BD033DFAE7C046886C0120E069012077
:1046F00010B5064B1B68002B06D0054A1268002136
:104700009163044A1068984710BDC046E0690120D3
:10471000886C0120E469012070B504000E001C4B78
:104720001B681C4A98184242504114300500002C66
:1047300003D0194A1268002A06D0002C19D0164B53
:104740001C60164B1E6070BD1549FCF735F8012141
:104750002800FCF721F80E4B1A68502393631100D0
:104760003431536B38221A4080235B010B431A60AB
:10477000E5E7094A1268002AE1D000229A63002185
:104780002800FCF709F806492800FCF73FF8D6E7AF
:10479000886C01200080FCBFE0690120E4690120F1
:1047A000F146001070B50D001C000D4B1860002A7A
:1047B0000BDA002C0EDA0A4B18682900FDF704FB0F
:1047C00001210848FFF7B8FE70BD02211000FBF779
:1047D000F3FEEEE702212000FBF7EEFEEBE7C0461A
:1047E000886C01203003002010B51920FBF7FCFE77
:1047F000D0231B06802292045A620548054B18609C
:10480000E121012300224902FFF7CCFF10BDC04681
:1048100000400340846C0120F0B5D646474680B581
:1048200083B0824688460620FDF710FC070002246C
:1048300000E02C00FE2C1CD801970026A51C2802A5
:10484000424600230021FFF7B5FC002903D1B14205
:10485000EFD1B842EDD980256D00012D0CD96E1E27
:10486000210071433800FEF769FE404504D8350049
:10487000F3E780256D00F0E753461C616B1E1B02B9
:10488000524612685340FF2212021340802040011A
:10489000524610430360290061433800FEF74EFE84
:1048A00003B0C0BCBA46B046F0BD000010B504006D
:1048B000144B984222D080229202134B1A60134B61
:1048C0001A60134B9B6810009843FAD12000FFF741
:1048D000A3FF226807235340CF221A4080235B01A5
:1048E00023431A602200243280239B011A430321B0
:1048F000116004341C430223236010BD8022520245
:10490000DBE7C04600C0034000E0004000F000408C
:1049100000C000400A38C3B2002004229A4240413D
:10492000C0B2704710B5C9B2002208F0E7FC10BD54
:1049300010B509B204F04AFB10BD10B509B204F07D
:104940002DFB10BD70B50500006808F049FD04009E
:1049500000222721006900F0FAFB0022282160696B
:1049600000F0F5FB6069002803D02823E35C9B0777
:104970000FD4002262612821635C012083436354C9
:10498000A2612868383108F0B5F8206905F0C7F849
:1049900070BD08F03EFEECE770B5040008F020FDA5
:1049A000051E22D00669002E04D0002225213000E9
:1049B00000F0CDFB2B69002B04D000222621200023
:1049C00000F0C5FB2C61002C04D000222721200020
:1049D00000F0BDFB2B69002B04D000222821300001
:1049E00000F0B5FB200005F09AF870BD10B5002866
:1049F00003D0002800D0006910BD0EF04BFAF8E794
:104A000070B50500006808F0EBFC04000EF042FAF7
:104A1000FFF7ECFF6061286820610022262100F08A
:104A200096FB70BD10B5002803D0002800D0406967
:104A300010BD0EF02FFAF8E710B5002803D00028BB
:104A400000D0C06910BD0EF025FAF8E710B50028B7
:104A500003D0002800D0006A10BD0EF01BFAF8E762
:104A600070B504000D00002806D0002C03D0A5600E
:104A7000636A032B04D070BD0EF00CFA0400F4E757
:104A8000E368186808F0E2FC0028F4D1E36858688D
:104A900008F0DCFC0028EED1E368986808F0D6FC4A
:104AA0000028E8D1E36818680AF084F8E3E710B555
:104AB000002801D0806810BD0EF0ECF9FAE730B59F
:104AC00085B004000D1C00281BD0002C17D0658574
:104AD00020000EF02BFA85B2013DADB220000EF0A1
:104AE0003DFA80B201382BB200B2009000220021C2
:104AF00002A80EF0D4FF02A9200009F021FF05B0A2
:104B000030BD0EF0C7F90400DFE730B585B0040012
:104B10000D0000281BD0002C17D0E56220000EF0FD
:104B200005FA85B2013DADB220000EF017FA80B251
:104B300001382BB200B200900022002102A80EF032
:104B4000AEFF02A9200009F0FBFE05B030BD0EF05B
:104B5000A1F90400DFE730B585B004000D0000289E
:104B60001CD0002C18D02923E55420000EF0DEF9CB
:104B700085B2013DADB220000EF0F0F980B20138EF
:104B80002BB200B200900022002102A80EF087FF95
:104B900002A9200009F0D4FE05B030BD0EF07AF96C
:104BA0000400DEE7F0B5DE4657464E464546E0B522
:104BB000A3B005000F00914698462CAB1B789B468E
:104BC00008F00EFC04000EF065F9FFF70FFF8246B7
:104BD000A069002817D0504515D0FFF7DDFE002151
:104BE000A0690EF06FFD00220021A06904F006FA12
:104BF00000226021A06907F07DFF2823E35C9B076A
:104C000061D4A3699A46A5616069002803D028236E
:104C1000E35C9B075BD43800FFF77CFE282201266B
:104C200003003340A05C012188431843A0545B4635
:104C30001E407600C3B201318B431E43A6540021AF
:104C400028000EF03FFD0EF025F9FFF7CFFE002102
:104C50000EF038FD00220021280004F0CFF90EF0FC
:104C600019F9FFF7C3FE0022002104F0C7F9002262
:104C70006021280007F03EFF0EF00CF9FFF7B6FEAA
:104C80000022602107F036FF4B464246134323D0F3
:104C900011A80EF0D7FC1195764B1393764B149315
:104CA0004B461C9343465D421D9568460EF0CAFC78
:104CB000236900934B460B930C950E2F1CD8BF0015
:104CC0006E4BDB599F46504608F0A3FC99E708F06D
:104CD000A0FC002363619EE72800FFF75DFE5B46B2
:104CE000002B14D0504608F094FC10E0644B129353
:104CF000002319931A931B9300222521504600F09C
:104D000026FA11A80EF014FD68460EF011FD23B02E
:104D1000F0BCBB46B246A946A046F0BD584B129324
:104D200020000EF003F919901A9000231B93E3E77B
:104D3000534B129320000EF0F9F8404219901A904C
:104D400000231B93D8E74F4B129320000EF006F977
:104D500019901A9000231B93CEE74A4B1293200020
:104D60000EF0FCF8404219901A9000231B93C3E701
:104D7000434E129620000EF0D9F819901A90002593
:104D80001B95019620000EF0D1F840420895099538
:104D90000A90B1E73A4E129620000EF0C7F8404252
:104DA00019901A9000251B95019620000EF0BEF870
:104DB000089509950A909FE7324E129620000EF052
:104DC000CDF819901A9000251B95019620000EF041
:104DD000C5F84042089509950A908DE7294E12962C
:104DE00020000EF0BBF8404219901A9000251B9548
:104DF000019620000EF0B2F8089509950A907BE71D
:104E0000214B1293002319931A93FF331B9373E7DB
:104E10001D4B0193FF230893099300230A936BE72B
:104E2000174B019320000EF081F8404200230893B5
:104E300009930A9060E7124B019320000EF076F878
:104E40000023089309930A9056E70E4B0193200024
:104E50000EF084F840420023089309930A904BE730
:104E6000084B019320000EF079F800230893099372
:104E70000A9041E7014A0010454900107C71031077
:104E80003B490010314900102549001000B583B09E
:104E90000023009300220021FFF784FE03B000BD31
:104EA00070B5002807D0AC235B00C0580EF0B0FAF4
:104EB0000500280070BD00200EF087F904000125D0
:104EC0006D4203E020000EF080F90400002CF0D0C9
:104ED000AC235B00E0580EF09BFA8542F2D9050046
:104EE000F0E710B5041E07D0002C04D00EF086FAAF
:104EF000AC235B00E05010BD0DF0CCFF0400F3E7E5
:104F000010B5002807D0002804D00068C36A002B21
:104F100000D0984710BD0DF0BDFFF4E710B50C00B0
:104F200000280CD0002809D0AA235B00C358002C0D
:104F300008D001229B18AA225200835010BD0DF008
:104F4000A9FFEFE701225242F4E710B5002808D08C
:104F5000002809D0AA235B00C358D817C01AC00F75
:104F600010BD0DF097FFF3E70020F9E710B500281A
:104F700003D0002800D0406810BD0DF08BFFF8E78B
:104F80008068002809D0837E9B069B0E8B4205D942
:104F9000C0684B0059188900401870470020FCE792
:104FA00010B50400037E5B0717D4037A233B012B63
:104FB00001D8012010BD8021C901406802F0F8FF2E
:104FC0000028F7D0237A113BDAB21B2AF2D89300DB
:104FD000034AD3589F460020ECE70020EAE7C0468A
:104FE000B871031010B50C00002801D0006803E070
:104FF0004B68186800E00068002802D00369002BA5
:10500000F9D000280CD00369002B0BD00023E360FB
:10501000036921009847237EDB0705D4012010BDDA
:105020000120FCE70120FAE70020F8E7F8B50600C8
:1050300001F01EF800280ED000688368002B01D014
:10504000317A9847337E022217001F401A4200D05F
:1050500077E0DB075FD400217068FFF791FF040061
:10506000002512E06368F360236830009847337EC0
:10507000022217001F401A4265D1DB074BD40135CD
:1050800029007068FFF77CFF0400002C0FD0236814
:10509000002BF4D0237A0822A256002AEFDA802BC4
:1050A000E0D080229343327A9342E8D1DAE73100AC
:1050B0000020FFF797FF071E04D000217068FFF75C
:1050C0005FFF0400002512E06368F360236830008E
:1050D0009847337E0222110019401A421BD1DB0788
:1050E00033D4013529007068FFF74AFF0400002C13
:1050F0000FD0012F0DD12368002BF2D0227A082384
:10510000E356002BEDDB002ADED0337A9A42E8D159
:10511000DAE7012F01D03800F8BD73685B68002B17
:10512000F9D03000FFF73CFF0028F4D073685B68CB
:1051300073603000FFF77AFF07000128EBD00027EB
:10514000E9E70127E7E70127E5E70F00E3E730B5E7
:1051500089B000281DD001AC01900290217200237B
:1051600004930592237E012293432376DBB203321C
:1051700093432376DBB2023A93432376064D2B68A2
:1051800006932C602000FFF751FF069B2B6009B0AF
:1051900030BD0120FBE7C0462405002000687047B1
:1051A00040687047037A7F20184070470069704755
:1051B000C0687047037E0422134303767047037E62
:1051C0000222134303767047024B1A68501C186082
:1051D0007047C04648030020084B1B6804E01A7E55
:1051E00001210A431A765B69002B06D05A68824275
:1051F000F5D01A688242F6D1F1E770472405002005
:10520000F0B583B005000F000092019303F000F9A0
:10521000AA68937E9906890E01313F20014083439D
:105220000B439376AE68B47EA406A30E610EC91834
:105230008900F06810F0A8F9F060AB68DA68002A1D
:105240002BD09B7E9B06990E5B0E5B189B000C3B44
:10525000D750AB68DA689B7E9B06990E5B0E5B1895
:105260009B000C3BD318009A1A72AB68DA689B7EDD
:105270009B06990E5B0E5B189B000C3BD318019AA2
:105280005A60AB68DA689B7E9B06980E5B0E1B1813
:105290009B000C3BD01803B0F0BDFEE770B50400D6
:1052A0008068002840D00023827E9206920E9A42A7
:1052B00038DD002915D05A00D2189200C568AA58C6
:1052C0008A420ED00133EFE7C9685D1C6A005219AB
:1052D00092008A185800C3189B00CB1843CA43C3D6
:1052E0002B00A1688A7E9206920E501E9842EBDC3B
:1052F0003F323F2313408A7E3F2082431A438A76FF
:10530000A568AB7E9B069A0E590E89188900E8683D
:1053100010F03AF9E860A368DB68002B01D00120A7
:1053200070BDFEE70020FBE70020F9E770B505003F
:105330008668002E4AD0002309E05800C01880007B
:10534000F468A4466044406890421CD00133B47EA7
:10535000A406A40E9C4237DD0029EED05C00E418C0
:10536000A400F06800598842F0D1E6E7C9685C1CE7
:105370006200121992008A185800C3189B00CB18BB
:1053800043CA43C32300A9688A7E9206920E501E28
:105390009842EBDC3F323F2313408A7E3F2082431A
:1053A0001A438A76AC68A37E9B069A0E590E89181A
:1053B0008900E06810F0E8F8E060AB68DB68002B7B
:1053C00001D0012001E0FEE7002070BD0020FCE7D5
:1053D00070B504008068002840D000232EE0C96822
:1053E0005D1C6A00521992008A185800C3189B006D
:1053F000CB1843CA43C32B00A1688A7E9206920E43
:10540000501E9842EBDC3F323F2313408A7E3F2000
:1054100082431A438A76A568AB7E9B069A0E590E84
:1054200089188900E86810F0AFF8E860A368DB68C5
:10543000002B01D0012010E0FEE70133827E9206AE
:10544000920E9A4208DD5A00D2189200C568AC4606
:1054500062448A42F1D1CFE7002070BD0020FCE712
:1054600010B58068002813D00022837E9B069B0E17
:1054700093420CDD53009B189B00C468A446634410
:105480001C688C4201D00132EFE7586800E0002030
:1054900010BD10B5037A013BDBB20F2B02D8FFF72A
:1054A00085FE10BD0020FCE710B5037A1A3BDBB285
:1054B000012B02D8FFF77AFE10BD0020FCE710B5E3
:1054C000027A1300143BDBB2022B05D9182A03D051
:1054D000172A01D0192A02D1FFF768FE10BD00205B
:1054E000FCE710B5037A292B02D1FFF75FFE10BD50
:1054F0000020FCE710B5037A0D2B05D1FFF756FE0F
:10550000002803D0006800E0002010BD0020FCE768
:1055100010B5037A092B02D1FFF748FE10BD002019
:10552000FCE710B50C00037A132B00D010BDFFF779
:105530003DFE0022835E1A1CA34200DA221C028078
:10554000F4E710B5037A2C2B02D1FFF72FFE10BD24
:105550000020FCE710B5037A112B02D1FFF726FEDD
:1055600010BD0020FCE710B5037A122B03D1FFF722
:105570001DFE406810BD0020FCE710B50C00037A4A
:10558000122B00D010BDFFF711FE0378A342F9D211
:105590000470F7E710B543799B071CD5002383629D
:1055A000C3620363427901218A4342718364C36405
:1055B0008383C3834331425C0F24A2434254038458
:1055C00043844022835202328352427942398A43D1
:1055D0004271014A136010BD2805002040788307FE
:1055E00002D5034B00221A6040080123184070477F
:1055F0002805002070B50400414B1868042102F012
:10560000D7FC00282ED03E4B1868236B834229D04C
:1056100002F0E3FC0500206B002801D002F0DDFC65
:10562000A84220D0002843D0236B002B0CD00028A8
:105630004DD0334A526810211800FFF788FD200032
:10564000FFF7CCFF00280DD1002D4CD02C4B186853
:1056500013F0A6FB2000FFF7C1FF002802D1284B62
:105660001B68236370BD002D09D0254B186813F00B
:1056700097FB2000FFF7B2FF0028F0D0F2E7206B85
:10568000002809D01E4B5A680F21FFF760FD20004B
:10569000FFF7A4FF0028E5D1194B5A6818680E21BE
:1056A000FFF755FD2000FFF799FF0028D7D0D9E775
:1056B000236B002BB8D0124A52680F211800FFF755
:1056C00046FD2000FFF78AFF0028BDD0CAE70C4A3C
:1056D00052680F211800FFF73AFD2000FFF77EFF08
:1056E0000028B1D0BEE7064B5A6818680E21FFF7B4
:1056F0002EFD2000FFF772FF0028B0D0B2E7C046B1
:1057000028050020F8B5CE46474680B50500C36A97
:10571000002B03D0C0BCB946B046F8BD4133C35CD2
:10572000DB07F7D4446A03E0200007F04DFE0400D5
:10573000002C06D080210902200002F039FC00284C
:10574000F2D1002CE6D01422AB5EDA179918514042
:1057500089B2344A52681068807E81420AD2162685
:10576000A95FCE178919714089B2884202D90021F8
:10577000A987E9879BB2A98F5B181BB2AB87E98A1F
:10578000E88F091809B2E987DE179819704080B2CE
:105790001668F67EB446B04205D8CE178F1977400A
:1057A000BFB2BC45B6D22F004037B9467E78B0466E
:1057B0000126B4466646474637433E004F467E7054
:1057C000CF17CE197E40B6B2B04218D9002B0EDDED
:1057D0004021685C0F230340202003436B540C21BD
:1057E0002000FFF7B4FC2800FFF7F8FE92E7402105
:1057F000685C0F230340102003436B54EFE700293C
:1058000007DD4020295C0F2319408F3B0B432B54AD
:10581000E5E74021685C0F230340402003436B54BD
:10582000DDE7C04628050020F0B5C64600B582B0C9
:10583000050043781B0722D4686A4B4B1860EF6A57
:10584000002800D183E05A680821FFF780FC280077
:10585000FFF7C4FE002800D081E0002F24D00023F1
:105860006B626B64AB64002F71D001AB00221A80B5
:105870005A803C0080235B009846002649E03A4B62
:105880005A680321406AFFF762FC2800FFF7A6FE72
:10589000002864D100236B62AB626B64AB646B78ED
:1058A000082293436B70C7E76B78DB070AD42E4B53
:1058B0005A6818680421FFF74AFC2800FFF78EFE9B
:1058C00000284CD1284B5A6818680721FFF73FFC85
:1058D0002800FFF783FE0028C1D040E06D220021A0
:1058E000200006F021FE80B2861936B26C2200211B
:1058F000200006F019FE00B2C317FF211940091855
:105900000912434659430BB29846200007F05CFD4C
:105910000400002CE2D1002E03D180235B009845C7
:1059200015D0764236B2414680204002FDF7DEFDBA
:1059300004B228001C3001AB220031000EF0DAFC6A
:105940002800203001AB220031000EF0D3FC002FE4
:1059500005D0280001F0BEFC2800FFF73FFE02B092
:1059600080BCB846F0BDC04628050020F8B504004C
:105970000D008B7B012B33D063791B070AD563792C
:105980000822934363710022A264DBB201218B439E
:1059900063712272666D002E21D0300013F0BDF9C4
:1059A000974B186000281AD0802102F010FB0700E6
:1059B000E1686B68E360227AAB7B2372012B13D022
:1059C000002F02D1012B00D16BE0002F04D1002B5E
:1059D00002D1012A00D1E1E0894B00221A60F8BD12
:1059E00043791B07C8D5FAE7002AE9D10DF006FD77
:1059F000A0646968092910D00B291BD0002FEBD1B6
:105A00000A2924D01B2937D0300013F08DF9201D2E
:105A1000FFF7E4FD0028DFD0E1E70021300013F0BC
:105A20009AF9300013F087F8201DFFF7D7FD002802
:105A3000D2D0D4E70021300013F08DF9300013F0FC
:105A40008DF8201DFFF7CAFD0028C5D0C7E730003C
:105A500013F06AF904342000FFF7C0FD0028BED11E
:105A6000674B5A6818680121FFF771FB2000FFF7A8
:105A7000B5FD0028B0D0B2E7300013F055F904347A
:105A80002000FFF7ABFD0028A9D15D4B5A681868CC
:105A90002021FFF75CFB2000FFF7A0FD00289BD032
:105AA0009DE7012A00D090E76B680A2B22D063792A
:105AB000DB072BD56379DB0700D48DE7E06C0DF0B5
:105AC000A7FC2368DB8B984200D885E70DF096FC95
:105AD000E06469680A2938D0092943D00B294FD0DE
